{
  "contractName": "AuctionBase",
  "abi": [
    {
      "constant": true,
      "inputs": [],
      "name": "nonFungibleContract",
      "outputs": [
        {
          "name": "",
          "type": "address"
        }
      ],
      "payable": false,
      "stateMutability": "view",
      "type": "function"
    },
    {
      "payable": false,
      "stateMutability": "nonpayable",
      "type": "fallback"
    },
    {
      "anonymous": false,
      "inputs": [
        {
          "indexed": false,
          "name": "tokenId",
          "type": "uint256"
        },
        {
          "indexed": false,
          "name": "price",
          "type": "uint256"
        }
      ],
      "name": "AuctionCreated",
      "type": "event"
    },
    {
      "anonymous": false,
      "inputs": [
        {
          "indexed": false,
          "name": "tokenId",
          "type": "uint256"
        },
        {
          "indexed": false,
          "name": "price",
          "type": "uint256"
        },
        {
          "indexed": false,
          "name": "buyer",
          "type": "address"
        }
      ],
      "name": "AuctionSuccessful",
      "type": "event"
    },
    {
      "anonymous": false,
      "inputs": [
        {
          "indexed": false,
          "name": "tokenId",
          "type": "uint256"
        }
      ],
      "name": "AuctionCancelled",
      "type": "event"
    }
  ],
  "bytecode": "0x608060405234801561001057600080fd5b5060f28061001f6000396000f300608060405260043610603f576000357c0100000000000000000000000000000000000000000000000000000000900463ffffffff168063dd1b7a0f14604d575b348015604a57600080fd5b50005b348015605857600080fd5b50605f60a1565b604051808273ffffffffffffffffffffffffffffffffffffffff1673ffffffffffffffffffffffffffffffffffffffff16815260200191505060405180910390f35b6000809054906101000a900473ffffffffffffffffffffffffffffffffffffffff16815600a165627a7a7230582029423eb5e8dea4786489cc02f83ce18fa7fdc5fcbcd92c3adad38988241c82810029",
  "source": "pragma solidity ^0.4.18;\n\nimport \"zeppelin-solidity/contracts/token/ERC721/ERC721Token.sol\";\n\n/// @title Auction Core\n/// @dev Contains models, variables, and internal methods for the auction.\ncontract AuctionBase {\n\n    // Represents an auction on an NFT\n    struct Auction {\n        // Current owner of NFT\n        address seller;\n        // Price (in wei)\n        uint256 price;\n        // Time when auction started\n        // NOTE: 0 if this auction has been concluded\n        uint64 startedAt;\n    }\n\n    // Reference to contract tracking NFT ownership\n    ERC721Token public nonFungibleContract;\n\n    // Map from token ID to their corresponding auction.\n    mapping (uint256 => Auction) tokenIdToAuction;\n\n    event AuctionCreated(uint256 tokenId, uint256 price);\n    event AuctionSuccessful(uint256 tokenId, uint256 price, address buyer);\n    event AuctionCancelled(uint256 tokenId);\n\n    /// @dev DON'T give me your money.\n    function() external {}\n\n    // Modifiers to check that inputs can be safely stored with a certain\n    // number of bits. We use constants and multiple modifiers to save gas.\n    modifier canBeStoredWith64Bits(uint256 _value) {\n        require(_value <= 18446744073709551615);\n        _;\n    }\n\n    modifier canBeStoredWith128Bits(uint256 _value) {\n        require(_value < 340282366920938463463374607431768211455);\n        _;\n    }\n\n    /// @dev Returns true if the claimant owns the token.\n    /// @param _claimant - Address claiming to own the token.\n    /// @param _tokenId - ID of token whose ownership to verify.\n    function _owns(address _claimant, uint256 _tokenId) internal view returns (bool) {\n        return (nonFungibleContract.ownerOf(_tokenId) == _claimant);\n    }\n\n    /// @dev Escrows the NFT, assigning ownership to this contract.\n    /// Throws if the escrow fails.\n    /// @param _owner - Current owner address of token to escrow.\n    /// @param _tokenId - ID of token whose approval to verify.\n    function _escrow(address _owner, uint256 _tokenId) internal {\n        // it will throw if transfer fails\n        nonFungibleContract.transferFrom(_owner, this, _tokenId);\n    }\n\n    /// @dev Transfers an NFT owned by this contract to another address.\n    /// Returns true if the transfer succeeds.\n    /// @param _receiver - Address to transfer NFT to.\n    /// @param _tokenId - ID of token to transfer.\n    function _transfer(address _receiver, uint256 _tokenId) internal {\n        // it will throw if transfer fails\n        nonFungibleContract.transferFrom(this, _receiver, _tokenId);\n    }\n\n    /// @dev Adds an auction to the list of open auctions. Also fires the\n    ///  AuctionCreated event.\n    /// @param _tokenId The ID of the token to be put on auction.\n    /// @param _auction Auction to add.\n    function _addAuction(uint256 _tokenId, Auction _auction) internal {\n        tokenIdToAuction[_tokenId] = _auction;\n        \n        AuctionCreated(\n            uint256(_tokenId),\n            uint256(_auction.price)\n        );\n    }\n\n    /// @dev Cancels an auction unconditionally.\n    function _cancelAuction(uint256 _tokenId, address _seller) internal {\n        _removeAuction(_tokenId);\n        _transfer(_seller, _tokenId);\n        AuctionCancelled(_tokenId);\n    }\n\n    /// @dev Computes the price and transfers winnings.\n    /// Does NOT transfer ownership of token.\n    function _bid(uint256 _tokenId, uint256 _bidAmount)\n        internal\n        returns (uint256)\n    {\n        // Get a reference to the auction struct\n        Auction storage auction = tokenIdToAuction[_tokenId];\n\n        // Explicitly check that this auction is currently live.\n        // (Because of how Ethereum mappings work, we can't just count\n        // on the lookup above failing. An invalid _tokenId will just\n        // return an auction object that is all zeros.)\n        require(_isOnAuction(auction));\n\n        // Check that the incoming bid is higher than the current\n        // price\n        uint256 price = auction.price;\n        require(_bidAmount >= price);\n\n        // Grab a reference to the seller before the auction struct\n        // gets deleted.\n        address seller = auction.seller;\n\n        // The bid is good! Remove the auction before sending the fees\n        // to the sender so we can't have a reentrancy attack.\n        _removeAuction(_tokenId);\n\n        seller.transfer(price);\n\n        // Tell the world!\n        AuctionSuccessful(_tokenId, price, msg.sender);\n\n        return price;\n    }\n\n    /// @dev Removes an auction from the list of open auctions.\n    /// @param _tokenId - ID of NFT on auction.\n    function _removeAuction(uint256 _tokenId) internal {\n        delete tokenIdToAuction[_tokenId];\n    }\n\n    /// @dev Returns true if the NFT is on auction.\n    /// @param _auction - Auction to check.\n    function _isOnAuction(Auction storage _auction) internal view returns (bool) {\n        return (_auction.startedAt > 0);\n    }\n}",
  "sourcePath": "/Users/nathanieloden/Documents/GitHub/jingle2/Jingle/contracts/AuctionBase.sol",
  "compiler": {
    "name": "solc",
    "version": "0.4.23+commit.124ca40d.Emscripten.clang"
  },
  "schemaVersion": "2.0.0",
  "updatedAt": "2018-05-25T02:06:51.843Z"
}