{
  "contractName": "Composable",
  "abi": [
    {
      "constant": true,
      "inputs": [],
      "name": "totalPayments",
      "outputs": [
        {
          "name": "",
          "type": "uint256"
        }
      ],
      "payable": false,
      "stateMutability": "view",
      "type": "function"
    },
    {
      "constant": false,
      "inputs": [
        {
          "name": "_to",
          "type": "address"
        },
        {
          "name": "_tokenId",
          "type": "uint256"
        }
      ],
      "name": "approve",
      "outputs": [],
      "payable": false,
      "stateMutability": "nonpayable",
      "type": "function"
    },
    {
      "constant": true,
      "inputs": [],
      "name": "totalSupply",
      "outputs": [
        {
          "name": "",
          "type": "uint256"
        }
      ],
      "payable": false,
      "stateMutability": "view",
      "type": "function"
    },
    {
      "constant": true,
      "inputs": [
        {
          "name": "_tokenId",
          "type": "uint256"
        }
      ],
      "name": "approvedFor",
      "outputs": [
        {
          "name": "",
          "type": "address"
        }
      ],
      "payable": false,
      "stateMutability": "view",
      "type": "function"
    },
    {
      "constant": true,
      "inputs": [
        {
          "name": "",
          "type": "uint256"
        }
      ],
      "name": "tokenIdToCompositionPrice",
      "outputs": [
        {
          "name": "",
          "type": "uint256"
        }
      ],
      "payable": false,
      "stateMutability": "view",
      "type": "function"
    },
    {
      "constant": true,
      "inputs": [
        {
          "name": "",
          "type": "uint256"
        },
        {
          "name": "",
          "type": "uint256"
        }
      ],
      "name": "tokenIdToLayers",
      "outputs": [
        {
          "name": "",
          "type": "uint256"
        }
      ],
      "payable": false,
      "stateMutability": "view",
      "type": "function"
    },
    {
      "constant": false,
      "inputs": [],
      "name": "unpause",
      "outputs": [],
      "payable": false,
      "stateMutability": "nonpayable",
      "type": "function"
    },
    {
      "constant": true,
      "inputs": [
        {
          "name": "_owner",
          "type": "address"
        }
      ],
      "name": "tokensOf",
      "outputs": [
        {
          "name": "",
          "type": "uint256[]"
        }
      ],
      "payable": false,
      "stateMutability": "view",
      "type": "function"
    },
    {
      "constant": true,
      "inputs": [],
      "name": "paused",
      "outputs": [
        {
          "name": "",
          "type": "bool"
        }
      ],
      "payable": false,
      "stateMutability": "view",
      "type": "function"
    },
    {
      "constant": false,
      "inputs": [],
      "name": "withdrawPayments",
      "outputs": [],
      "payable": false,
      "stateMutability": "nonpayable",
      "type": "function"
    },
    {
      "constant": true,
      "inputs": [
        {
          "name": "_tokenId",
          "type": "uint256"
        }
      ],
      "name": "ownerOf",
      "outputs": [
        {
          "name": "",
          "type": "address"
        }
      ],
      "payable": false,
      "stateMutability": "view",
      "type": "function"
    },
    {
      "constant": true,
      "inputs": [
        {
          "name": "",
          "type": "bytes32"
        }
      ],
      "name": "melodyHashes",
      "outputs": [
        {
          "name": "",
          "type": "bool"
        }
      ],
      "payable": false,
      "stateMutability": "view",
      "type": "function"
    },
    {
      "constant": true,
      "inputs": [
        {
          "name": "_owner",
          "type": "address"
        }
      ],
      "name": "balanceOf",
      "outputs": [
        {
          "name": "",
          "type": "uint256"
        }
      ],
      "payable": false,
      "stateMutability": "view",
      "type": "function"
    },
    {
      "constant": true,
      "inputs": [
        {
          "name": "",
          "type": "bytes32"
        }
      ],
      "name": "compositions",
      "outputs": [
        {
          "name": "",
          "type": "bool"
        }
      ],
      "payable": false,
      "stateMutability": "view",
      "type": "function"
    },
    {
      "constant": false,
      "inputs": [],
      "name": "pause",
      "outputs": [],
      "payable": false,
      "stateMutability": "nonpayable",
      "type": "function"
    },
    {
      "constant": true,
      "inputs": [],
      "name": "owner",
      "outputs": [
        {
          "name": "",
          "type": "address"
        }
      ],
      "payable": false,
      "stateMutability": "view",
      "type": "function"
    },
    {
      "constant": false,
      "inputs": [
        {
          "name": "_to",
          "type": "address"
        },
        {
          "name": "_tokenId",
          "type": "uint256"
        }
      ],
      "name": "transfer",
      "outputs": [],
      "payable": false,
      "stateMutability": "nonpayable",
      "type": "function"
    },
    {
      "constant": false,
      "inputs": [
        {
          "name": "_tokenId",
          "type": "uint256"
        }
      ],
      "name": "takeOwnership",
      "outputs": [],
      "payable": false,
      "stateMutability": "nonpayable",
      "type": "function"
    },
    {
      "constant": true,
      "inputs": [],
      "name": "isCompositionOnlyWithBaseLayers",
      "outputs": [
        {
          "name": "",
          "type": "bool"
        }
      ],
      "payable": false,
      "stateMutability": "view",
      "type": "function"
    },
    {
      "constant": true,
      "inputs": [],
      "name": "minCompositionFee",
      "outputs": [
        {
          "name": "",
          "type": "uint256"
        }
      ],
      "payable": false,
      "stateMutability": "view",
      "type": "function"
    },
    {
      "constant": true,
      "inputs": [],
      "name": "MAX_LAYERS",
      "outputs": [
        {
          "name": "",
          "type": "uint256"
        }
      ],
      "payable": false,
      "stateMutability": "view",
      "type": "function"
    },
    {
      "constant": true,
      "inputs": [
        {
          "name": "",
          "type": "address"
        }
      ],
      "name": "payments",
      "outputs": [
        {
          "name": "",
          "type": "uint256"
        }
      ],
      "payable": false,
      "stateMutability": "view",
      "type": "function"
    },
    {
      "constant": false,
      "inputs": [
        {
          "name": "newOwner",
          "type": "address"
        }
      ],
      "name": "transferOwnership",
      "outputs": [],
      "payable": false,
      "stateMutability": "nonpayable",
      "type": "function"
    },
    {
      "anonymous": false,
      "inputs": [
        {
          "indexed": false,
          "name": "tokenId",
          "type": "uint256"
        }
      ],
      "name": "BaseTokenCreated",
      "type": "event"
    },
    {
      "anonymous": false,
      "inputs": [
        {
          "indexed": false,
          "name": "tokenId",
          "type": "uint256"
        },
        {
          "indexed": false,
          "name": "layers",
          "type": "uint256[]"
        },
        {
          "indexed": true,
          "name": "owner",
          "type": "address"
        }
      ],
      "name": "CompositionTokenCreated",
      "type": "event"
    },
    {
      "anonymous": false,
      "inputs": [
        {
          "indexed": false,
          "name": "tokenId",
          "type": "uint256"
        },
        {
          "indexed": false,
          "name": "price",
          "type": "uint256"
        },
        {
          "indexed": true,
          "name": "owner",
          "type": "address"
        }
      ],
      "name": "CompositionPriceChanged",
      "type": "event"
    },
    {
      "anonymous": false,
      "inputs": [
        {
          "indexed": false,
          "name": "tokenId",
          "type": "uint256"
        },
        {
          "indexed": false,
          "name": "amount",
          "type": "uint256"
        },
        {
          "indexed": true,
          "name": "owner",
          "type": "address"
        }
      ],
      "name": "RoyaltiesPaid",
      "type": "event"
    },
    {
      "anonymous": false,
      "inputs": [],
      "name": "Pause",
      "type": "event"
    },
    {
      "anonymous": false,
      "inputs": [],
      "name": "Unpause",
      "type": "event"
    },
    {
      "anonymous": false,
      "inputs": [
        {
          "indexed": true,
          "name": "previousOwner",
          "type": "address"
        },
        {
          "indexed": true,
          "name": "newOwner",
          "type": "address"
        }
      ],
      "name": "OwnershipTransferred",
      "type": "event"
    },
    {
      "anonymous": false,
      "inputs": [
        {
          "indexed": true,
          "name": "_from",
          "type": "address"
        },
        {
          "indexed": true,
          "name": "_to",
          "type": "address"
        },
        {
          "indexed": false,
          "name": "_tokenId",
          "type": "uint256"
        }
      ],
      "name": "Transfer",
      "type": "event"
    },
    {
      "anonymous": false,
      "inputs": [
        {
          "indexed": true,
          "name": "_owner",
          "type": "address"
        },
        {
          "indexed": true,
          "name": "_approved",
          "type": "address"
        },
        {
          "indexed": false,
          "name": "_tokenId",
          "type": "uint256"
        }
      ],
      "name": "Approval",
      "type": "event"
    },
    {
      "constant": true,
      "inputs": [
        {
          "name": "_tokenId",
          "type": "uint256"
        }
      ],
      "name": "getTokenLayers",
      "outputs": [
        {
          "name": "",
          "type": "uint256[]"
        }
      ],
      "payable": false,
      "stateMutability": "view",
      "type": "function"
    },
    {
      "constant": true,
      "inputs": [
        {
          "name": "_tokenIds",
          "type": "uint256[]"
        },
        {
          "name": "_melodyHash",
          "type": "bytes32"
        }
      ],
      "name": "isValidComposition",
      "outputs": [
        {
          "name": "",
          "type": "bool"
        }
      ],
      "payable": false,
      "stateMutability": "view",
      "type": "function"
    },
    {
      "constant": true,
      "inputs": [
        {
          "name": "_tokenId",
          "type": "uint256"
        }
      ],
      "name": "getCompositionPrice",
      "outputs": [
        {
          "name": "",
          "type": "uint256"
        }
      ],
      "payable": false,
      "stateMutability": "view",
      "type": "function"
    },
    {
      "constant": true,
      "inputs": [
        {
          "name": "_tokenIds",
          "type": "uint256[]"
        }
      ],
      "name": "getTotalCompositionPrice",
      "outputs": [
        {
          "name": "",
          "type": "uint256"
        }
      ],
      "payable": false,
      "stateMutability": "view",
      "type": "function"
    },
    {
      "constant": false,
      "inputs": [
        {
          "name": "_tokenId",
          "type": "uint256"
        },
        {
          "name": "_price",
          "type": "uint256"
        }
      ],
      "name": "setCompositionPrice",
      "outputs": [],
      "payable": false,
      "stateMutability": "nonpayable",
      "type": "function"
    },
    {
      "constant": false,
      "inputs": [
        {
          "name": "_to",
          "type": "address"
        }
      ],
      "name": "payout",
      "outputs": [],
      "payable": false,
      "stateMutability": "nonpayable",
      "type": "function"
    },
    {
      "constant": false,
      "inputs": [
        {
          "name": "_price",
          "type": "uint256"
        }
      ],
      "name": "setMinCompositionFee",
      "outputs": [],
      "payable": false,
      "stateMutability": "nonpayable",
      "type": "function"
    }
  ],
  "bytecode": "0x60606040526000600860006101000a81548160ff02191690831515021790555033600560006101000a81548173ffffffffffffffffffffffffffffffffffffffff021916908373ffffffffffffffffffffffffffffffffffffffff16021790555061222f8061006f6000396000f30060606040526004361061017f576000357c0100000000000000000000000000000000000000000000000000000000900463ffffffff1680625b448714610184578063095ea7b3146101ad5780630b7e9c44146101ef57806318160ddd146102285780631983111d146102515780631f89e911146102bf5780632a6dd48f146102f657806338e50d3c146103595780633f27afa7146103905780633f4ba83a146103d05780635a3f2672146103e55780635c975abb146104735780636103d70b146104a05780636352211e146104b557806363f2f543146105185780636c6eed901461055757806370a08231146105d657806370e2b625146106235780638456cb59146106625780638da5cb5b14610677578063a9059cbb146106cc578063aae07cd01461070e578063b2e6ceeb14610786578063b9e3a8dd146107a9578063befc7642146107d6578063c73ec2eb146107f9578063c829b0e314610822578063d5e0d8fc1461084b578063e2982c2114610877578063f2fde38b146108c4575b600080fd5b341561018f57600080fd5b6101976108fd565b6040518082815260200191505060405180910390f35b34156101b857600080fd5b6101ed600480803573ffffffffffffffffffffffffffffffffffffffff16906020019091908035906020019091905050610903565b005b34156101fa57600080fd5b610226600480803573ffffffffffffffffffffffffffffffffffffffff16906020019091905050610a96565b005b341561023357600080fd5b61023b610b54565b6040518082815260200191505060405180910390f35b341561025c57600080fd5b6102a9600480803590602001908201803590602001908080602002602001604051908101604052809392919081815260200183836020028082843782019150505050505091905050610b5d565b6040518082815260200191505060405180910390f35b34156102ca57600080fd5b6102e06004808035906020019091905050610c02565b6040518082815260200191505060405180910390f35b341561030157600080fd5b6103176004808035906020019091905050610c1f565b604051808273ffffffffffffffffffffffffffffffffffffffff1673ffffffffffffffffffffffffffffffffffffffff16815260200191505060405180910390f35b341561036457600080fd5b61037a6004808035906020019091905050610c5c565b6040518082815260200191505060405180910390f35b341561039b57600080fd5b6103ba6004808035906020019091908035906020019091905050610c74565b6040518082815260200191505060405180910390f35b34156103db57600080fd5b6103e3610ca5565b005b34156103f057600080fd5b61041c600480803573ffffffffffffffffffffffffffffffffffffffff16906020019091905050610d65565b6040518080602001828103825283818151815260200191508051906020019060200280838360005b8381101561045f578082015181840152602081019050610444565b505050509050019250505060405180910390f35b341561047e57600080fd5b610486610e02565b604051808215151515815260200191505060405180910390f35b34156104ab57600080fd5b6104b3610e15565b005b34156104c057600080fd5b6104d66004808035906020019091905050610f34565b604051808273ffffffffffffffffffffffffffffffffffffffff1673ffffffffffffffffffffffffffffffffffffffff16815260200191505060405180910390f35b341561052357600080fd5b61053d600480803560001916906020019091905050610fb2565b604051808215151515815260200191505060405180910390f35b341561056257600080fd5b6105bc60048080359060200190820180359060200190808060200260200160405190810160405280939291908181526020018383602002808284378201915050505050509190803560001916906020019091905050610fd2565b604051808215151515815260200191505060405180910390f35b34156105e157600080fd5b61060d600480803573ffffffffffffffffffffffffffffffffffffffff1690602001909190505061100d565b6040518082815260200191505060405180910390f35b341561062e57600080fd5b610648600480803560001916906020019091905050611059565b604051808215151515815260200191505060405180910390f35b341561066d57600080fd5b610675611079565b005b341561068257600080fd5b61068a61113a565b604051808273ffffffffffffffffffffffffffffffffffffffff1673ffffffffffffffffffffffffffffffffffffffff16815260200191505060405180910390f35b34156106d757600080fd5b61070c600480803573ffffffffffffffffffffffffffffffffffffffff16906020019091908035906020019091905050611160565b005b341561071957600080fd5b61072f60048080359060200190919050506111b3565b6040518080602001828103825283818151815260200191508051906020019060200280838360005b83811015610772578082015181840152602081019050610757565b505050509050019250505060405180910390f35b341561079157600080fd5b6107a76004808035906020019091905050611224565b005b34156107b457600080fd5b6107bc61124f565b604051808215151515815260200191505060405180910390f35b34156107e157600080fd5b6107f76004808035906020019091905050611262565b005b341561080457600080fd5b61080c6112c8565b6040518082815260200191505060405180910390f35b341561082d57600080fd5b6108356112ce565b6040518082815260200191505060405180910390f35b341561085657600080fd5b61087560048080359060200190919080359060200190919050506112d3565b005b341561088257600080fd5b6108ae600480803573ffffffffffffffffffffffffffffffffffffffff16906020019091905050611325565b6040518082815260200191505060405180910390f35b34156108cf57600080fd5b6108fb600480803573ffffffffffffffffffffffffffffffffffffffff1690602001909190505061133d565b005b60075481565b6000813373ffffffffffffffffffffffffffffffffffffffff1661092682610f34565b73ffffffffffffffffffffffffffffffffffffffff1614151561094857600080fd5b61095183610f34565b91508173ffffffffffffffffffffffffffffffffffffffff168473ffffffffffffffffffffffffffffffffffffffff161415151561098e57600080fd5b600061099984610c1f565b73ffffffffffffffffffffffffffffffffffffffff161415806109d3575060008473ffffffffffffffffffffffffffffffffffffffff1614155b15610a9057836002600085815260200190815260200160002060006101000a81548173ffffffffffffffffffffffffffffffffffffffff021916908373ffffffffffffffffffffffffffffffffffffffff1602179055508373ffffffffffffffffffffffffffffffffffffffff168273ffffffffffffffffffffffffffffffffffffffff167f8c5be1e5ebec7d5bd14f71427d1e84f3dd0314c0f7b2291e5b200ac8c7c3b925856040518082815260200191505060405180910390a35b50505050565b600560009054906101000a900473ffffffffffffffffffffffffffffffffffffffff1673ffffffffffffffffffffffffffffffffffffffff163373ffffffffffffffffffffffffffffffffffffffff16141515610af257600080fd5b60006007819055508073ffffffffffffffffffffffffffffffffffffffff166108fc3073ffffffffffffffffffffffffffffffffffffffff16319081150290604051600060405180830381858888f193505050501515610b5157600080fd5b50565b60008054905090565b6000806000809150600090505b8351811015610be157610b938482815181101515610b8457fe5b90602001906020020151611495565b1515610b9e57600080fd5b610bd282600a60008785815181101515610bb457fe5b906020019060200201518152602001908152602001600020546114b8565b91508080600101915050610b6a565b610bf6610bef8360696114d6565b6064611511565b91508192505050919050565b6000600a6000838152602001908152602001600020549050919050565b60006002600083815260200190815260200160002060009054906101000a900473ffffffffffffffffffffffffffffffffffffffff169050919050565b600a6020528060005260406000206000915090505481565b600b60205281600052604060002081815481101515610c8f57fe5b9060005260206000209001600091509150505481565b600560009054906101000a900473ffffffffffffffffffffffffffffffffffffffff1673ffffffffffffffffffffffffffffffffffffffff163373ffffffffffffffffffffffffffffffffffffffff16141515610d0157600080fd5b600860009054906101000a900460ff161515610d1c57600080fd5b6000600860006101000a81548160ff0219169083151502179055507f7805862f689e2f13df9f062ff482ad3ad112aca9e0847911ed832e158c525b3360405160405180910390a1565b610d6d612172565b600360008373ffffffffffffffffffffffffffffffffffffffff1673ffffffffffffffffffffffffffffffffffffffff168152602001908152602001600020805480602002602001604051908101604052809291908181526020018280548015610df657602002820191906000526020600020905b815481526020019060010190808311610de2575b50505050509050919050565b600860009054906101000a900460ff1681565b600080339150600660008373ffffffffffffffffffffffffffffffffffffffff1673ffffffffffffffffffffffffffffffffffffffff16815260200190815260200160002054905060008114151515610e6d57600080fd5b803073ffffffffffffffffffffffffffffffffffffffff163110151515610e9357600080fd5b610ea88160075461152c90919063ffffffff16565b6007819055506000600660008473ffffffffffffffffffffffffffffffffffffffff1673ffffffffffffffffffffffffffffffffffffffff168152602001908152602001600020819055508173ffffffffffffffffffffffffffffffffffffffff166108fc829081150290604051600060405180830381858888f193505050501515610f3057fe5b5050565b6000806001600084815260200190815260200160002060009054906101000a900473ffffffffffffffffffffffffffffffffffffffff169050600073ffffffffffffffffffffffffffffffffffffffff168173ffffffffffffffffffffffffffffffffffffffff1614151515610fa957600080fd5b80915050919050565b600d6020528060005260406000206000915054906101000a900460ff1681565b6000601160009054906101000a900460ff1615610ffa57610ff38383611545565b9050611007565b6110048383611730565b90505b92915050565b6000600360008373ffffffffffffffffffffffffffffffffffffffff1673ffffffffffffffffffffffffffffffffffffffff168152602001908152602001600020805490509050919050565b600c6020528060005260406000206000915054906101000a900460ff1681565b600560009054906101000a900473ffffffffffffffffffffffffffffffffffffffff1673ffffffffffffffffffffffffffffffffffffffff163373ffffffffffffffffffffffffffffffffffffffff161415156110d557600080fd5b600860009054906101000a900460ff161515156110f157600080fd5b6001600860006101000a81548160ff0219169083151502179055507f6985a02210a168e66602d3235cb6db0e70f92b3ba4d376a33c0f3d9434bff62560405160405180910390a1565b600560009054906101000a900473ffffffffffffffffffffffffffffffffffffffff1681565b803373ffffffffffffffffffffffffffffffffffffffff1661118182610f34565b73ffffffffffffffffffffffffffffffffffffffff161415156111a357600080fd5b6111ae33848461194a565b505050565b6111bb612172565b600b600083815260200190815260200160002080548060200260200160405190810160405280929190818152602001828054801561121857602002820191906000526020600020905b815481526020019060010190808311611204575b50505050509050919050565b61122e3382611a93565b151561123957600080fd5b61124c61124582610f34565b338361194a565b50565b601160009054906101000a900460ff1681565b600560009054906101000a900473ffffffffffffffffffffffffffffffffffffffff1673ffffffffffffffffffffffffffffffffffffffff163373ffffffffffffffffffffffffffffffffffffffff161415156112be57600080fd5b8060098190555050565b60095481565b600a81565b813373ffffffffffffffffffffffffffffffffffffffff166112f482610f34565b73ffffffffffffffffffffffffffffffffffffffff1614151561131657600080fd5b6113208383611ad4565b505050565b60066020528060005260406000206000915090505481565b600560009054906101000a900473ffffffffffffffffffffffffffffffffffffffff1673ffffffffffffffffffffffffffffffffffffffff163373ffffffffffffffffffffffffffffffffffffffff1614151561139957600080fd5b600073ffffffffffffffffffffffffffffffffffffffff168173ffffffffffffffffffffffffffffffffffffffff16141515156113d557600080fd5b8073ffffffffffffffffffffffffffffffffffffffff16600560009054906101000a900473ffffffffffffffffffffffffffffffffffffffff1673ffffffffffffffffffffffffffffffffffffffff167f8be0079c531659141344cd1fd0a4f28419497f9722a3daafe3b4186f6b6457e060405160405180910390a380600560006101000a81548173ffffffffffffffffffffffffffffffffffffffff021916908373ffffffffffffffffffffffffffffffffffffffff16021790555050565b600080600b60008481526020019081526020016000208054905014159050919050565b60008082840190508381101515156114cc57fe5b8091505092915050565b60008060008414156114eb576000915061150a565b82840290508284828115156114fc57fe5b0414151561150657fe5b8091505b5092915050565b600080828481151561151f57fe5b0490508091505092915050565b600082821115151561153a57fe5b818303905092915050565b600061154f612172565b600080600a86511115151561156357600080fd5b85516040518059106115725750595b90808252806020026020018201604052509250600091505b855182101561171a576115b386838151811015156115a457fe5b90602001906020020151611495565b15156115c25760009350611727565b6001600b600088858151811015156115d657fe5b906020019060200201518152602001908152602001600020805490501415156116025760009350611727565b600090505b825181101561170d57600b6000878481518110151561162257fe5b906020019060200201518152602001908152602001600020600081548110151561164857fe5b906000526020600020900154838281518110151561166257fe5b90602001906020020151141561167b5760009350611727565b6000838281518110151561168b57fe5b90602001906020020151141561170057600b600087848151811015156116ad57fe5b90602001906020020151815260200190815260200160002060008154811015156116d357fe5b90600052602060002090015483828151811015156116ed57fe5b906020019060200201818152505061170d565b8080600101915050611607565b818060010192505061158a565b6117248386611b57565b93505b50505092915050565b600061173a612172565b6000806000611747612172565b600080600a6040518059106117595750595b9080825280602002602001820160405250965060009550600a8a511115611783576000975061193d565b600094505b895185101561192757898581518110151561179f57fe5b9060200190602002015193506117b484611495565b15156117c3576000975061193d565b600b600085815260200190815260200160002080548060200260200160405190810160405280929190818152602001828054801561182057602002820191906000526020600020905b81548152602001906001019080831161180c575b50505050509250600a835110151561183757600080fd5b600091505b825182101561191a57600a8610151561185457600080fd5b600090505b86518110156118d357828281518110151561187057fe5b90602001906020020151878281518110151561188857fe5b9060200190602002015114156118a1576000975061193d565b600087828151811015156118b157fe5b9060200190602002015114156118c6576118d3565b8080600101915050611859565b82828151811015156118e157fe5b9060200190602002015187878151811015156118f957fe5b9060200190602002018181525050600186019550818060010192505061183c565b8480600101955050611788565b61193a6119348888611c0a565b8a611b57565b97505b5050505050505092915050565b600073ffffffffffffffffffffffffffffffffffffffff168273ffffffffffffffffffffffffffffffffffffffff161415151561198657600080fd5b61198f81610f34565b73ffffffffffffffffffffffffffffffffffffffff168273ffffffffffffffffffffffffffffffffffffffff16141515156119c957600080fd5b8273ffffffffffffffffffffffffffffffffffffffff166119e982610f34565b73ffffffffffffffffffffffffffffffffffffffff16141515611a0b57600080fd5b611a158382611c96565b611a1f8382611d7f565b611a298282612007565b8173ffffffffffffffffffffffffffffffffffffffff168373ffffffffffffffffffffffffffffffffffffffff167fddf252ad1be2c89b69c2b068fc378daa952ba7f163c4a11628f55a4df523b3ef836040518082815260200191505060405180910390a3505050565b60008273ffffffffffffffffffffffffffffffffffffffff16611ab583610c1f565b73ffffffffffffffffffffffffffffffffffffffff1614905092915050565b6009548110151515611ae557600080fd5b80600a6000848152602001908152602001600020819055503373ffffffffffffffffffffffffffffffffffffffff167f372883ed096f3aca24c33c36571b41f60a645cb114b5590f319e2e1c2606db6e8383604051808381526020018281526020019250505060405180910390a25050565b6000801515600c60008560405180828051906020019060200280838360005b83811015611b91578082015181840152602081019050611b76565b5050505090500191505060405180910390206000191660001916815260200190815260200160002060009054906101000a900460ff161515148015611c02575060001515600d6000846000191660001916815260200190815260200160002060009054906101000a900460ff161515145b905092915050565b611c12612172565b611c1a612172565b600083604051805910611c2a5750595b90808252806020026020018201604052509150600090505b83811015611c8b578481815181101515611c5857fe5b906020019060200201518282815181101515611c7057fe5b90602001906020020181815250508080600101915050611c42565b819250505092915050565b8173ffffffffffffffffffffffffffffffffffffffff16611cb682610f34565b73ffffffffffffffffffffffffffffffffffffffff16141515611cd857600080fd5b60006002600083815260200190815260200160002060006101000a81548173ffffffffffffffffffffffffffffffffffffffff021916908373ffffffffffffffffffffffffffffffffffffffff16021790555060008273ffffffffffffffffffffffffffffffffffffffff167f8c5be1e5ebec7d5bd14f71427d1e84f3dd0314c0f7b2291e5b200ac8c7c3b925836040518082815260200191505060405180910390a35050565b60008060008473ffffffffffffffffffffffffffffffffffffffff16611da485610f34565b73ffffffffffffffffffffffffffffffffffffffff16141515611dc657600080fd5b60046000858152602001908152602001600020549250611df86001611dea8761100d565b61152c90919063ffffffff16565b9150600360008673ffffffffffffffffffffffffffffffffffffffff1673ffffffffffffffffffffffffffffffffffffffff16815260200190815260200160002082815481101515611e4657fe5b906000526020600020900154905060006001600086815260200190815260200160002060006101000a81548173ffffffffffffffffffffffffffffffffffffffff021916908373ffffffffffffffffffffffffffffffffffffffff16021790555080600360008773ffffffffffffffffffffffffffffffffffffffff1673ffffffffffffffffffffffffffffffffffffffff16815260200190815260200160002084815481101515611ef457fe5b9060005260206000209001819055506000600360008773ffffffffffffffffffffffffffffffffffffffff1673ffffffffffffffffffffffffffffffffffffffff16815260200190815260200160002083815481101515611f5157fe5b906000526020600020900181905550600360008673ffffffffffffffffffffffffffffffffffffffff1673ffffffffffffffffffffffffffffffffffffffff168152602001908152602001600020805480919060019003611fb29190612186565b5060006004600086815260200190815260200160002081905550826004600083815260200190815260200160002081905550611ffa600160005461152c90919063ffffffff16565b6000819055505050505050565b60008073ffffffffffffffffffffffffffffffffffffffff166001600084815260200190815260200160002060009054906101000a900473ffffffffffffffffffffffffffffffffffffffff1673ffffffffffffffffffffffffffffffffffffffff1614151561207657600080fd5b826001600084815260200190815260200160002060006101000a81548173ffffffffffffffffffffffffffffffffffffffff021916908373ffffffffffffffffffffffffffffffffffffffff1602179055506120d18361100d565b9050600360008473ffffffffffffffffffffffffffffffffffffffff1673ffffffffffffffffffffffffffffffffffffffff168152602001908152602001600020805480600101828161212491906121b2565b91600052602060002090016000849091909150555080600460008481526020019081526020016000208190555061216760016000546114b890919063ffffffff16565b600081905550505050565b602060405190810160405280600081525090565b8154818355818115116121ad578183600052602060002091820191016121ac91906121de565b5b505050565b8154818355818115116121d9578183600052602060002091820191016121d891906121de565b5b505050565b61220091905b808211156121fc5760008160009055506001016121e4565b5090565b905600a165627a7a723058207e6a89a3d82a9ed661fe872e01af62225f795ba57b8b7090dd7d00729bdd76380029",
  "source": "pragma solidity ^0.4.21;\n\nimport \"zeppelin-solidity/contracts/token/ERC721/ERC721Token.sol\";\nimport \"zeppelin-solidity/contracts/math/SafeMath.sol\";\nimport \"zeppelin-solidity/contracts/ownership/Ownable.sol\";\nimport \"zeppelin-solidity/contracts/payment/PullPayment.sol\";\nimport \"zeppelin-solidity/contracts/lifecycle/Pausable.sol\";\n\n\n/**\n * @title Composable\n * Composable - a contract to mint compositions\n */\n\ncontract Composable is ERC721Token, Ownable, PullPayment, Pausable {\n    // Max number of layers for a composition token\n    uint public constant MAX_LAYERS = 10;\n    // The minimum composition fee for a melody\n    uint256 public minCompositionFee;\n\n    struct note {\n        int8 pitch;\n        uint256 startTime;\n        uint256 duration;\n    }\n\n    struct Melody {\n        note[] melody;\n    }\n\n    // Mapping from token ID to composition price\n    mapping (uint256 => uint256) public tokenIdToCompositionPrice;\n    // Mapping from token ID to layers representing it\n    mapping (uint256 => uint256[]) public tokenIdToLayers;\n    // Hash of all layers to track uniqueness of melodys\n    mapping (bytes32 => bool) public compositions;\n    // Image hashes to track uniquenes of melody images.\n    mapping (bytes32 => bool) public melodyHashes;\n\n    mapping (uint256 => Melody) internal tokenIdToMelody;\n\n    mapping (uint256 => int8[]) internal tokenIdToDisplayPitch;\n\n    mapping (uint256 => bytes32) internal tokenIdToTitle;\n\n    // Event for emitting new base token created \n    event BaseTokenCreated(uint256 tokenId); \n    // Event for emitting new composition token created \n    event CompositionTokenCreated(uint256 tokenId, uint256[] layers, address indexed owner);\n    // Event for emitting composition price changing for a token\n    event CompositionPriceChanged(uint256 tokenId, uint256 price, address indexed owner);\n    // Event for emitting composition price changing for a token\n    event RoyaltiesPaid(uint256 tokenId, uint256 amount, address indexed owner);\n\n    // Whether or not this contract accepts making compositions with other compositions\n    bool public isCompositionOnlyWithBaseLayers;\n    \n// ----- EXPOSED METHODS --------------------------------------------------------------------------\n\n    /**\n    * @dev Mints a base token to an address with a given composition price\n    * @param _to address of the future owner of the token\n    * @param _compositionPrice uint256 composition price for the new token\n    * @param _melodyHash uint256 hash of the resulting image\n    */\n    function mintTo(address _to, uint256 _compositionPrice, bytes32 _melodyHash) internal returns (uint256) {\n        uint256 newTokenIndex = _getNextTokenId();\n        _mint(_to, newTokenIndex);\n        tokenIdToLayers[newTokenIndex] = [newTokenIndex];\n        require(_isUnique(tokenIdToLayers[newTokenIndex], _melodyHash));\n        compositions[keccak256([newTokenIndex])] = true;\n        melodyHashes[_melodyHash] = true;      \n        emit BaseTokenCreated(newTokenIndex);\n        _setCompositionPrice(newTokenIndex, _compositionPrice);\n\n        return newTokenIndex;\n    }\n\n    /**\n    * @dev Mints a composition melody\n    * @param _tokenIds uint256[] the array of layers that will make up the composition\n    */\n    function compose(uint256[] _tokenIds,  bytes32 _melodyHash) internal whenNotPaused {\n        require(_tokenIds.length > 1);\n        uint256 price = getTotalCompositionPrice(_tokenIds);\n        require(msg.sender != address(0) && msg.value >= price);\n        require(_tokenIds.length <= MAX_LAYERS);\n\n        uint256[] memory layers = new uint256[](MAX_LAYERS);\n        uint actualSize = 0; \n\n        for (uint i = 0; i < _tokenIds.length; i++) { \n            uint256 compositionLayerId = _tokenIds[i];\n            require(_tokenLayersExist(compositionLayerId));\n            uint256[] memory inheritedLayers = tokenIdToLayers[compositionLayerId];\n            if (isCompositionOnlyWithBaseLayers) { \n                require(inheritedLayers.length == 1);\n            }\n            require(inheritedLayers.length < MAX_LAYERS);\n            for (uint j = 0; j < inheritedLayers.length; j++) { \n                require(actualSize < MAX_LAYERS);\n                for (uint k = 0; k < layers.length; k++) { \n                    require(layers[k] != inheritedLayers[j]);\n                    if (layers[k] == 0) { \n                        break;\n                    }\n                }\n                layers[actualSize] = inheritedLayers[j];\n                actualSize += 1;\n            }\n            require(ownerOf(compositionLayerId) != address(0));\n            asyncSend(ownerOf(compositionLayerId), tokenIdToCompositionPrice[compositionLayerId]);\n            emit RoyaltiesPaid(compositionLayerId, tokenIdToCompositionPrice[compositionLayerId], ownerOf(compositionLayerId));\n        }\n    \n        uint256 newTokenIndex = _getNextTokenId();\n        \n        tokenIdToLayers[newTokenIndex] = _trim(layers, actualSize);\n        require(_isUnique(tokenIdToLayers[newTokenIndex], _melodyHash));\n        compositions[keccak256(tokenIdToLayers[newTokenIndex])] = true;\n        melodyHashes[_melodyHash] = true;\n    \n        _mint(msg.sender, newTokenIndex);\n\n        if (msg.value > price) {\n            uint256 purchaseExcess = SafeMath.sub(msg.value, price);\n            msg.sender.transfer(purchaseExcess);          \n        }\n\n        if (!isCompositionOnlyWithBaseLayers) { \n            _setCompositionPrice(newTokenIndex, minCompositionFee);\n        }\n   \n        emit CompositionTokenCreated(newTokenIndex, tokenIdToLayers[newTokenIndex], msg.sender);\n    }\n\n    /**\n    * @dev allows an address to withdraw its balance in the contract\n    * @param _tokenId uint256 the token ID\n    * @return uint256[] list of layers for a token\n    */\n    function getTokenLayers(uint256 _tokenId) public view returns(uint256[]) {\n        return tokenIdToLayers[_tokenId];\n    }\n\n    /**\n    * @dev given an array of ids, returns whether or not this composition is valid and unique\n    * does not assume the layers array is flattened \n    * @param _tokenIds uint256[] an array of token IDs\n    * @return bool whether or not the composition is unique\n    */\n    function isValidComposition(uint256[] _tokenIds, bytes32 _melodyHash) public view returns (bool) { \n        if (isCompositionOnlyWithBaseLayers) { \n            return _isValidBaseLayersOnly(_tokenIds, _melodyHash);\n        } else { \n            return _isValidWithCompositions(_tokenIds, _melodyHash);\n        }\n    }\n\n    /**\n    * @dev returns composition price of a given token ID\n    * @param _tokenId uint256 token ID\n    * @return uint256 composition price\n    */\n    function getCompositionPrice(uint256 _tokenId) public view returns(uint256) { \n        return tokenIdToCompositionPrice[_tokenId];\n    }\n\n    /**\n    * @dev get total price for minting a composition given the array of desired layers\n    * @param _tokenIds uint256[] an array of token IDs\n    * @return uint256 price for minting a composition with the desired layers\n    */\n    function getTotalCompositionPrice(uint256[] _tokenIds) public view returns(uint256) {\n        uint256 totalCompositionPrice = 0;\n        for (uint i = 0; i < _tokenIds.length; i++) {\n            require(_tokenLayersExist(_tokenIds[i]));\n            totalCompositionPrice = SafeMath.add(totalCompositionPrice, tokenIdToCompositionPrice[_tokenIds[i]]);\n        }\n\n        totalCompositionPrice = SafeMath.div(SafeMath.mul(totalCompositionPrice, 105), 100);\n\n        return totalCompositionPrice;\n    }\n\n    /**\n    * @dev sets the composition price for a token ID. \n    * Cannot be lower than the current composition fee\n    * @param _tokenId uint256 the token ID\n    * @param _price uint256 the new composition price\n    */\n    function setCompositionPrice(uint256 _tokenId, uint256 _price) public onlyOwnerOf(_tokenId) {\n        _setCompositionPrice(_tokenId, _price);\n    }\n\n// ----- PRIVATE FUNCTIONS ------------------------------------------------------------------------\n\n    /**\n    * @dev given an array of ids, returns whether or not this composition is valid and unique\n    * for when only base layers are allowed\n    * does not assume the layers array is flattened \n    * @param _tokenIds uint256[] an array of token IDs\n    * @return bool whether or not the composition is unique\n    */\n    function _isValidBaseLayersOnly(uint256[] _tokenIds, bytes32 _melodyHash) private view returns (bool) { \n        require(_tokenIds.length <= MAX_LAYERS);\n        uint256[] memory layers = new uint256[](_tokenIds.length);\n\n        for (uint i = 0; i < _tokenIds.length; i++) { \n            if (!_tokenLayersExist(_tokenIds[i])) {\n                return false;\n            }\n\n            if (tokenIdToLayers[_tokenIds[i]].length != 1) {\n                return false;\n            }\n\n            for (uint k = 0; k < layers.length; k++) { \n                if (layers[k] == tokenIdToLayers[_tokenIds[i]][0]) {\n                    return false;\n                }\n                if (layers[k] == 0) { \n                    layers[k] = tokenIdToLayers[_tokenIds[i]][0];\n                    break;\n                }\n            }\n        }\n    \n        return _isUnique(layers, _melodyHash);\n    }\n\n    /**\n    * @dev given an array of ids, returns whether or not this composition is valid and unique\n    * when compositions are allowed\n    * does not assume the layers array is flattened \n    * @param _tokenIds uint256[] an array of token IDs\n    * @return bool whether or not the composition is unique\n    */\n    function _isValidWithCompositions(uint256[] _tokenIds, bytes32 _melodyHash) private view returns (bool) { \n        uint256[] memory layers = new uint256[](MAX_LAYERS);\n        uint actualSize = 0; \n        if (_tokenIds.length > MAX_LAYERS) { \n            return false;\n        }\n\n        for (uint i = 0; i < _tokenIds.length; i++) { \n            uint256 compositionLayerId = _tokenIds[i];\n            if (!_tokenLayersExist(compositionLayerId)) { \n                return false;\n            }\n            uint256[] memory inheritedLayers = tokenIdToLayers[compositionLayerId];\n            require(inheritedLayers.length < MAX_LAYERS);\n            for (uint j = 0; j < inheritedLayers.length; j++) { \n                require(actualSize < MAX_LAYERS);\n                for (uint k = 0; k < layers.length; k++) { \n                    if (layers[k] == inheritedLayers[j]) {\n                        return false;\n                    }\n                    if (layers[k] == 0) { \n                        break;\n                    }\n                }\n                layers[actualSize] = inheritedLayers[j];\n                actualSize += 1;\n            }\n        }\n        return _isUnique(_trim(layers, actualSize), _melodyHash);\n    }\n\n    /**\n    * @dev trims the given array to a given size\n    * @param _layers uint256[] the array of layers that will make up the composition\n    * @param _size uint the array of layers that will make up the composition\n    * @return uint256[] array trimmed to given size\n    */\n    function _trim(uint256[] _layers, uint _size) private pure returns(uint256[]) { \n        uint256[] memory trimmedLayers = new uint256[](_size);\n        for (uint i = 0; i < _size; i++) { \n            trimmedLayers[i] = _layers[i];\n        }\n\n        return trimmedLayers;\n    }\n\n    /**\n    * @dev checks if a token is an existing token by checking if it has non-zero layers\n    * @param _tokenId uint256 token ID\n    * @return bool whether or not the given tokenId exists according to its layers\n    */\n    function _tokenLayersExist(uint256 _tokenId) private view returns (bool) { \n        return tokenIdToLayers[_tokenId].length != 0;\n    }\n\n    /**\n    * @dev set composition price for a token\n    * @param _tokenId uint256 token ID\n    * @param _price uint256 new composition price\n    */\n    function _setCompositionPrice(uint256 _tokenId, uint256 _price) private {\n        require(_price >= minCompositionFee);\n        tokenIdToCompositionPrice[_tokenId] = _price;\n        emit CompositionPriceChanged(_tokenId, _price, msg.sender);\n    }\n\n    /**\n    * @dev calculates the next token ID based on totalSupply\n    * @return uint256 for the next token ID\n    */\n    function _getNextTokenId() internal view returns (uint256) {\n        return totalSupply().add(1); \n    }\n\n    /**\n    * @dev given an array of ids, returns whether or not this composition is unique\n    * assumes the layers are all base layers (flattened)\n    * @param _layers uint256[] an array of token IDs\n    * @param _melodyHash uint256 image hash for the composition\n    * @return bool whether or not the composition is unique\n    */\n    function _isUnique(uint256[] _layers, bytes32 _melodyHash) private view returns (bool) { \n        return compositions[keccak256(_layers)] == false && melodyHashes[_melodyHash] == false;\n    }\n\n    /**\n    *@dev given an arrya of ids, returns whether this composition is unique given that the layers are flattened\n     */\n\n    function _isUniqueComposition(uint256[] _layers) private view returns (bool) {\n        return compositions[keccak256(_layers)] == false;\n    }\n\n// ----- ONLY OWNER FUNCTIONS ---------------------------------------------------------------------\n\n    /**\n    * @dev payout method for the contract owner to payout contract profits to a given address\n    * @param _to address for the payout \n    */\n    function payout (address _to) public onlyOwner { \n        totalPayments = 0;\n        address(_to).transfer(address(this).balance);\n    }\n\n    /**\n    * @dev sets global default composition fee for all new tokens\n    * @param _price uint256 new default composition price\n    */\n    function setMinCompositionFee(uint256 _price) public onlyOwner { \n        minCompositionFee = _price;\n    }\n}\n",
  "sourcePath": "/Users/nathanieloden/Documents/GitHub/jingle2/Jingle/contracts/Composable.sol",
  "compiler": {
    "name": "solc",
    "version": "0.4.21+commit.dfe3193c.Emscripten.clang"
  },
  "schemaVersion": "2.0.0",
  "updatedAt": "2018-05-18T23:40:50.301Z"
}