{
  "contractName": "Jingle",
  "abi": [
    {
      "constant": true,
      "inputs": [],
      "name": "totalPayments",
      "outputs": [
        {
          "name": "",
          "type": "uint256"
        }
      ],
      "payable": false,
      "stateMutability": "view",
      "type": "function"
    },
    {
      "constant": false,
      "inputs": [
        {
          "name": "_to",
          "type": "address"
        },
        {
          "name": "_tokenId",
          "type": "uint256"
        }
      ],
      "name": "approve",
      "outputs": [],
      "payable": false,
      "stateMutability": "nonpayable",
      "type": "function"
    },
    {
      "constant": false,
      "inputs": [
        {
          "name": "_to",
          "type": "address"
        }
      ],
      "name": "payout",
      "outputs": [],
      "payable": false,
      "stateMutability": "nonpayable",
      "type": "function"
    },
    {
      "constant": true,
      "inputs": [],
      "name": "totalSupply",
      "outputs": [
        {
          "name": "",
          "type": "uint256"
        }
      ],
      "payable": false,
      "stateMutability": "view",
      "type": "function"
    },
    {
      "constant": true,
      "inputs": [
        {
          "name": "_tokenIds",
          "type": "uint256[]"
        }
      ],
      "name": "getTotalCompositionPrice",
      "outputs": [
        {
          "name": "",
          "type": "uint256"
        }
      ],
      "payable": false,
      "stateMutability": "view",
      "type": "function"
    },
    {
      "constant": true,
      "inputs": [
        {
          "name": "_tokenId",
          "type": "uint256"
        }
      ],
      "name": "getCompositionPrice",
      "outputs": [
        {
          "name": "",
          "type": "uint256"
        }
      ],
      "payable": false,
      "stateMutability": "view",
      "type": "function"
    },
    {
      "constant": true,
      "inputs": [
        {
          "name": "_tokenId",
          "type": "uint256"
        }
      ],
      "name": "approvedFor",
      "outputs": [
        {
          "name": "",
          "type": "address"
        }
      ],
      "payable": false,
      "stateMutability": "view",
      "type": "function"
    },
    {
      "constant": true,
      "inputs": [
        {
          "name": "",
          "type": "uint256"
        }
      ],
      "name": "tokenIdToCompositionPrice",
      "outputs": [
        {
          "name": "",
          "type": "uint256"
        }
      ],
      "payable": false,
      "stateMutability": "view",
      "type": "function"
    },
    {
      "constant": true,
      "inputs": [
        {
          "name": "",
          "type": "uint256"
        },
        {
          "name": "",
          "type": "uint256"
        }
      ],
      "name": "tokenIdToLayers",
      "outputs": [
        {
          "name": "",
          "type": "uint256"
        }
      ],
      "payable": false,
      "stateMutability": "view",
      "type": "function"
    },
    {
      "constant": false,
      "inputs": [],
      "name": "unpause",
      "outputs": [],
      "payable": false,
      "stateMutability": "nonpayable",
      "type": "function"
    },
    {
      "constant": true,
      "inputs": [
        {
          "name": "_owner",
          "type": "address"
        }
      ],
      "name": "tokensOf",
      "outputs": [
        {
          "name": "",
          "type": "uint256[]"
        }
      ],
      "payable": false,
      "stateMutability": "view",
      "type": "function"
    },
    {
      "constant": true,
      "inputs": [],
      "name": "paused",
      "outputs": [
        {
          "name": "",
          "type": "bool"
        }
      ],
      "payable": false,
      "stateMutability": "view",
      "type": "function"
    },
    {
      "constant": false,
      "inputs": [],
      "name": "withdrawPayments",
      "outputs": [],
      "payable": false,
      "stateMutability": "nonpayable",
      "type": "function"
    },
    {
      "constant": true,
      "inputs": [
        {
          "name": "_tokenId",
          "type": "uint256"
        }
      ],
      "name": "ownerOf",
      "outputs": [
        {
          "name": "",
          "type": "address"
        }
      ],
      "payable": false,
      "stateMutability": "view",
      "type": "function"
    },
    {
      "constant": true,
      "inputs": [
        {
          "name": "",
          "type": "bytes32"
        }
      ],
      "name": "melodyHashes",
      "outputs": [
        {
          "name": "",
          "type": "bool"
        }
      ],
      "payable": false,
      "stateMutability": "view",
      "type": "function"
    },
    {
      "constant": true,
      "inputs": [
        {
          "name": "_tokenIds",
          "type": "uint256[]"
        },
        {
          "name": "_melodyHash",
          "type": "bytes32"
        }
      ],
      "name": "isValidComposition",
      "outputs": [
        {
          "name": "",
          "type": "bool"
        }
      ],
      "payable": false,
      "stateMutability": "view",
      "type": "function"
    },
    {
      "constant": true,
      "inputs": [
        {
          "name": "_owner",
          "type": "address"
        }
      ],
      "name": "balanceOf",
      "outputs": [
        {
          "name": "",
          "type": "uint256"
        }
      ],
      "payable": false,
      "stateMutability": "view",
      "type": "function"
    },
    {
      "constant": true,
      "inputs": [
        {
          "name": "",
          "type": "bytes32"
        }
      ],
      "name": "compositions",
      "outputs": [
        {
          "name": "",
          "type": "bool"
        }
      ],
      "payable": false,
      "stateMutability": "view",
      "type": "function"
    },
    {
      "constant": false,
      "inputs": [],
      "name": "pause",
      "outputs": [],
      "payable": false,
      "stateMutability": "nonpayable",
      "type": "function"
    },
    {
      "constant": true,
      "inputs": [],
      "name": "owner",
      "outputs": [
        {
          "name": "",
          "type": "address"
        }
      ],
      "payable": false,
      "stateMutability": "view",
      "type": "function"
    },
    {
      "constant": true,
      "inputs": [],
      "name": "NAME",
      "outputs": [
        {
          "name": "",
          "type": "string"
        }
      ],
      "payable": false,
      "stateMutability": "view",
      "type": "function"
    },
    {
      "constant": false,
      "inputs": [
        {
          "name": "_to",
          "type": "address"
        },
        {
          "name": "_tokenId",
          "type": "uint256"
        }
      ],
      "name": "transfer",
      "outputs": [],
      "payable": false,
      "stateMutability": "nonpayable",
      "type": "function"
    },
    {
      "constant": true,
      "inputs": [
        {
          "name": "_tokenId",
          "type": "uint256"
        }
      ],
      "name": "getTokenLayers",
      "outputs": [
        {
          "name": "",
          "type": "uint256[]"
        }
      ],
      "payable": false,
      "stateMutability": "view",
      "type": "function"
    },
    {
      "constant": false,
      "inputs": [
        {
          "name": "_tokenId",
          "type": "uint256"
        }
      ],
      "name": "takeOwnership",
      "outputs": [],
      "payable": false,
      "stateMutability": "nonpayable",
      "type": "function"
    },
    {
      "constant": true,
      "inputs": [],
      "name": "isCompositionOnlyWithBaseLayers",
      "outputs": [
        {
          "name": "",
          "type": "bool"
        }
      ],
      "payable": false,
      "stateMutability": "view",
      "type": "function"
    },
    {
      "constant": false,
      "inputs": [
        {
          "name": "_price",
          "type": "uint256"
        }
      ],
      "name": "setMinCompositionFee",
      "outputs": [],
      "payable": false,
      "stateMutability": "nonpayable",
      "type": "function"
    },
    {
      "constant": true,
      "inputs": [],
      "name": "minCompositionFee",
      "outputs": [
        {
          "name": "",
          "type": "uint256"
        }
      ],
      "payable": false,
      "stateMutability": "view",
      "type": "function"
    },
    {
      "constant": true,
      "inputs": [],
      "name": "MAX_LAYERS",
      "outputs": [
        {
          "name": "",
          "type": "uint256"
        }
      ],
      "payable": false,
      "stateMutability": "view",
      "type": "function"
    },
    {
      "constant": true,
      "inputs": [],
      "name": "MAXDURATION",
      "outputs": [
        {
          "name": "",
          "type": "uint256"
        }
      ],
      "payable": false,
      "stateMutability": "view",
      "type": "function"
    },
    {
      "constant": false,
      "inputs": [
        {
          "name": "_tokenId",
          "type": "uint256"
        },
        {
          "name": "_price",
          "type": "uint256"
        }
      ],
      "name": "setCompositionPrice",
      "outputs": [],
      "payable": false,
      "stateMutability": "nonpayable",
      "type": "function"
    },
    {
      "constant": true,
      "inputs": [
        {
          "name": "",
          "type": "address"
        }
      ],
      "name": "payments",
      "outputs": [
        {
          "name": "",
          "type": "uint256"
        }
      ],
      "payable": false,
      "stateMutability": "view",
      "type": "function"
    },
    {
      "constant": false,
      "inputs": [
        {
          "name": "newOwner",
          "type": "address"
        }
      ],
      "name": "transferOwnership",
      "outputs": [],
      "payable": false,
      "stateMutability": "nonpayable",
      "type": "function"
    },
    {
      "constant": true,
      "inputs": [],
      "name": "SYMBOL",
      "outputs": [
        {
          "name": "",
          "type": "string"
        }
      ],
      "payable": false,
      "stateMutability": "view",
      "type": "function"
    },
    {
      "anonymous": false,
      "inputs": [
        {
          "indexed": false,
          "name": "tokenId",
          "type": "uint256"
        }
      ],
      "name": "BaseTokenCreated",
      "type": "event"
    },
    {
      "anonymous": false,
      "inputs": [
        {
          "indexed": false,
          "name": "tokenId",
          "type": "uint256"
        },
        {
          "indexed": false,
          "name": "layers",
          "type": "uint256[]"
        },
        {
          "indexed": true,
          "name": "owner",
          "type": "address"
        }
      ],
      "name": "CompositionTokenCreated",
      "type": "event"
    },
    {
      "anonymous": false,
      "inputs": [
        {
          "indexed": false,
          "name": "tokenId",
          "type": "uint256"
        },
        {
          "indexed": false,
          "name": "price",
          "type": "uint256"
        },
        {
          "indexed": true,
          "name": "owner",
          "type": "address"
        }
      ],
      "name": "CompositionPriceChanged",
      "type": "event"
    },
    {
      "anonymous": false,
      "inputs": [
        {
          "indexed": false,
          "name": "tokenId",
          "type": "uint256"
        },
        {
          "indexed": false,
          "name": "amount",
          "type": "uint256"
        },
        {
          "indexed": true,
          "name": "owner",
          "type": "address"
        }
      ],
      "name": "RoyaltiesPaid",
      "type": "event"
    },
    {
      "anonymous": false,
      "inputs": [],
      "name": "Pause",
      "type": "event"
    },
    {
      "anonymous": false,
      "inputs": [],
      "name": "Unpause",
      "type": "event"
    },
    {
      "anonymous": false,
      "inputs": [
        {
          "indexed": true,
          "name": "previousOwner",
          "type": "address"
        },
        {
          "indexed": true,
          "name": "newOwner",
          "type": "address"
        }
      ],
      "name": "OwnershipTransferred",
      "type": "event"
    },
    {
      "anonymous": false,
      "inputs": [
        {
          "indexed": true,
          "name": "_from",
          "type": "address"
        },
        {
          "indexed": true,
          "name": "_to",
          "type": "address"
        },
        {
          "indexed": false,
          "name": "_tokenId",
          "type": "uint256"
        }
      ],
      "name": "Transfer",
      "type": "event"
    },
    {
      "anonymous": false,
      "inputs": [
        {
          "indexed": true,
          "name": "_owner",
          "type": "address"
        },
        {
          "indexed": true,
          "name": "_approved",
          "type": "address"
        },
        {
          "indexed": false,
          "name": "_tokenId",
          "type": "uint256"
        }
      ],
      "name": "Approval",
      "type": "event"
    },
    {
      "constant": false,
      "inputs": [
        {
          "name": "newOwner",
          "type": "address"
        },
        {
          "name": "maxDuration",
          "type": "uint256"
        },
        {
          "name": "_beneficiary",
          "type": "address"
        }
      ],
      "name": "initialize",
      "outputs": [],
      "payable": false,
      "stateMutability": "nonpayable",
      "type": "function"
    },
    {
      "constant": false,
      "inputs": [
        {
          "name": "pitches",
          "type": "int8[]"
        },
        {
          "name": "startTimes",
          "type": "uint256[]"
        },
        {
          "name": "durations",
          "type": "uint256[]"
        },
        {
          "name": "_compositionPrice",
          "type": "uint256"
        }
      ],
      "name": "composeBaseMelody",
      "outputs": [],
      "payable": true,
      "stateMutability": "payable",
      "type": "function"
    },
    {
      "constant": false,
      "inputs": [
        {
          "name": "pitches",
          "type": "int8[]"
        },
        {
          "name": "startTimes",
          "type": "uint256[]"
        },
        {
          "name": "durations",
          "type": "uint256[]"
        },
        {
          "name": "_tokenIds",
          "type": "uint256[]"
        },
        {
          "name": "_compositionPrice",
          "type": "uint256"
        },
        {
          "name": "_melodyHash",
          "type": "bytes32"
        }
      ],
      "name": "composeComposition",
      "outputs": [],
      "payable": true,
      "stateMutability": "payable",
      "type": "function"
    },
    {
      "constant": true,
      "inputs": [],
      "name": "name",
      "outputs": [
        {
          "name": "",
          "type": "string"
        }
      ],
      "payable": false,
      "stateMutability": "view",
      "type": "function"
    },
    {
      "constant": true,
      "inputs": [],
      "name": "symbol",
      "outputs": [
        {
          "name": "",
          "type": "string"
        }
      ],
      "payable": false,
      "stateMutability": "view",
      "type": "function"
    },
    {
      "constant": true,
      "inputs": [
        {
          "name": "_id",
          "type": "uint256"
        }
      ],
      "name": "getMelody",
      "outputs": [
        {
          "name": "",
          "type": "int8[]"
        },
        {
          "name": "",
          "type": "uint256[]"
        },
        {
          "name": "",
          "type": "uint256[]"
        }
      ],
      "payable": false,
      "stateMutability": "view",
      "type": "function"
    },
    {
      "constant": false,
      "inputs": [],
      "name": "withdraw",
      "outputs": [],
      "payable": false,
      "stateMutability": "nonpayable",
      "type": "function"
    }
  ],
  "bytecode": "0x60606040526000600860006101000a81548160ff02191690831515021790555033600560006101000a81548173ffffffffffffffffffffffffffffffffffffffff021916908373ffffffffffffffffffffffffffffffffffffffff160217905550613d788061006f6000396000f3006060604052600436106101ed576000357c0100000000000000000000000000000000000000000000000000000000900463ffffffff1680625b4487146101f257806306fdde031461021b578063095ea7b3146102a95780630b7e9c44146102eb57806318160ddd146103245780631983111d1461034d5780631f89e911146103bb578063259a1542146103f25780632a6dd48f1461051757806338e50d3c1461057a5780633a999758146105b15780633ad32628146106b95780633ccfd60b146107915780633f27afa7146107a65780633f4ba83a146107e65780635a3f2672146107fb5780635c975abb146108895780636103d70b146108b65780636352211e146108cb57806363f2f5431461092e5780636c6eed901461096d57806370a08231146109ec57806370e2b62514610a395780638456cb5914610a785780638da5cb5b14610a8d57806395d89b4114610ae2578063a3f4df7e14610b70578063a9059cbb14610bfe578063aae07cd014610c40578063b2e6ceeb14610cb8578063b9e3a8dd14610cdb578063befc764214610d08578063c350a1b514610d2b578063c73ec2eb14610d8c578063c829b0e314610db5578063cc6ec42d14610dde578063d5e0d8fc14610e07578063e2982c2114610e33578063f2fde38b14610e80578063f76f8d7814610eb9575b600080fd5b34156101fd57600080fd5b610205610f47565b6040518082815260200191505060405180910390f35b341561022657600080fd5b61022e610f4d565b6040518080602001828103825283818151815260200191508051906020019080838360005b8381101561026e578082015181840152602081019050610253565b50505050905090810190601f16801561029b5780820380516001836020036101000a031916815260200191505b509250505060405180910390f35b34156102b457600080fd5b6102e9600480803573ffffffffffffffffffffffffffffffffffffffff16906020019091908035906020019091905050610f90565b005b34156102f657600080fd5b610322600480803573ffffffffffffffffffffffffffffffffffffffff16906020019091905050611123565b005b341561032f57600080fd5b6103376111e1565b6040518082815260200191505060405180910390f35b341561035857600080fd5b6103a56004808035906020019082018035906020019080806020026020016040519081016040528093929190818152602001838360200280828437820191505050505050919050506111ea565b6040518082815260200191505060405180910390f35b34156103c657600080fd5b6103dc600480803590602001909190505061128f565b6040518082815260200191505060405180910390f35b610515600480803590602001908201803590602001908080602002602001604051908101604052809392919081815260200183836020028082843782019150505050505091908035906020019082018035906020019080806020026020016040519081016040528093929190818152602001838360200280828437820191505050505050919080359060200190820180359060200190808060200260200160405190810160405280939291908181526020018383602002808284378201915050505050509190803590602001908201803590602001908080602002602001604051908101604052809392919081815260200183836020028082843782019150505050505091908035906020019091908035600019169060200190919050506112ac565b005b341561052257600080fd5b61053860048080359060200190919050506113d7565b604051808273ffffffffffffffffffffffffffffffffffffffff1673ffffffffffffffffffffffffffffffffffffffff16815260200191505060405180910390f35b341561058557600080fd5b61059b6004808035906020019091905050611414565b6040518082815260200191505060405180910390f35b34156105bc57600080fd5b6105d2600480803590602001909190505061142c565b60405180806020018060200180602001848103845287818151815260200191508051906020019060200280838360005b8381101561061d578082015181840152602081019050610602565b50505050905001848103835286818151815260200191508051906020019060200280838360005b8381101561065f578082015181840152602081019050610644565b50505050905001848103825285818151815260200191508051906020019060200280838360005b838110156106a1578082015181840152602081019050610686565b50505050905001965050505050505060405180910390f35b61078f60048080359060200190820180359060200190808060200260200160405190810160405280939291908181526020018383602002808284378201915050505050509190803590602001908201803590602001908080602002602001604051908101604052809392919081815260200183836020028082843782019150505050505091908035906020019082018035906020019080806020026020016040519081016040528093929190818152602001838360200280828437820191505050505050919080359060200190919050506115f3565b005b341561079c57600080fd5b6107a46116f5565b005b34156107b157600080fd5b6107d060048080359060200190919080359060200190919050506117b7565b6040518082815260200191505060405180910390f35b34156107f157600080fd5b6107f96117e8565b005b341561080657600080fd5b610832600480803573ffffffffffffffffffffffffffffffffffffffff169060200190919050506118a8565b6040518080602001828103825283818151815260200191508051906020019060200280838360005b8381101561087557808201518184015260208101905061085a565b505050509050019250505060405180910390f35b341561089457600080fd5b61089c611945565b604051808215151515815260200191505060405180910390f35b34156108c157600080fd5b6108c9611958565b005b34156108d657600080fd5b6108ec6004808035906020019091905050611a77565b604051808273ffffffffffffffffffffffffffffffffffffffff1673ffffffffffffffffffffffffffffffffffffffff16815260200191505060405180910390f35b341561093957600080fd5b610953600480803560001916906020019091905050611af5565b604051808215151515815260200191505060405180910390f35b341561097857600080fd5b6109d260048080359060200190820180359060200190808060200260200160405190810160405280939291908181526020018383602002808284378201915050505050509190803560001916906020019091905050611b15565b604051808215151515815260200191505060405180910390f35b34156109f757600080fd5b610a23600480803573ffffffffffffffffffffffffffffffffffffffff16906020019091905050611b50565b6040518082815260200191505060405180910390f35b3415610a4457600080fd5b610a5e600480803560001916906020019091905050611b9c565b604051808215151515815260200191505060405180910390f35b3415610a8357600080fd5b610a8b611bbc565b005b3415610a9857600080fd5b610aa0611c7d565b604051808273ffffffffffffffffffffffffffffffffffffffff1673ffffffffffffffffffffffffffffffffffffffff16815260200191505060405180910390f35b3415610aed57600080fd5b610af5611ca3565b6040518080602001828103825283818151815260200191508051906020019080838360005b83811015610b35578082015181840152602081019050610b1a565b50505050905090810190601f168015610b625780820380516001836020036101000a031916815260200191505b509250505060405180910390f35b3415610b7b57600080fd5b610b83611ce6565b6040518080602001828103825283818151815260200191508051906020019080838360005b83811015610bc3578082015181840152602081019050610ba8565b50505050905090810190601f168015610bf05780820380516001836020036101000a031916815260200191505b509250505060405180910390f35b3415610c0957600080fd5b610c3e600480803573ffffffffffffffffffffffffffffffffffffffff16906020019091908035906020019091905050611d1f565b005b3415610c4b57600080fd5b610c616004808035906020019091905050611d72565b6040518080602001828103825283818151815260200191508051906020019060200280838360005b83811015610ca4578082015181840152602081019050610c89565b505050509050019250505060405180910390f35b3415610cc357600080fd5b610cd96004808035906020019091905050611de3565b005b3415610ce657600080fd5b610cee611e0e565b604051808215151515815260200191505060405180910390f35b3415610d1357600080fd5b610d296004808035906020019091905050611e21565b005b3415610d3657600080fd5b610d8a600480803573ffffffffffffffffffffffffffffffffffffffff1690602001909190803590602001909190803573ffffffffffffffffffffffffffffffffffffffff16906020019091905050611e87565b005b3415610d9757600080fd5b610d9f611f75565b6040518082815260200191505060405180910390f35b3415610dc057600080fd5b610dc8611f7b565b6040518082815260200191505060405180910390f35b3415610de957600080fd5b610df1611f80565b6040518082815260200191505060405180910390f35b3415610e1257600080fd5b610e316004808035906020019091908035906020019091905050611f86565b005b3415610e3e57600080fd5b610e6a600480803573ffffffffffffffffffffffffffffffffffffffff16906020019091905050611fd8565b6040518082815260200191505060405180910390f35b3415610e8b57600080fd5b610eb7600480803573ffffffffffffffffffffffffffffffffffffffff16906020019091905050611ff0565b005b3415610ec457600080fd5b610ecc612148565b6040518080602001828103825283818151815260200191508051906020019080838360005b83811015610f0c578082015181840152602081019050610ef1565b50505050905090810190601f168015610f395780820380516001836020036101000a031916815260200191505b509250505060405180910390f35b60075481565b610f55613b60565b6040805190810160405280600681526020017f4a696e676c650000000000000000000000000000000000000000000000000000815250905090565b6000813373ffffffffffffffffffffffffffffffffffffffff16610fb382611a77565b73ffffffffffffffffffffffffffffffffffffffff16141515610fd557600080fd5b610fde83611a77565b91508173ffffffffffffffffffffffffffffffffffffffff168473ffffffffffffffffffffffffffffffffffffffff161415151561101b57600080fd5b6000611026846113d7565b73ffffffffffffffffffffffffffffffffffffffff16141580611060575060008473ffffffffffffffffffffffffffffffffffffffff1614155b1561111d57836002600085815260200190815260200160002060006101000a81548173ffffffffffffffffffffffffffffffffffffffff021916908373ffffffffffffffffffffffffffffffffffffffff1602179055508373ffffffffffffffffffffffffffffffffffffffff168273ffffffffffffffffffffffffffffffffffffffff167f8c5be1e5ebec7d5bd14f71427d1e84f3dd0314c0f7b2291e5b200ac8c7c3b925856040518082815260200191505060405180910390a35b50505050565b600560009054906101000a900473ffffffffffffffffffffffffffffffffffffffff1673ffffffffffffffffffffffffffffffffffffffff163373ffffffffffffffffffffffffffffffffffffffff1614151561117f57600080fd5b60006007819055508073ffffffffffffffffffffffffffffffffffffffff166108fc3073ffffffffffffffffffffffffffffffffffffffff16319081150290604051600060405180830381858888f1935050505015156111de57600080fd5b50565b60008054905090565b6000806000809150600090505b835181101561126e57611220848281518110151561121157fe5b90602001906020020151612181565b151561122b57600080fd5b61125f82600a6000878581518110151561124157fe5b906020019060200201518152602001908152602001600020546121a4565b915080806001019150506111f7565b61128361127c8360696121c2565b60646121fd565b91508192505050919050565b6000600a6000838152602001908152602001600020549050919050565b60006112b6613b74565b600080600860009054906101000a900460ff161515156112d557600080fd5b6112dd612218565b93506112eb8a8a8a896115f3565b60018751016040518059106112fd5750595b90808252806020026020018201604052509250600091505b865182101561135d57868281518110151561132c57fe5b90602001906020020151838381518110151561134457fe5b9060200190602002018181525050816001019150611315565b8383600185510381518110151561137057fe5b9060200190602002018181525050611388838661223a565b600090505b86518110156113cb576113be6113b988838151811015156113aa57fe5b90602001906020020151611a77565b61284b565b808060010191505061138d565b50505050505050505050565b60006002600083815260200190815260200160002060009054906101000a900473ffffffffffffffffffffffffffffffffffffffff169050919050565b600a6020528060005260406000206000915090505481565b611434613b88565b61143c613b74565b611444613b74565b600061144e613b88565b611456613b74565b61145e613b74565b6000611468613b9c565b600e60008b8152602001908152602001600020955085600001805490506040518059106114925750595b9080825280602002602001820160405250945085600001805490506040518059106114ba5750595b9080825280602002602001820160405250935085600001805490506040518059106114e25750595b90808252806020026020018201604052509250600091505b85600001805490508210156115dd57856000018281548110151561151a57fe5b9060005260206000209060030201606060405190810160405290816000820160009054906101000a900460000b60000b60000b81526020016001820154815260200160028201548152505090508060000151858381518110151561157a57fe5b9060200190602002019060000b908160000b81525050806020015184838151811015156115a357fe5b9060200190602002018181525050806040015183838151811015156115c457fe5b90602001906020020181815250508160010191506114fa565b8484849850985098505050505050509193909250565b83838360008251845114801561160a575081518451145b8015611617575060648451105b151561162257600080fd5b606484600081518110151561163357fe5b9060200190602002015160000b14151561164c57600080fd5b60018351039050601054828281518110151561166457fe5b90602001906020020151848381518110151561167c57fe5b90602001906020020151011115151561169457600080fd5b600860009054906101000a900460ff161515156116b057600080fd5b60095434101515156116c157600080fd5b6116cd88888888612961565b506116e56009546012546121a490919063ffffffff16565b6012819055505050505050505050565b600560009054906101000a900473ffffffffffffffffffffffffffffffffffffffff1673ffffffffffffffffffffffffffffffffffffffff163373ffffffffffffffffffffffffffffffffffffffff1614151561175157600080fd5b601160009054906101000a900473ffffffffffffffffffffffffffffffffffffffff1673ffffffffffffffffffffffffffffffffffffffff166108fc6012549081150290604051600060405180830381858888f1935050505015156117b557600080fd5b565b600b602052816000526040600020818154811015156117d257fe5b9060005260206000209001600091509150505481565b600560009054906101000a900473ffffffffffffffffffffffffffffffffffffffff1673ffffffffffffffffffffffffffffffffffffffff163373ffffffffffffffffffffffffffffffffffffffff1614151561184457600080fd5b600860009054906101000a900460ff16151561185f57600080fd5b6000600860006101000a81548160ff0219169083151502179055507f7805862f689e2f13df9f062ff482ad3ad112aca9e0847911ed832e158c525b3360405160405180910390a1565b6118b0613b74565b600360008373ffffffffffffffffffffffffffffffffffffffff1673ffffffffffffffffffffffffffffffffffffffff16815260200190815260200160002080548060200260200160405190810160405280929190818152602001828054801561193957602002820191906000526020600020905b815481526020019060010190808311611925575b50505050509050919050565b600860009054906101000a900460ff1681565b600080339150600660008373ffffffffffffffffffffffffffffffffffffffff1673ffffffffffffffffffffffffffffffffffffffff168152602001908152602001600020549050600081141515156119b057600080fd5b803073ffffffffffffffffffffffffffffffffffffffff1631101515156119d657600080fd5b6119eb81600754612c0d90919063ffffffff16565b6007819055506000600660008473ffffffffffffffffffffffffffffffffffffffff1673ffffffffffffffffffffffffffffffffffffffff168152602001908152602001600020819055508173ffffffffffffffffffffffffffffffffffffffff166108fc829081150290604051600060405180830381858888f193505050501515611a7357fe5b5050565b6000806001600084815260200190815260200160002060009054906101000a900473ffffffffffffffffffffffffffffffffffffffff169050600073ffffffffffffffffffffffffffffffffffffffff168173ffffffffffffffffffffffffffffffffffffffff1614151515611aec57600080fd5b80915050919050565b600d6020528060005260406000206000915054906101000a900460ff1681565b6000600f60009054906101000a900460ff1615611b3d57611b368383612c26565b9050611b4a565b611b478383612e11565b90505b92915050565b6000600360008373ffffffffffffffffffffffffffffffffffffffff1673ffffffffffffffffffffffffffffffffffffffff168152602001908152602001600020805490509050919050565b600c6020528060005260406000206000915054906101000a900460ff1681565b600560009054906101000a900473ffffffffffffffffffffffffffffffffffffffff1673ffffffffffffffffffffffffffffffffffffffff163373ffffffffffffffffffffffffffffffffffffffff16141515611c1857600080fd5b600860009054906101000a900460ff16151515611c3457600080fd5b6001600860006101000a81548160ff0219169083151502179055507f6985a02210a168e66602d3235cb6db0e70f92b3ba4d376a33c0f3d9434bff62560405160405180910390a1565b600560009054906101000a900473ffffffffffffffffffffffffffffffffffffffff1681565b611cab613b60565b6040805190810160405280600481526020017f4a494e4700000000000000000000000000000000000000000000000000000000815250905090565b6040805190810160405280600681526020017f4a696e676c65000000000000000000000000000000000000000000000000000081525081565b803373ffffffffffffffffffffffffffffffffffffffff16611d4082611a77565b73ffffffffffffffffffffffffffffffffffffffff16141515611d6257600080fd5b611d6d33848461302b565b505050565b611d7a613b74565b600b6000838152602001908152602001600020805480602002602001604051908101604052809291908181526020018280548015611dd757602002820191906000526020600020905b815481526020019060010190808311611dc3575b50505050509050919050565b611ded3382613174565b1515611df857600080fd5b611e0b611e0482611a77565b338361302b565b50565b600f60009054906101000a900460ff1681565b600560009054906101000a900473ffffffffffffffffffffffffffffffffffffffff1673ffffffffffffffffffffffffffffffffffffffff163373ffffffffffffffffffffffffffffffffffffffff16141515611e7d57600080fd5b8060098190555050565b600f60019054906101000a900460ff16151515611ea357600080fd5b6001600f60006101000a81548160ff02191690831515021790555081601081905550662386f26fc1000060098190555080601160006101000a81548173ffffffffffffffffffffffffffffffffffffffff021916908373ffffffffffffffffffffffffffffffffffffffff16021790555082600560006101000a81548173ffffffffffffffffffffffffffffffffffffffff021916908373ffffffffffffffffffffffffffffffffffffffff1602179055506001600f60016101000a81548160ff021916908315150217905550505050565b60095481565b600a81565b60105481565b813373ffffffffffffffffffffffffffffffffffffffff16611fa782611a77565b73ffffffffffffffffffffffffffffffffffffffff16141515611fc957600080fd5b611fd383836131b5565b505050565b60066020528060005260406000206000915090505481565b600560009054906101000a900473ffffffffffffffffffffffffffffffffffffffff1673ffffffffffffffffffffffffffffffffffffffff163373ffffffffffffffffffffffffffffffffffffffff1614151561204c57600080fd5b600073ffffffffffffffffffffffffffffffffffffffff168173ffffffffffffffffffffffffffffffffffffffff161415151561208857600080fd5b8073ffffffffffffffffffffffffffffffffffffffff16600560009054906101000a900473ffffffffffffffffffffffffffffffffffffffff1673ffffffffffffffffffffffffffffffffffffffff167f8be0079c531659141344cd1fd0a4f28419497f9722a3daafe3b4186f6b6457e060405160405180910390a380600560006101000a81548173ffffffffffffffffffffffffffffffffffffffff021916908373ffffffffffffffffffffffffffffffffffffffff16021790555050565b6040805190810160405280600481526020017f4a494e470000000000000000000000000000000000000000000000000000000081525081565b600080600b60008481526020019081526020016000208054905014159050919050565b60008082840190508381101515156121b857fe5b8091505092915050565b60008060008414156121d757600091506121f6565b82840290508284828115156121e857fe5b041415156121f257fe5b8091505b5092915050565b600080828481151561220b57fe5b0490508091505092915050565b600061223560016122276111e1565b6121a490919063ffffffff16565b905090565b6000612244613b74565b6000806000612251613b74565b600080600080600860009054906101000a900460ff1615151561227357600080fd5b60018c5111151561228357600080fd5b61228c8c6111ea565b9950600073ffffffffffffffffffffffffffffffffffffffff163373ffffffffffffffffffffffffffffffffffffffff16141580156122cb5750893410155b15156122d657600080fd5b600a8c51111515156122e757600080fd5b600a6040518059106122f65750595b9080825280602002602001820160405250985060009750600096505b8b518710156125ab578b8781518110151561232957fe5b90602001906020020151955061233e86612181565b151561234957600080fd5b600b60008781526020019081526020016000208054806020026020016040519081016040528092919081815260200182805480156123a657602002820191906000526020600020905b815481526020019060010190808311612392575b50505050509450600f60009054906101000a900460ff16156123d357600185511415156123d257600080fd5b5b600a85511015156123e357600080fd5b600093505b84518410156124c457600a8810151561240057600080fd5b600092505b885183101561247d57848481518110151561241c57fe5b90602001906020020151898481518110151561243457fe5b906020019060200201511415151561244b57600080fd5b6000898481518110151561245b57fe5b9060200190602002015114156124705761247d565b8280600101935050612405565b848481518110151561248b57fe5b9060200190602002015189898151811015156124a357fe5b906020019060200201818152505060018801975083806001019450506123e8565b600073ffffffffffffffffffffffffffffffffffffffff166124e587611a77565b73ffffffffffffffffffffffffffffffffffffffff161415151561250857600080fd5b61252d61251487611a77565b600a600089815260200190815260200160002054613238565b61253686611a77565b73ffffffffffffffffffffffffffffffffffffffff167faa044fd0677f595122a532475e14efe539fe126d9ec7d9b7e66d7fcbec3636be87600a60008a815260200190815260200160002054604051808381526020018281526020019250505060405180910390a28680600101975050612312565b6125b3612218565b91506125bf89896132ec565b600b600084815260200190815260200160002090805190602001906125e5929190613bc0565b50612651600b600084815260200190815260200160002080548060200260200160405190810160405280929190818152602001828054801561264657602002820191906000526020600020905b815481526020019060010190808311612632575b50505050508c613378565b151561265c57600080fd5b6001600c6000600b60008681526020019081526020016000206040518082805480156126a757602002820191906000526020600020905b815481526020019060010190808311612693575b505091505060405180910390206000191660001916815260200190815260200160002060006101000a81548160ff0219169083151502179055506001600d60008d6000191660001916815260200190815260200160002060006101000a81548160ff02191690831515021790555061271f338361342b565b8934111561277457612731348b612c0d565b90503373ffffffffffffffffffffffffffffffffffffffff166108fc829081150290604051600060405180830381858888f19350505050151561277357600080fd5b5b600f60009054906101000a900460ff16151561279757612796826009546131b5565b5b3373ffffffffffffffffffffffffffffffffffffffff167f8258990f4da6775c9379703a14a2d112f3131e6b3a3840d1f6c25ccfe1051b9d83600b60008681526020019081526020016000206040518083815260200180602001828103825283818154815260200191508054801561282e57602002820191906000526020600020905b81548152602001906001019080831161281a575b5050935050505060405180910390a2505050505050505050505050565b6000600660008373ffffffffffffffffffffffffffffffffffffffff1673ffffffffffffffffffffffffffffffffffffffff168152602001908152602001600020549050600081141580156128b75750803073ffffffffffffffffffffffffffffffffffffffff163110155b1561295d576128d181600754612c0d90919063ffffffff16565b6007819055506000600660008473ffffffffffffffffffffffffffffffffffffffff1673ffffffffffffffffffffffffffffffffffffffff168152602001908152602001600020819055508173ffffffffffffffffffffffffffffffffffffffff166108fc829081150290604051600060405180830381858888f19350505050151561295c57600080fd5b5b5050565b600080600080600080600080612975613b9c565b600061297f612218565b98506000975060009650600095505b8d51861015612b3d57878d878151811015156129a657fe5b90602001906020020151101515156129bd57600080fd5b878d878151811015156129cc57fe5b906020019060200201511415612a165760648760000b141515612a15578660000b8e878151811015156129fb57fe5b9060200190602002015160000b131515612a1457600080fd5b5b5b8d86815181101515612a2457fe5b9060200190602002015194508c86815181101515612a3e57fe5b9060200190602002015193508b86815181101515612a5857fe5b9060200190602002015192506060604051908101604052808660000b8152602001858152602001848152509150600e60008a81526020019081526020016000206000018054806001018281612aad9190613c0d565b9160005260206000209060030201600084909190915060008201518160000160006101000a81548160ff021916908360000b60ff16021790555060208201518160010155604082015181600201555050508c86815181101515612b0c57fe5b9060200190602002015197508d86815181101515612b2657fe5b90602001906020020151965085600101955061298e565b8d8d8d60405180848051906020019060200280838360005b83811015612b70578082015181840152602081019050612b55565b50505050905001838051906020019060200280838360005b83811015612ba3578082015181840152602081019050612b88565b50505050905001828051906020019060200280838360005b83811015612bd6578082015181840152602081019050612bbb565b50505050905001935050505060405180910390209050612bf7338c836134c5565b9850889950505050505050505050949350505050565b6000828211151515612c1b57fe5b818303905092915050565b6000612c30613b74565b600080600a865111151515612c4457600080fd5b8551604051805910612c535750595b90808252806020026020018201604052509250600091505b8551821015612dfb57612c948683815181101515612c8557fe5b90602001906020020151612181565b1515612ca35760009350612e08565b6001600b60008885815181101515612cb757fe5b90602001906020020151815260200190815260200160002080549050141515612ce35760009350612e08565b600090505b8251811015612dee57600b60008784815181101515612d0357fe5b9060200190602002015181526020019081526020016000206000815481101515612d2957fe5b9060005260206000209001548382815181101515612d4357fe5b906020019060200201511415612d5c5760009350612e08565b60008382815181101515612d6c57fe5b906020019060200201511415612de157600b60008784815181101515612d8e57fe5b9060200190602002015181526020019081526020016000206000815481101515612db457fe5b9060005260206000209001548382815181101515612dce57fe5b9060200190602002018181525050612dee565b8080600101915050612ce8565b8180600101925050612c6b565b612e058386613378565b93505b50505092915050565b6000612e1b613b74565b6000806000612e28613b74565b600080600a604051805910612e3a5750595b9080825280602002602001820160405250965060009550600a8a511115612e64576000975061301e565b600094505b8951851015613008578985815181101515612e8057fe5b906020019060200201519350612e9584612181565b1515612ea4576000975061301e565b600b6000858152602001908152602001600020805480602002602001604051908101604052809291908181526020018280548015612f0157602002820191906000526020600020905b815481526020019060010190808311612eed575b50505050509250600a8351101515612f1857600080fd5b600091505b8251821015612ffb57600a86101515612f3557600080fd5b600090505b8651811015612fb4578282815181101515612f5157fe5b906020019060200201518782815181101515612f6957fe5b906020019060200201511415612f82576000975061301e565b60008782815181101515612f9257fe5b906020019060200201511415612fa757612fb4565b8080600101915050612f3a565b8282815181101515612fc257fe5b906020019060200201518787815181101515612fda57fe5b90602001906020020181815250506001860195508180600101925050612f1d565b8480600101955050612e69565b61301b61301588886132ec565b8a613378565b97505b5050505050505092915050565b600073ffffffffffffffffffffffffffffffffffffffff168273ffffffffffffffffffffffffffffffffffffffff161415151561306757600080fd5b61307081611a77565b73ffffffffffffffffffffffffffffffffffffffff168273ffffffffffffffffffffffffffffffffffffffff16141515156130aa57600080fd5b8273ffffffffffffffffffffffffffffffffffffffff166130ca82611a77565b73ffffffffffffffffffffffffffffffffffffffff161415156130ec57600080fd5b6130f68382613684565b613100838261376d565b61310a82826139f5565b8173ffffffffffffffffffffffffffffffffffffffff168373ffffffffffffffffffffffffffffffffffffffff167fddf252ad1be2c89b69c2b068fc378daa952ba7f163c4a11628f55a4df523b3ef836040518082815260200191505060405180910390a3505050565b60008273ffffffffffffffffffffffffffffffffffffffff16613196836113d7565b73ffffffffffffffffffffffffffffffffffffffff1614905092915050565b60095481101515156131c657600080fd5b80600a6000848152602001908152602001600020819055503373ffffffffffffffffffffffffffffffffffffffff167f372883ed096f3aca24c33c36571b41f60a645cb114b5590f319e2e1c2606db6e8383604051808381526020018281526020019250505060405180910390a25050565b61328a81600660008573ffffffffffffffffffffffffffffffffffffffff1673ffffffffffffffffffffffffffffffffffffffff168152602001908152602001600020546121a490919063ffffffff16565b600660008473ffffffffffffffffffffffffffffffffffffffff1673ffffffffffffffffffffffffffffffffffffffff168152602001908152602001600020819055506132e2816007546121a490919063ffffffff16565b6007819055505050565b6132f4613b74565b6132fc613b74565b60008360405180591061330c5750595b90808252806020026020018201604052509150600090505b8381101561336d57848181518110151561333a57fe5b90602001906020020151828281518110151561335257fe5b90602001906020020181815250508080600101915050613324565b819250505092915050565b6000801515600c60008560405180828051906020019060200280838360005b838110156133b2578082015181840152602081019050613397565b5050505090500191505060405180910390206000191660001916815260200190815260200160002060009054906101000a900460ff161515148015613423575060001515600d6000846000191660001916815260200190815260200160002060009054906101000a900460ff161515145b905092915050565b600073ffffffffffffffffffffffffffffffffffffffff168273ffffffffffffffffffffffffffffffffffffffff161415151561346757600080fd5b61347182826139f5565b8173ffffffffffffffffffffffffffffffffffffffff1660007fddf252ad1be2c89b69c2b068fc378daa952ba7f163c4a11628f55a4df523b3ef836040518082815260200191505060405180910390a35050565b6000806134d0612218565b90506134dc858261342b565b60206040519081016040528082815250600b600083815260200190815260200160002090600161350d929190613c3f565b50613579600b600083815260200190815260200160002080548060200260200160405190810160405280929190818152602001828054801561356e57602002820191906000526020600020905b81548152602001906001019080831161355a575b505050505084613378565b151561358457600080fd5b6001600c6000602060405190810160405280858152506040518082600160200280838360005b838110156135c55780820151818401526020810190506135aa565b5050505090500191505060405180910390206000191660001916815260200190815260200160002060006101000a81548160ff0219169083151502179055506001600d6000856000191660001916815260200190815260200160002060006101000a81548160ff0219169083151502179055507f3f5bdceccefc96a1f5b67e0c030e1f5f27d4f940582f4114ee08d3599912e216816040518082815260200191505060405180910390a161367981856131b5565b809150509392505050565b8173ffffffffffffffffffffffffffffffffffffffff166136a482611a77565b73ffffffffffffffffffffffffffffffffffffffff161415156136c657600080fd5b60006002600083815260200190815260200160002060006101000a81548173ffffffffffffffffffffffffffffffffffffffff021916908373ffffffffffffffffffffffffffffffffffffffff16021790555060008273ffffffffffffffffffffffffffffffffffffffff167f8c5be1e5ebec7d5bd14f71427d1e84f3dd0314c0f7b2291e5b200ac8c7c3b925836040518082815260200191505060405180910390a35050565b60008060008473ffffffffffffffffffffffffffffffffffffffff1661379285611a77565b73ffffffffffffffffffffffffffffffffffffffff161415156137b457600080fd5b600460008581526020019081526020016000205492506137e660016137d887611b50565b612c0d90919063ffffffff16565b9150600360008673ffffffffffffffffffffffffffffffffffffffff1673ffffffffffffffffffffffffffffffffffffffff1681526020019081526020016000208281548110151561383457fe5b906000526020600020900154905060006001600086815260200190815260200160002060006101000a81548173ffffffffffffffffffffffffffffffffffffffff021916908373ffffffffffffffffffffffffffffffffffffffff16021790555080600360008773ffffffffffffffffffffffffffffffffffffffff1673ffffffffffffffffffffffffffffffffffffffff168152602001908152602001600020848154811015156138e257fe5b9060005260206000209001819055506000600360008773ffffffffffffffffffffffffffffffffffffffff1673ffffffffffffffffffffffffffffffffffffffff1681526020019081526020016000208381548110151561393f57fe5b906000526020600020900181905550600360008673ffffffffffffffffffffffffffffffffffffffff1673ffffffffffffffffffffffffffffffffffffffff1681526020019081526020016000208054809190600190036139a09190613c8c565b50600060046000868152602001908152602001600020819055508260046000838152602001908152602001600020819055506139e86001600054612c0d90919063ffffffff16565b6000819055505050505050565b60008073ffffffffffffffffffffffffffffffffffffffff166001600084815260200190815260200160002060009054906101000a900473ffffffffffffffffffffffffffffffffffffffff1673ffffffffffffffffffffffffffffffffffffffff16141515613a6457600080fd5b826001600084815260200190815260200160002060006101000a81548173ffffffffffffffffffffffffffffffffffffffff021916908373ffffffffffffffffffffffffffffffffffffffff160217905550613abf83611b50565b9050600360008473ffffffffffffffffffffffffffffffffffffffff1673ffffffffffffffffffffffffffffffffffffffff1681526020019081526020016000208054806001018281613b129190613cb8565b916000526020600020900160008490919091505550806004600084815260200190815260200160002081905550613b5560016000546121a490919063ffffffff16565b600081905550505050565b602060405190810160405280600081525090565b602060405190810160405280600081525090565b602060405190810160405280600081525090565b6060604051908101604052806000800b815260200160008152602001600081525090565b828054828255906000526020600020908101928215613bfc579160200282015b82811115613bfb578251825591602001919060010190613be0565b5b509050613c099190613ce4565b5090565b815481835581811511613c3a57600302816003028360005260206000209182019101613c399190613d09565b5b505050565b828054828255906000526020600020908101928215613c7b579160200282015b82811115613c7a578251825591602001919060010190613c5f565b5b509050613c889190613ce4565b5090565b815481835581811511613cb357818360005260206000209182019101613cb29190613ce4565b5b505050565b815481835581811511613cdf57818360005260206000209182019101613cde9190613ce4565b5b505050565b613d0691905b80821115613d02576000816000905550600101613cea565b5090565b90565b613d4991905b80821115613d4557600080820160006101000a81549060ff02191690556001820160009055600282016000905550600301613d0f565b5090565b905600a165627a7a723058208b45fa82c82c794a96f554906675024484043b84d87f5e5d41c1bc645a264f5e0029",
  "source": "pragma solidity ^0.4.21;\r\n\r\nimport \"./Composable.sol\";\r\nimport \"zeppelin-solidity/contracts/math/SafeMath.sol\";\r\n\r\n/**\r\n * @title Jingle\r\n * Jingle - a contract to mint and compose original jingles\r\n*/\r\ncontract Jingle is Composable {\r\n    using SafeMath for uint256;\r\n\r\n    // set proxy as the owner\r\n    bool internal _initialized;\r\n\r\n    string public constant NAME = \"Jingle\";\r\n    string public constant SYMBOL = \"JING\";\r\n    uint256 public MAXDURATION;\r\n    address beneficiary;\r\n    uint256 fees;\r\n\r\n    modifier checkArguments(int8[] pitches,  uint256[] startTimes, uint256[] durations) {\r\n        require(pitches.length == startTimes.length && pitches.length == durations.length && pitches.length < 100);\r\n        require (pitches[0] == 100);\r\n        uint256 last = startTimes.length - 1;\r\n        require(startTimes[last] + durations[last] <= MAXDURATION);\r\n        _;\r\n    }\r\n    \r\n    function initialize(address newOwner, uint256 maxDuration, address _beneficiary) public {\r\n        require(!_initialized);\r\n        isCompositionOnlyWithBaseLayers = true;\r\n        MAXDURATION = maxDuration;\r\n        minCompositionFee = 0.01 ether;\r\n        beneficiary = _beneficiary;\r\n        owner = newOwner;\r\n        _initialized = true;\r\n    }\r\n\r\n    /**\r\n    * @dev Mints a base melody\r\n    */\r\n    function composeBaseMelody(int8[] pitches,  uint256[] startTimes, uint256[] durations, uint256 _compositionPrice) checkArguments(pitches, startTimes, durations) public payable whenNotPaused {\r\n        //must pay registration fee\r\n        require(msg.value >= minCompositionFee);\r\n\r\n        createMelody(pitches, startTimes, durations, _compositionPrice);\r\n\r\n        fees = fees.add(minCompositionFee);\r\n    }\r\n\r\n    function composeComposition(int8[] pitches,  uint256[] startTimes, uint256[] durations, uint256[] _tokenIds, uint256 _compositionPrice, bytes32 _melodyHash) public payable whenNotPaused {\r\n        //mint base melody with any added notes\r\n        uint256 newId = _getNextTokenId();\r\n        composeBaseMelody(pitches, startTimes, durations, _compositionPrice);\r\n\r\n        uint256[] memory newTokenIds = new uint256[](_tokenIds.length + 1);\r\n        \r\n        for (uint256 i = 0; i < _tokenIds.length; ++i) {\r\n            newTokenIds[i] = _tokenIds[i];\r\n        }\r\n        newTokenIds[newTokenIds.length - 1] = newId;\r\n\r\n        //compose composition melody\r\n        Composable.compose(newTokenIds, _melodyHash);\r\n\r\n        // Immediately pay out to layer owners\r\n        for (uint256 x = 0; x < _tokenIds.length; x++) {\r\n            _withdrawTo(ownerOf(_tokenIds[x]));\r\n        }\r\n    }\r\n\r\n    function createMelody(int8[] pitches,  uint256[] startTimes, uint256[] durations, uint256 _compositionPrice) internal returns (uint256) {\r\n        uint256 _id = _getNextTokenId();\r\n\r\n        //variable to keep track of the last notes start time\r\n        uint256 lastStart = 0;\r\n        int8 lastPitch = 0;\r\n        for (uint256 i = 0; i < pitches.length; ++i) {\r\n            //make sure a later note does not come before a previous note - this is mostly for checking uniqueness rather than actual organization\r\n            require(startTimes[i] >= lastStart);\r\n            if (startTimes[i] == lastStart) {\r\n                //make sure pitches with the same Start Time are sorted in ascending order\r\n                if(lastPitch != 100) {\r\n                    require(pitches[i] > lastPitch);\r\n                }\r\n            }\r\n            int8 _pitch = pitches[i];\r\n            uint256 _startTime = startTimes[i];\r\n            uint256 _duration = durations[i];\r\n            note memory _note = note({\r\n                pitch: _pitch, \r\n                startTime: _startTime, \r\n                duration: _duration\r\n            });\r\n\r\n            tokenIdToMelody[_id].melody.push(_note);\r\n\r\n            lastStart = startTimes[i];\r\n            lastPitch = pitches[i];\r\n        }\r\n\r\n        bytes32 _melodyHash = keccak256(pitches, startTimes, durations);\r\n\r\n        //mint base melody\r\n        _id = Composable.mintTo(msg.sender, _compositionPrice, _melodyHash);\r\n\r\n        return _id;\r\n    }\r\n\r\n// ----- EXPOSED METHODS --------------------------------------------------------------------------\r\n\r\n    /**\r\n    * @dev returns the name Jingle\r\n    * @return string Jingle\r\n    */\r\n    function name() public view returns (string) {\r\n        return NAME;\r\n    }\r\n\r\n    /**\r\n    * @dev returns the name JING\r\n    * @return string JING\r\n    */\r\n    function symbol() public view returns (string) {\r\n        return SYMBOL;\r\n    }\r\n\r\n    /**\r\n    * @dev gets a melody for a composition\r\n     */\r\n    function getMelody(uint256 _id) public view returns (int8[], uint256[], uint256[]) {\r\n        Melody storage melody = tokenIdToMelody[_id];\r\n\r\n        int8[] memory _pitches = new int8[](melody.melody.length);\r\n        uint[] memory _startTimes = new uint256[](melody.melody.length);\r\n        uint256[] memory _durations = new uint256[](melody.melody.length);\r\n\r\n        for (uint256 i = 0; i < melody.melody.length; ++i) {\r\n            note memory _note = melody.melody[i];\r\n            _pitches[i] = _note.pitch;\r\n            _startTimes[i] = _note.startTime;\r\n            _durations[i] = _note.duration;\r\n        }\r\n\r\n        return (_pitches, _startTimes, _durations);\r\n    }\r\n\r\n// ----- PRIVATE FUNCTIONS ------------------------------------------------------------------------\r\n\r\n    /**\r\n    * @dev withdraw accumulated balance to the payee\r\n    * @param _payee address to which to withdraw to\r\n    */\r\n    function _withdrawTo(address _payee) private {\r\n        uint256 payment = payments[_payee];\r\n\r\n        if (payment != 0 && address(this).balance >= payment) {\r\n            totalPayments = totalPayments.sub(payment);\r\n            payments[_payee] = 0;\r\n            _payee.transfer(payment);\r\n        }\r\n    }\r\n\r\n    function withdraw() public onlyOwner {\r\n        beneficiary.transfer(fees);\r\n    }\r\n}\r\n",
  "sourcePath": "/Users/nathanieloden/Documents/GitHub/jingle2/Jingle/contracts/Jingle.sol",
  "compiler": {
    "name": "solc",
    "version": "0.4.21+commit.dfe3193c.Emscripten.clang"
  },
  "schemaVersion": "2.0.0",
  "updatedAt": "2018-05-15T00:51:35.959Z"
}