{
  "contractName": "Jingle",
  "abi": [
    {
      "constant": true,
      "inputs": [],
      "name": "totalPayments",
      "outputs": [
        {
          "name": "",
          "type": "uint256"
        }
      ],
      "payable": false,
      "stateMutability": "view",
      "type": "function"
    },
    {
      "constant": false,
      "inputs": [
        {
          "name": "_to",
          "type": "address"
        },
        {
          "name": "_tokenId",
          "type": "uint256"
        }
      ],
      "name": "approve",
      "outputs": [],
      "payable": false,
      "stateMutability": "nonpayable",
      "type": "function"
    },
    {
      "constant": false,
      "inputs": [
        {
          "name": "_to",
          "type": "address"
        }
      ],
      "name": "payout",
      "outputs": [],
      "payable": false,
      "stateMutability": "nonpayable",
      "type": "function"
    },
    {
      "constant": true,
      "inputs": [],
      "name": "totalSupply",
      "outputs": [
        {
          "name": "",
          "type": "uint256"
        }
      ],
      "payable": false,
      "stateMutability": "view",
      "type": "function"
    },
    {
      "constant": true,
      "inputs": [
        {
          "name": "_tokenIds",
          "type": "uint256[]"
        }
      ],
      "name": "getTotalCompositionPrice",
      "outputs": [
        {
          "name": "",
          "type": "uint256"
        }
      ],
      "payable": false,
      "stateMutability": "view",
      "type": "function"
    },
    {
      "constant": true,
      "inputs": [
        {
          "name": "_tokenId",
          "type": "uint256"
        }
      ],
      "name": "getCompositionPrice",
      "outputs": [
        {
          "name": "",
          "type": "uint256"
        }
      ],
      "payable": false,
      "stateMutability": "view",
      "type": "function"
    },
    {
      "constant": true,
      "inputs": [
        {
          "name": "_tokenId",
          "type": "uint256"
        }
      ],
      "name": "approvedFor",
      "outputs": [
        {
          "name": "",
          "type": "address"
        }
      ],
      "payable": false,
      "stateMutability": "view",
      "type": "function"
    },
    {
      "constant": true,
      "inputs": [
        {
          "name": "",
          "type": "uint256"
        }
      ],
      "name": "tokenIdToCompositionPrice",
      "outputs": [
        {
          "name": "",
          "type": "uint256"
        }
      ],
      "payable": false,
      "stateMutability": "view",
      "type": "function"
    },
    {
      "constant": true,
      "inputs": [
        {
          "name": "",
          "type": "uint256"
        },
        {
          "name": "",
          "type": "uint256"
        }
      ],
      "name": "tokenIdToLayers",
      "outputs": [
        {
          "name": "",
          "type": "uint256"
        }
      ],
      "payable": false,
      "stateMutability": "view",
      "type": "function"
    },
    {
      "constant": false,
      "inputs": [],
      "name": "unpause",
      "outputs": [],
      "payable": false,
      "stateMutability": "nonpayable",
      "type": "function"
    },
    {
      "constant": true,
      "inputs": [
        {
          "name": "_owner",
          "type": "address"
        }
      ],
      "name": "tokensOf",
      "outputs": [
        {
          "name": "",
          "type": "uint256[]"
        }
      ],
      "payable": false,
      "stateMutability": "view",
      "type": "function"
    },
    {
      "constant": true,
      "inputs": [],
      "name": "paused",
      "outputs": [
        {
          "name": "",
          "type": "bool"
        }
      ],
      "payable": false,
      "stateMutability": "view",
      "type": "function"
    },
    {
      "constant": false,
      "inputs": [],
      "name": "withdrawPayments",
      "outputs": [],
      "payable": false,
      "stateMutability": "nonpayable",
      "type": "function"
    },
    {
      "constant": true,
      "inputs": [
        {
          "name": "_tokenId",
          "type": "uint256"
        }
      ],
      "name": "ownerOf",
      "outputs": [
        {
          "name": "",
          "type": "address"
        }
      ],
      "payable": false,
      "stateMutability": "view",
      "type": "function"
    },
    {
      "constant": true,
      "inputs": [
        {
          "name": "",
          "type": "bytes32"
        }
      ],
      "name": "melodyHashes",
      "outputs": [
        {
          "name": "",
          "type": "bool"
        }
      ],
      "payable": false,
      "stateMutability": "view",
      "type": "function"
    },
    {
      "constant": true,
      "inputs": [
        {
          "name": "_tokenIds",
          "type": "uint256[]"
        },
        {
          "name": "_melodyHash",
          "type": "bytes32"
        }
      ],
      "name": "isValidComposition",
      "outputs": [
        {
          "name": "",
          "type": "bool"
        }
      ],
      "payable": false,
      "stateMutability": "view",
      "type": "function"
    },
    {
      "constant": true,
      "inputs": [
        {
          "name": "_owner",
          "type": "address"
        }
      ],
      "name": "balanceOf",
      "outputs": [
        {
          "name": "",
          "type": "uint256"
        }
      ],
      "payable": false,
      "stateMutability": "view",
      "type": "function"
    },
    {
      "constant": true,
      "inputs": [
        {
          "name": "",
          "type": "bytes32"
        }
      ],
      "name": "compositions",
      "outputs": [
        {
          "name": "",
          "type": "bool"
        }
      ],
      "payable": false,
      "stateMutability": "view",
      "type": "function"
    },
    {
      "constant": false,
      "inputs": [],
      "name": "pause",
      "outputs": [],
      "payable": false,
      "stateMutability": "nonpayable",
      "type": "function"
    },
    {
      "constant": true,
      "inputs": [],
      "name": "owner",
      "outputs": [
        {
          "name": "",
          "type": "address"
        }
      ],
      "payable": false,
      "stateMutability": "view",
      "type": "function"
    },
    {
      "constant": true,
      "inputs": [],
      "name": "NAME",
      "outputs": [
        {
          "name": "",
          "type": "string"
        }
      ],
      "payable": false,
      "stateMutability": "view",
      "type": "function"
    },
    {
      "constant": false,
      "inputs": [
        {
          "name": "_to",
          "type": "address"
        },
        {
          "name": "_tokenId",
          "type": "uint256"
        }
      ],
      "name": "transfer",
      "outputs": [],
      "payable": false,
      "stateMutability": "nonpayable",
      "type": "function"
    },
    {
      "constant": true,
      "inputs": [
        {
          "name": "_tokenId",
          "type": "uint256"
        }
      ],
      "name": "getTokenLayers",
      "outputs": [
        {
          "name": "",
          "type": "uint256[]"
        }
      ],
      "payable": false,
      "stateMutability": "view",
      "type": "function"
    },
    {
      "constant": false,
      "inputs": [
        {
          "name": "_tokenId",
          "type": "uint256"
        }
      ],
      "name": "takeOwnership",
      "outputs": [],
      "payable": false,
      "stateMutability": "nonpayable",
      "type": "function"
    },
    {
      "constant": true,
      "inputs": [],
      "name": "isCompositionOnlyWithBaseLayers",
      "outputs": [
        {
          "name": "",
          "type": "bool"
        }
      ],
      "payable": false,
      "stateMutability": "view",
      "type": "function"
    },
    {
      "constant": false,
      "inputs": [
        {
          "name": "_price",
          "type": "uint256"
        }
      ],
      "name": "setMinCompositionFee",
      "outputs": [],
      "payable": false,
      "stateMutability": "nonpayable",
      "type": "function"
    },
    {
      "constant": true,
      "inputs": [],
      "name": "minCompositionFee",
      "outputs": [
        {
          "name": "",
          "type": "uint256"
        }
      ],
      "payable": false,
      "stateMutability": "view",
      "type": "function"
    },
    {
      "constant": true,
      "inputs": [],
      "name": "MAX_LAYERS",
      "outputs": [
        {
          "name": "",
          "type": "uint256"
        }
      ],
      "payable": false,
      "stateMutability": "view",
      "type": "function"
    },
    {
      "constant": true,
      "inputs": [],
      "name": "MAXDURATION",
      "outputs": [
        {
          "name": "",
          "type": "uint256"
        }
      ],
      "payable": false,
      "stateMutability": "view",
      "type": "function"
    },
    {
      "constant": false,
      "inputs": [
        {
          "name": "_tokenId",
          "type": "uint256"
        },
        {
          "name": "_price",
          "type": "uint256"
        }
      ],
      "name": "setCompositionPrice",
      "outputs": [],
      "payable": false,
      "stateMutability": "nonpayable",
      "type": "function"
    },
    {
      "constant": true,
      "inputs": [
        {
          "name": "",
          "type": "address"
        }
      ],
      "name": "payments",
      "outputs": [
        {
          "name": "",
          "type": "uint256"
        }
      ],
      "payable": false,
      "stateMutability": "view",
      "type": "function"
    },
    {
      "constant": false,
      "inputs": [
        {
          "name": "newOwner",
          "type": "address"
        }
      ],
      "name": "transferOwnership",
      "outputs": [],
      "payable": false,
      "stateMutability": "nonpayable",
      "type": "function"
    },
    {
      "constant": true,
      "inputs": [],
      "name": "SYMBOL",
      "outputs": [
        {
          "name": "",
          "type": "string"
        }
      ],
      "payable": false,
      "stateMutability": "view",
      "type": "function"
    },
    {
      "anonymous": false,
      "inputs": [
        {
          "indexed": false,
          "name": "tokenId",
          "type": "uint256"
        }
      ],
      "name": "BaseTokenCreated",
      "type": "event"
    },
    {
      "anonymous": false,
      "inputs": [
        {
          "indexed": false,
          "name": "tokenId",
          "type": "uint256"
        },
        {
          "indexed": false,
          "name": "layers",
          "type": "uint256[]"
        },
        {
          "indexed": true,
          "name": "owner",
          "type": "address"
        }
      ],
      "name": "CompositionTokenCreated",
      "type": "event"
    },
    {
      "anonymous": false,
      "inputs": [
        {
          "indexed": false,
          "name": "tokenId",
          "type": "uint256"
        },
        {
          "indexed": false,
          "name": "price",
          "type": "uint256"
        },
        {
          "indexed": true,
          "name": "owner",
          "type": "address"
        }
      ],
      "name": "CompositionPriceChanged",
      "type": "event"
    },
    {
      "anonymous": false,
      "inputs": [
        {
          "indexed": false,
          "name": "tokenId",
          "type": "uint256"
        },
        {
          "indexed": false,
          "name": "amount",
          "type": "uint256"
        },
        {
          "indexed": true,
          "name": "owner",
          "type": "address"
        }
      ],
      "name": "RoyaltiesPaid",
      "type": "event"
    },
    {
      "anonymous": false,
      "inputs": [],
      "name": "Pause",
      "type": "event"
    },
    {
      "anonymous": false,
      "inputs": [],
      "name": "Unpause",
      "type": "event"
    },
    {
      "anonymous": false,
      "inputs": [
        {
          "indexed": true,
          "name": "previousOwner",
          "type": "address"
        },
        {
          "indexed": true,
          "name": "newOwner",
          "type": "address"
        }
      ],
      "name": "OwnershipTransferred",
      "type": "event"
    },
    {
      "anonymous": false,
      "inputs": [
        {
          "indexed": true,
          "name": "_from",
          "type": "address"
        },
        {
          "indexed": true,
          "name": "_to",
          "type": "address"
        },
        {
          "indexed": false,
          "name": "_tokenId",
          "type": "uint256"
        }
      ],
      "name": "Transfer",
      "type": "event"
    },
    {
      "anonymous": false,
      "inputs": [
        {
          "indexed": true,
          "name": "_owner",
          "type": "address"
        },
        {
          "indexed": true,
          "name": "_approved",
          "type": "address"
        },
        {
          "indexed": false,
          "name": "_tokenId",
          "type": "uint256"
        }
      ],
      "name": "Approval",
      "type": "event"
    },
    {
      "constant": false,
      "inputs": [
        {
          "name": "newOwner",
          "type": "address"
        },
        {
          "name": "maxDuration",
          "type": "uint256"
        },
        {
          "name": "_beneficiary",
          "type": "address"
        }
      ],
      "name": "initialize",
      "outputs": [],
      "payable": false,
      "stateMutability": "nonpayable",
      "type": "function"
    },
    {
      "constant": false,
      "inputs": [
        {
          "name": "pitches",
          "type": "int8[]"
        },
        {
          "name": "startTimes",
          "type": "uint256[]"
        },
        {
          "name": "durations",
          "type": "uint256[]"
        },
        {
          "name": "_compositionPrice",
          "type": "uint256"
        },
        {
          "name": "_displayPitch",
          "type": "int8"
        },
        {
          "name": "_title",
          "type": "bytes32"
        }
      ],
      "name": "composeBaseMelody",
      "outputs": [],
      "payable": true,
      "stateMutability": "payable",
      "type": "function"
    },
    {
      "constant": false,
      "inputs": [
        {
          "name": "pitches",
          "type": "int8[]"
        },
        {
          "name": "startTimes",
          "type": "uint256[]"
        },
        {
          "name": "durations",
          "type": "uint256[]"
        },
        {
          "name": "_tokenIds",
          "type": "uint256[]"
        },
        {
          "name": "_compositionPrice",
          "type": "uint256"
        },
        {
          "name": "_displayPitches",
          "type": "int8[]"
        },
        {
          "name": "_melodyHash",
          "type": "bytes32"
        },
        {
          "name": "_title",
          "type": "bytes32"
        }
      ],
      "name": "composeComposition",
      "outputs": [],
      "payable": true,
      "stateMutability": "payable",
      "type": "function"
    },
    {
      "constant": true,
      "inputs": [],
      "name": "name",
      "outputs": [
        {
          "name": "",
          "type": "string"
        }
      ],
      "payable": false,
      "stateMutability": "view",
      "type": "function"
    },
    {
      "constant": true,
      "inputs": [],
      "name": "symbol",
      "outputs": [
        {
          "name": "",
          "type": "string"
        }
      ],
      "payable": false,
      "stateMutability": "view",
      "type": "function"
    },
    {
      "constant": true,
      "inputs": [
        {
          "name": "_id",
          "type": "uint256"
        }
      ],
      "name": "getMelody",
      "outputs": [
        {
          "name": "",
          "type": "int8[]"
        },
        {
          "name": "",
          "type": "uint256[]"
        },
        {
          "name": "",
          "type": "uint256[]"
        }
      ],
      "payable": false,
      "stateMutability": "view",
      "type": "function"
    },
    {
      "constant": true,
      "inputs": [
        {
          "name": "_id",
          "type": "uint256"
        }
      ],
      "name": "isAComposition",
      "outputs": [
        {
          "name": "",
          "type": "bool"
        }
      ],
      "payable": false,
      "stateMutability": "view",
      "type": "function"
    },
    {
      "constant": true,
      "inputs": [
        {
          "name": "_id",
          "type": "uint256"
        }
      ],
      "name": "getDisplayPitches",
      "outputs": [
        {
          "name": "",
          "type": "int8[]"
        }
      ],
      "payable": false,
      "stateMutability": "view",
      "type": "function"
    },
    {
      "constant": true,
      "inputs": [
        {
          "name": "_id",
          "type": "uint256"
        }
      ],
      "name": "getTitle",
      "outputs": [
        {
          "name": "",
          "type": "bytes32"
        }
      ],
      "payable": false,
      "stateMutability": "view",
      "type": "function"
    },
    {
      "constant": false,
      "inputs": [],
      "name": "withdraw",
      "outputs": [],
      "payable": false,
      "stateMutability": "nonpayable",
      "type": "function"
    }
  ],
  "bytecode": "0x60606040526000600860006101000a81548160ff02191690831515021790555033600560006101000a81548173ffffffffffffffffffffffffffffffffffffffff021916908373ffffffffffffffffffffffffffffffffffffffff16021790555061419b8061006f6000396000f30060606040526004361061020e576000357c0100000000000000000000000000000000000000000000000000000000900463ffffffff1680625b44871461021357806306fdde031461023c578063095ea7b3146102ca5780630b7e9c441461030c57806318160ddd146103455780631983111d1461036e5780631f89e911146103dc5780632a6dd48f1461041357806332d571741461047657806338e50d3c146105e85780633a9997581461061f5780633ccfd60b146107275780633f27afa71461073c5780633f4ba83a1461077c5780635a3f2672146107915780635c975abb1461081f5780636103d70b1461084c5780636352211e1461086157806363f2f543146108c45780636c6eed901461090357806370a082311461098257806370e2b625146109cf5780638456cb5914610a0e5780638da5cb5b14610a23578063929a79b114610a7857806395d89b4114610ab75780639984b3af14610b45578063a3f4df7e14610c36578063a9059cbb14610cc4578063aae07cd014610d06578063b2e6ceeb14610d7e578063b9e3a8dd14610da1578063befc764214610dce578063c350a1b514610df1578063c73ec2eb14610e52578063c829b0e314610e7b578063cc6ec42d14610ea4578063d5e0d8fc14610ecd578063e2982c2114610ef9578063eed085a214610f46578063f2fde38b14610fbe578063f76f8d7814610ff7578063fb6c185814611085575b600080fd5b341561021e57600080fd5b6102266110c0565b6040518082815260200191505060405180910390f35b341561024757600080fd5b61024f6110c6565b6040518080602001828103825283818151815260200191508051906020019080838360005b8381101561028f578082015181840152602081019050610274565b50505050905090810190601f1680156102bc5780820380516001836020036101000a031916815260200191505b509250505060405180910390f35b34156102d557600080fd5b61030a600480803573ffffffffffffffffffffffffffffffffffffffff16906020019091908035906020019091905050611109565b005b341561031757600080fd5b610343600480803573ffffffffffffffffffffffffffffffffffffffff1690602001909190505061129c565b005b341561035057600080fd5b61035861135a565b6040518082815260200191505060405180910390f35b341561037957600080fd5b6103c6600480803590602001908201803590602001908080602002602001604051908101604052809392919081815260200183836020028082843782019150505050505091905050611363565b6040518082815260200191505060405180910390f35b34156103e757600080fd5b6103fd6004808035906020019091905050611408565b6040518082815260200191505060405180910390f35b341561041e57600080fd5b6104346004808035906020019091905050611425565b604051808273ffffffffffffffffffffffffffffffffffffffff1673ffffffffffffffffffffffffffffffffffffffff16815260200191505060405180910390f35b6105e6600480803590602001908201803590602001908080602002602001604051908101604052809392919081815260200183836020028082843782019150505050505091908035906020019082018035906020019080806020026020016040519081016040528093929190818152602001838360200280828437820191505050505050919080359060200190820180359060200190808060200260200160405190810160405280939291908181526020018383602002808284378201915050505050509190803590602001908201803590602001908080602002602001604051908101604052809392919081815260200183836020028082843782019150505050505091908035906020019091908035906020019082018035906020019080806020026020016040519081016040528093929190818152602001838360200280828437820191505050505050919080356000191690602001909190803560001916906020019091905050611462565b005b34156105f357600080fd5b61060960048080359060200190919050506116aa565b6040518082815260200191505060405180910390f35b341561062a57600080fd5b61064060048080359060200190919050506116c2565b60405180806020018060200180602001848103845287818151815260200191508051906020019060200280838360005b8381101561068b578082015181840152602081019050610670565b50505050905001848103835286818151815260200191508051906020019060200280838360005b838110156106cd5780820151818401526020810190506106b2565b50505050905001848103825285818151815260200191508051906020019060200280838360005b8381101561070f5780820151818401526020810190506106f4565b50505050905001965050505050505060405180910390f35b341561073257600080fd5b61073a611889565b005b341561074757600080fd5b610766600480803590602001909190803590602001909190505061194b565b6040518082815260200191505060405180910390f35b341561078757600080fd5b61078f61197c565b005b341561079c57600080fd5b6107c8600480803573ffffffffffffffffffffffffffffffffffffffff16906020019091905050611a3c565b6040518080602001828103825283818151815260200191508051906020019060200280838360005b8381101561080b5780820151818401526020810190506107f0565b505050509050019250505060405180910390f35b341561082a57600080fd5b610832611ad9565b604051808215151515815260200191505060405180910390f35b341561085757600080fd5b61085f611aec565b005b341561086c57600080fd5b6108826004808035906020019091905050611c0b565b604051808273ffffffffffffffffffffffffffffffffffffffff1673ffffffffffffffffffffffffffffffffffffffff16815260200191505060405180910390f35b34156108cf57600080fd5b6108e9600480803560001916906020019091905050611c89565b604051808215151515815260200191505060405180910390f35b341561090e57600080fd5b61096860048080359060200190820180359060200190808060200260200160405190810160405280939291908181526020018383602002808284378201915050505050509190803560001916906020019091905050611ca9565b604051808215151515815260200191505060405180910390f35b341561098d57600080fd5b6109b9600480803573ffffffffffffffffffffffffffffffffffffffff16906020019091905050611ce4565b6040518082815260200191505060405180910390f35b34156109da57600080fd5b6109f4600480803560001916906020019091905050611d30565b604051808215151515815260200191505060405180910390f35b3415610a1957600080fd5b610a21611d50565b005b3415610a2e57600080fd5b610a36611e11565b604051808273ffffffffffffffffffffffffffffffffffffffff1673ffffffffffffffffffffffffffffffffffffffff16815260200191505060405180910390f35b3415610a8357600080fd5b610a996004808035906020019091905050611e37565b60405180826000191660001916815260200191505060405180910390f35b3415610ac257600080fd5b610aca611e54565b6040518080602001828103825283818151815260200191508051906020019080838360005b83811015610b0a578082015181840152602081019050610aef565b50505050905090810190601f168015610b375780820380516001836020036101000a031916815260200191505b509250505060405180910390f35b610c34600480803590602001908201803590602001908080602002602001604051908101604052809392919081815260200183836020028082843782019150505050505091908035906020019082018035906020019080806020026020016040519081016040528093929190818152602001838360200280828437820191505050505050919080359060200190820180359060200190808060200260200160405190810160405280939291908181526020018383602002808284378201915050505050509190803590602001909190803560000b90602001909190803560001916906020019091905050611e97565b005b3415610c4157600080fd5b610c49611fc5565b6040518080602001828103825283818151815260200191508051906020019080838360005b83811015610c89578082015181840152602081019050610c6e565b50505050905090810190601f168015610cb65780820380516001836020036101000a031916815260200191505b509250505060405180910390f35b3415610ccf57600080fd5b610d04600480803573ffffffffffffffffffffffffffffffffffffffff16906020019091908035906020019091905050611ffe565b005b3415610d1157600080fd5b610d276004808035906020019091905050612051565b6040518080602001828103825283818151815260200191508051906020019060200280838360005b83811015610d6a578082015181840152602081019050610d4f565b505050509050019250505060405180910390f35b3415610d8957600080fd5b610d9f60048080359060200190919050506120c2565b005b3415610dac57600080fd5b610db46120ed565b604051808215151515815260200191505060405180910390f35b3415610dd957600080fd5b610def6004808035906020019091905050612100565b005b3415610dfc57600080fd5b610e50600480803573ffffffffffffffffffffffffffffffffffffffff1690602001909190803590602001909190803573ffffffffffffffffffffffffffffffffffffffff16906020019091905050612166565b005b3415610e5d57600080fd5b610e65612254565b6040518082815260200191505060405180910390f35b3415610e8657600080fd5b610e8e61225a565b6040518082815260200191505060405180910390f35b3415610eaf57600080fd5b610eb761225f565b6040518082815260200191505060405180910390f35b3415610ed857600080fd5b610ef76004808035906020019091908035906020019091905050612265565b005b3415610f0457600080fd5b610f30600480803573ffffffffffffffffffffffffffffffffffffffff169060200190919050506122b7565b6040518082815260200191505060405180910390f35b3415610f5157600080fd5b610f6760048080359060200190919050506122cf565b6040518080602001828103825283818151815260200191508051906020019060200280838360005b83811015610faa578082015181840152602081019050610f8f565b505050509050019250505060405180910390f35b3415610fc957600080fd5b610ff5600480803573ffffffffffffffffffffffffffffffffffffffff16906020019091905050612366565b005b341561100257600080fd5b61100a6124be565b6040518080602001828103825283818151815260200191508051906020019080838360005b8381101561104a57808201518184015260208101905061102f565b50505050905090810190601f1680156110775780820380516001836020036101000a031916815260200191505b509250505060405180910390f35b341561109057600080fd5b6110a660048080359060200190919050506124f7565b604051808215151515815260200191505060405180910390f35b60075481565b6110ce613f49565b6040805190810160405280600681526020017f4a696e676c650000000000000000000000000000000000000000000000000000815250905090565b6000813373ffffffffffffffffffffffffffffffffffffffff1661112c82611c0b565b73ffffffffffffffffffffffffffffffffffffffff1614151561114e57600080fd5b61115783611c0b565b91508173ffffffffffffffffffffffffffffffffffffffff168473ffffffffffffffffffffffffffffffffffffffff161415151561119457600080fd5b600061119f84611425565b73ffffffffffffffffffffffffffffffffffffffff161415806111d9575060008473ffffffffffffffffffffffffffffffffffffffff1614155b1561129657836002600085815260200190815260200160002060006101000a81548173ffffffffffffffffffffffffffffffffffffffff021916908373ffffffffffffffffffffffffffffffffffffffff1602179055508373ffffffffffffffffffffffffffffffffffffffff168273ffffffffffffffffffffffffffffffffffffffff167f8c5be1e5ebec7d5bd14f71427d1e84f3dd0314c0f7b2291e5b200ac8c7c3b925856040518082815260200191505060405180910390a35b50505050565b600560009054906101000a900473ffffffffffffffffffffffffffffffffffffffff1673ffffffffffffffffffffffffffffffffffffffff163373ffffffffffffffffffffffffffffffffffffffff161415156112f857600080fd5b60006007819055508073ffffffffffffffffffffffffffffffffffffffff166108fc3073ffffffffffffffffffffffffffffffffffffffff16319081150290604051600060405180830381858888f19350505050151561135757600080fd5b50565b60008054905090565b6000806000809150600090505b83518110156113e757611399848281518110151561138a57fe5b9060200190602002015161251a565b15156113a457600080fd5b6113d882600a600087858151811015156113ba57fe5b9060200190602002015181526020019081526020016000205461253d565b91508080600101915050611370565b6113fc6113f583606961255b565b6064612596565b91508192505050919050565b6000600a6000838152602001908152602001600020549050919050565b60006002600083815260200190815260200160002060009054906101000a900473ffffffffffffffffffffffffffffffffffffffff169050919050565b600061146c613f5d565b600080600860009054906101000a900460ff1615151561148b57600080fd5b6114936125b1565b93506114be8c8c8c8b8b60018d51038151811015156114ae57fe5b906020019060200201518a611e97565b60018951016040518059106114d05750595b90808252806020026020018201604052509250600091505b885182101561159f5788828151811015156114ff57fe5b90602001906020020151838381518110151561151757fe5b9060200190602002018181525050600f6000858152602001908152602001600020805480600101828161154a9190613f71565b9160005260206000209060209182820401919006898581518110151561156c57fe5b90602001906020020151909190916101000a81548160ff021916908360000b60ff160217905550508160010191506114e8565b838360018551038151811015156115b257fe5b9060200190602002018181525050600f600085815260200190815260200160002080548060010182816115e59190613f71565b91600052602060002090602091828204019190068960018b510381518110151561160b57fe5b90602001906020020151909190916101000a81548160ff021916908360000b60ff1602179055505061163d83876125d3565b84601060008681526020019081526020016000208160001916905550600090505b885181101561169c5761168f61168a8a8381518110151561167b57fe5b90602001906020020151611c0b565b612be4565b808060010191505061165e565b505050505050505050505050565b600a6020528060005260406000206000915090505481565b6116ca613fab565b6116d2613f5d565b6116da613f5d565b60006116e4613fab565b6116ec613f5d565b6116f4613f5d565b60006116fe613fbf565b600e60008b8152602001908152602001600020955085600001805490506040518059106117285750595b9080825280602002602001820160405250945085600001805490506040518059106117505750595b9080825280602002602001820160405250935085600001805490506040518059106117785750595b90808252806020026020018201604052509250600091505b85600001805490508210156118735785600001828154811015156117b057fe5b9060005260206000209060030201606060405190810160405290816000820160009054906101000a900460000b60000b60000b81526020016001820154815260200160028201548152505090508060000151858381518110151561181057fe5b9060200190602002019060000b908160000b815250508060200151848381518110151561183957fe5b90602001906020020181815250508060400151838381518110151561185a57fe5b9060200190602002018181525050816001019150611790565b8484849850985098505050505050509193909250565b600560009054906101000a900473ffffffffffffffffffffffffffffffffffffffff1673ffffffffffffffffffffffffffffffffffffffff163373ffffffffffffffffffffffffffffffffffffffff161415156118e557600080fd5b601360009054906101000a900473ffffffffffffffffffffffffffffffffffffffff1673ffffffffffffffffffffffffffffffffffffffff166108fc6014549081150290604051600060405180830381858888f19350505050151561194957600080fd5b565b600b6020528160005260406000208181548110151561196657fe5b9060005260206000209001600091509150505481565b600560009054906101000a900473ffffffffffffffffffffffffffffffffffffffff1673ffffffffffffffffffffffffffffffffffffffff163373ffffffffffffffffffffffffffffffffffffffff161415156119d857600080fd5b600860009054906101000a900460ff1615156119f357600080fd5b6000600860006101000a81548160ff0219169083151502179055507f7805862f689e2f13df9f062ff482ad3ad112aca9e0847911ed832e158c525b3360405160405180910390a1565b611a44613f5d565b600360008373ffffffffffffffffffffffffffffffffffffffff1673ffffffffffffffffffffffffffffffffffffffff168152602001908152602001600020805480602002602001604051908101604052809291908181526020018280548015611acd57602002820191906000526020600020905b815481526020019060010190808311611ab9575b50505050509050919050565b600860009054906101000a900460ff1681565b600080339150600660008373ffffffffffffffffffffffffffffffffffffffff1673ffffffffffffffffffffffffffffffffffffffff16815260200190815260200160002054905060008114151515611b4457600080fd5b803073ffffffffffffffffffffffffffffffffffffffff163110151515611b6a57600080fd5b611b7f81600754612cfa90919063ffffffff16565b6007819055506000600660008473ffffffffffffffffffffffffffffffffffffffff1673ffffffffffffffffffffffffffffffffffffffff168152602001908152602001600020819055508173ffffffffffffffffffffffffffffffffffffffff166108fc829081150290604051600060405180830381858888f193505050501515611c0757fe5b5050565b6000806001600084815260200190815260200160002060009054906101000a900473ffffffffffffffffffffffffffffffffffffffff169050600073ffffffffffffffffffffffffffffffffffffffff168173ffffffffffffffffffffffffffffffffffffffff1614151515611c8057600080fd5b80915050919050565b600d6020528060005260406000206000915054906101000a900460ff1681565b6000601160009054906101000a900460ff1615611cd157611cca8383612d13565b9050611cde565b611cdb8383612efe565b90505b92915050565b6000600360008373ffffffffffffffffffffffffffffffffffffffff1673ffffffffffffffffffffffffffffffffffffffff168152602001908152602001600020805490509050919050565b600c6020528060005260406000206000915054906101000a900460ff1681565b600560009054906101000a900473ffffffffffffffffffffffffffffffffffffffff1673ffffffffffffffffffffffffffffffffffffffff163373ffffffffffffffffffffffffffffffffffffffff16141515611dac57600080fd5b600860009054906101000a900460ff16151515611dc857600080fd5b6001600860006101000a81548160ff0219169083151502179055507f6985a02210a168e66602d3235cb6db0e70f92b3ba4d376a33c0f3d9434bff62560405160405180910390a1565b600560009054906101000a900473ffffffffffffffffffffffffffffffffffffffff1681565b600060106000838152602001908152602001600020549050919050565b611e5c613f49565b6040805190810160405280600481526020017f4a494e4700000000000000000000000000000000000000000000000000000000815250905090565b6000868686600082518451148015611eb0575081518451145b8015611ebd575060648451105b1515611ec857600080fd5b6064846000815181101515611ed957fe5b9060200190602002015160000b141515611ef257600080fd5b600183510390506012548282815181101515611f0a57fe5b906020019060200201518483815181101515611f2257fe5b906020019060200201510111151515611f3a57600080fd5b600860009054906101000a900460ff16151515611f5657600080fd5b6009543410151515611f6757600080fd5b611f6f6125b1565b9450611f7e8b8b8b8b8b613118565b5085601060008781526020019081526020016000208160001916905550611fb260095460145461253d90919063ffffffff16565b6014819055505050505050505050505050565b6040805190810160405280600681526020017f4a696e676c65000000000000000000000000000000000000000000000000000081525081565b803373ffffffffffffffffffffffffffffffffffffffff1661201f82611c0b565b73ffffffffffffffffffffffffffffffffffffffff1614151561204157600080fd5b61204c338484613414565b505050565b612059613f5d565b600b60008381526020019081526020016000208054806020026020016040519081016040528092919081815260200182805480156120b657602002820191906000526020600020905b8154815260200190600101908083116120a2575b50505050509050919050565b6120cc338261355d565b15156120d757600080fd5b6120ea6120e382611c0b565b3383613414565b50565b601160009054906101000a900460ff1681565b600560009054906101000a900473ffffffffffffffffffffffffffffffffffffffff1673ffffffffffffffffffffffffffffffffffffffff163373ffffffffffffffffffffffffffffffffffffffff1614151561215c57600080fd5b8060098190555050565b601160019054906101000a900460ff1615151561218257600080fd5b6001601160006101000a81548160ff02191690831515021790555081601281905550662386f26fc1000060098190555080601360006101000a81548173ffffffffffffffffffffffffffffffffffffffff021916908373ffffffffffffffffffffffffffffffffffffffff16021790555082600560006101000a81548173ffffffffffffffffffffffffffffffffffffffff021916908373ffffffffffffffffffffffffffffffffffffffff1602179055506001601160016101000a81548160ff021916908315150217905550505050565b60095481565b600a81565b60125481565b813373ffffffffffffffffffffffffffffffffffffffff1661228682611c0b565b73ffffffffffffffffffffffffffffffffffffffff161415156122a857600080fd5b6122b2838361359e565b505050565b60066020528060005260406000206000915090505481565b6122d7613fab565b600f600083815260200190815260200160002080548060200260200160405190810160405280929190818152602001828054801561235a57602002820191906000526020600020906000905b82829054906101000a900460000b60000b815260200190600101906020826000010492830192600103820291508084116123235790505b50505050509050919050565b600560009054906101000a900473ffffffffffffffffffffffffffffffffffffffff1673ffffffffffffffffffffffffffffffffffffffff163373ffffffffffffffffffffffffffffffffffffffff161415156123c257600080fd5b600073ffffffffffffffffffffffffffffffffffffffff168173ffffffffffffffffffffffffffffffffffffffff16141515156123fe57600080fd5b8073ffffffffffffffffffffffffffffffffffffffff16600560009054906101000a900473ffffffffffffffffffffffffffffffffffffffff1673ffffffffffffffffffffffffffffffffffffffff167f8be0079c531659141344cd1fd0a4f28419497f9722a3daafe3b4186f6b6457e060405160405180910390a380600560006101000a81548173ffffffffffffffffffffffffffffffffffffffff021916908373ffffffffffffffffffffffffffffffffffffffff16021790555050565b6040805190810160405280600481526020017f4a494e470000000000000000000000000000000000000000000000000000000081525081565b60006001600b600084815260200190815260200160002080549050119050919050565b600080600b60008481526020019081526020016000208054905014159050919050565b600080828401905083811015151561255157fe5b8091505092915050565b6000806000841415612570576000915061258f565b828402905082848281151561258157fe5b0414151561258b57fe5b8091505b5092915050565b60008082848115156125a457fe5b0490508091505092915050565b60006125ce60016125c061135a565b61253d90919063ffffffff16565b905090565b60006125dd613f5d565b60008060006125ea613f5d565b600080600080600860009054906101000a900460ff1615151561260c57600080fd5b60018c5111151561261c57600080fd5b6126258c611363565b9950600073ffffffffffffffffffffffffffffffffffffffff163373ffffffffffffffffffffffffffffffffffffffff16141580156126645750893410155b151561266f57600080fd5b600a8c511115151561268057600080fd5b600a60405180591061268f5750595b9080825280602002602001820160405250985060009750600096505b8b51871015612944578b878151811015156126c257fe5b9060200190602002015195506126d78661251a565b15156126e257600080fd5b600b600087815260200190815260200160002080548060200260200160405190810160405280929190818152602001828054801561273f57602002820191906000526020600020905b81548152602001906001019080831161272b575b50505050509450601160009054906101000a900460ff161561276c576001855114151561276b57600080fd5b5b600a855110151561277c57600080fd5b600093505b845184101561285d57600a8810151561279957600080fd5b600092505b88518310156128165784848151811015156127b557fe5b9060200190602002015189848151811015156127cd57fe5b90602001906020020151141515156127e457600080fd5b600089848151811015156127f457fe5b90602001906020020151141561280957612816565b828060010193505061279e565b848481518110151561282457fe5b90602001906020020151898981518110151561283c57fe5b90602001906020020181815250506001880197508380600101945050612781565b600073ffffffffffffffffffffffffffffffffffffffff1661287e87611c0b565b73ffffffffffffffffffffffffffffffffffffffff16141515156128a157600080fd5b6128c66128ad87611c0b565b600a600089815260200190815260200160002054613621565b6128cf86611c0b565b73ffffffffffffffffffffffffffffffffffffffff167faa044fd0677f595122a532475e14efe539fe126d9ec7d9b7e66d7fcbec3636be87600a60008a815260200190815260200160002054604051808381526020018281526020019250505060405180910390a286806001019750506126ab565b61294c6125b1565b915061295889896136d5565b600b6000848152602001908152602001600020908051906020019061297e929190613fe3565b506129ea600b60008481526020019081526020016000208054806020026020016040519081016040528092919081815260200182805480156129df57602002820191906000526020600020905b8154815260200190600101908083116129cb575b50505050508c613761565b15156129f557600080fd5b6001600c6000600b6000868152602001908152602001600020604051808280548015612a4057602002820191906000526020600020905b815481526020019060010190808311612a2c575b505091505060405180910390206000191660001916815260200190815260200160002060006101000a81548160ff0219169083151502179055506001600d60008d6000191660001916815260200190815260200160002060006101000a81548160ff021916908315150217905550612ab83383613814565b89341115612b0d57612aca348b612cfa565b90503373ffffffffffffffffffffffffffffffffffffffff166108fc829081150290604051600060405180830381858888f193505050501515612b0c57600080fd5b5b601160009054906101000a900460ff161515612b3057612b2f8260095461359e565b5b3373ffffffffffffffffffffffffffffffffffffffff167f8258990f4da6775c9379703a14a2d112f3131e6b3a3840d1f6c25ccfe1051b9d83600b600086815260200190815260200160002060405180838152602001806020018281038252838181548152602001915080548015612bc757602002820191906000526020600020905b815481526020019060010190808311612bb3575b5050935050505060405180910390a2505050505050505050505050565b6000600660008373ffffffffffffffffffffffffffffffffffffffff1673ffffffffffffffffffffffffffffffffffffffff16815260200190815260200160002054905060008114158015612c505750803073ffffffffffffffffffffffffffffffffffffffff163110155b15612cf657612c6a81600754612cfa90919063ffffffff16565b6007819055506000600660008473ffffffffffffffffffffffffffffffffffffffff1673ffffffffffffffffffffffffffffffffffffffff168152602001908152602001600020819055508173ffffffffffffffffffffffffffffffffffffffff166108fc829081150290604051600060405180830381858888f193505050501515612cf557600080fd5b5b5050565b6000828211151515612d0857fe5b818303905092915050565b6000612d1d613f5d565b600080600a865111151515612d3157600080fd5b8551604051805910612d405750595b90808252806020026020018201604052509250600091505b8551821015612ee857612d818683815181101515612d7257fe5b9060200190602002015161251a565b1515612d905760009350612ef5565b6001600b60008885815181101515612da457fe5b90602001906020020151815260200190815260200160002080549050141515612dd05760009350612ef5565b600090505b8251811015612edb57600b60008784815181101515612df057fe5b9060200190602002015181526020019081526020016000206000815481101515612e1657fe5b9060005260206000209001548382815181101515612e3057fe5b906020019060200201511415612e495760009350612ef5565b60008382815181101515612e5957fe5b906020019060200201511415612ece57600b60008784815181101515612e7b57fe5b9060200190602002015181526020019081526020016000206000815481101515612ea157fe5b9060005260206000209001548382815181101515612ebb57fe5b9060200190602002018181525050612edb565b8080600101915050612dd5565b8180600101925050612d58565b612ef28386613761565b93505b50505092915050565b6000612f08613f5d565b6000806000612f15613f5d565b600080600a604051805910612f275750595b9080825280602002602001820160405250965060009550600a8a511115612f51576000975061310b565b600094505b89518510156130f5578985815181101515612f6d57fe5b906020019060200201519350612f828461251a565b1515612f91576000975061310b565b600b6000858152602001908152602001600020805480602002602001604051908101604052809291908181526020018280548015612fee57602002820191906000526020600020905b815481526020019060010190808311612fda575b50505050509250600a835110151561300557600080fd5b600091505b82518210156130e857600a8610151561302257600080fd5b600090505b86518110156130a157828281518110151561303e57fe5b90602001906020020151878281518110151561305657fe5b90602001906020020151141561306f576000975061310b565b6000878281518110151561307f57fe5b906020019060200201511415613094576130a1565b8080600101915050613027565b82828151811015156130af57fe5b9060200190602002015187878151811015156130c757fe5b9060200190602002018181525050600186019550818060010192505061300a565b8480600101955050612f56565b61310861310288886136d5565b8a613761565b97505b5050505050505092915050565b60008060008060008060008061312c613fbf565b60006131366125b1565b98506000975060009650600095505b8e518610156132f457878e8781518110151561315d57fe5b906020019060200201511015151561317457600080fd5b878e8781518110151561318357fe5b9060200190602002015114156131cd5760648760000b1415156131cc578660000b8f878151811015156131b257fe5b9060200190602002015160000b1315156131cb57600080fd5b5b5b8e868151811015156131db57fe5b9060200190602002015194508d868151811015156131f557fe5b9060200190602002015193508c8681518110151561320f57fe5b9060200190602002015192506060604051908101604052808660000b8152602001858152602001848152509150600e60008a815260200190815260200160002060000180548060010182816132649190614030565b9160005260206000209060030201600084909190915060008201518160000160006101000a81548160ff021916908360000b60ff16021790555060208201518160010155604082015181600201555050508d868151811015156132c357fe5b9060200190602002015197508e868151811015156132dd57fe5b906020019060200201519650856001019550613145565b8e8e8e60405180848051906020019060200280838360005b8381101561332757808201518184015260208101905061330c565b50505050905001838051906020019060200280838360005b8381101561335a57808201518184015260208101905061333f565b50505050905001828051906020019060200280838360005b8381101561338d578082015181840152602081019050613372565b505050509050019350505050604051809103902090506133ae338d836138ae565b98508a600f60008b815260200190815260200160002060008154811015156133d257fe5b90600052602060002090602091828204019190066101000a81548160ff021916908360000b60ff16021790555088995050505050505050505095945050505050565b600073ffffffffffffffffffffffffffffffffffffffff168273ffffffffffffffffffffffffffffffffffffffff161415151561345057600080fd5b61345981611c0b565b73ffffffffffffffffffffffffffffffffffffffff168273ffffffffffffffffffffffffffffffffffffffff161415151561349357600080fd5b8273ffffffffffffffffffffffffffffffffffffffff166134b382611c0b565b73ffffffffffffffffffffffffffffffffffffffff161415156134d557600080fd5b6134df8382613a6d565b6134e98382613b56565b6134f38282613dde565b8173ffffffffffffffffffffffffffffffffffffffff168373ffffffffffffffffffffffffffffffffffffffff167fddf252ad1be2c89b69c2b068fc378daa952ba7f163c4a11628f55a4df523b3ef836040518082815260200191505060405180910390a3505050565b60008273ffffffffffffffffffffffffffffffffffffffff1661357f83611425565b73ffffffffffffffffffffffffffffffffffffffff1614905092915050565b60095481101515156135af57600080fd5b80600a6000848152602001908152602001600020819055503373ffffffffffffffffffffffffffffffffffffffff167f372883ed096f3aca24c33c36571b41f60a645cb114b5590f319e2e1c2606db6e8383604051808381526020018281526020019250505060405180910390a25050565b61367381600660008573ffffffffffffffffffffffffffffffffffffffff1673ffffffffffffffffffffffffffffffffffffffff1681526020019081526020016000205461253d90919063ffffffff16565b600660008473ffffffffffffffffffffffffffffffffffffffff1673ffffffffffffffffffffffffffffffffffffffff168152602001908152602001600020819055506136cb8160075461253d90919063ffffffff16565b6007819055505050565b6136dd613f5d565b6136e5613f5d565b6000836040518059106136f55750595b90808252806020026020018201604052509150600090505b8381101561375657848181518110151561372357fe5b90602001906020020151828281518110151561373b57fe5b9060200190602002018181525050808060010191505061370d565b819250505092915050565b6000801515600c60008560405180828051906020019060200280838360005b8381101561379b578082015181840152602081019050613780565b5050505090500191505060405180910390206000191660001916815260200190815260200160002060009054906101000a900460ff16151514801561380c575060001515600d6000846000191660001916815260200190815260200160002060009054906101000a900460ff161515145b905092915050565b600073ffffffffffffffffffffffffffffffffffffffff168273ffffffffffffffffffffffffffffffffffffffff161415151561385057600080fd5b61385a8282613dde565b8173ffffffffffffffffffffffffffffffffffffffff1660007fddf252ad1be2c89b69c2b068fc378daa952ba7f163c4a11628f55a4df523b3ef836040518082815260200191505060405180910390a35050565b6000806138b96125b1565b90506138c58582613814565b60206040519081016040528082815250600b60008381526020019081526020016000209060016138f6929190614062565b50613962600b600083815260200190815260200160002080548060200260200160405190810160405280929190818152602001828054801561395757602002820191906000526020600020905b815481526020019060010190808311613943575b505050505084613761565b151561396d57600080fd5b6001600c6000602060405190810160405280858152506040518082600160200280838360005b838110156139ae578082015181840152602081019050613993565b5050505090500191505060405180910390206000191660001916815260200190815260200160002060006101000a81548160ff0219169083151502179055506001600d6000856000191660001916815260200190815260200160002060006101000a81548160ff0219169083151502179055507f3f5bdceccefc96a1f5b67e0c030e1f5f27d4f940582f4114ee08d3599912e216816040518082815260200191505060405180910390a1613a62818561359e565b809150509392505050565b8173ffffffffffffffffffffffffffffffffffffffff16613a8d82611c0b565b73ffffffffffffffffffffffffffffffffffffffff16141515613aaf57600080fd5b60006002600083815260200190815260200160002060006101000a81548173ffffffffffffffffffffffffffffffffffffffff021916908373ffffffffffffffffffffffffffffffffffffffff16021790555060008273ffffffffffffffffffffffffffffffffffffffff167f8c5be1e5ebec7d5bd14f71427d1e84f3dd0314c0f7b2291e5b200ac8c7c3b925836040518082815260200191505060405180910390a35050565b60008060008473ffffffffffffffffffffffffffffffffffffffff16613b7b85611c0b565b73ffffffffffffffffffffffffffffffffffffffff16141515613b9d57600080fd5b60046000858152602001908152602001600020549250613bcf6001613bc187611ce4565b612cfa90919063ffffffff16565b9150600360008673ffffffffffffffffffffffffffffffffffffffff1673ffffffffffffffffffffffffffffffffffffffff16815260200190815260200160002082815481101515613c1d57fe5b906000526020600020900154905060006001600086815260200190815260200160002060006101000a81548173ffffffffffffffffffffffffffffffffffffffff021916908373ffffffffffffffffffffffffffffffffffffffff16021790555080600360008773ffffffffffffffffffffffffffffffffffffffff1673ffffffffffffffffffffffffffffffffffffffff16815260200190815260200160002084815481101515613ccb57fe5b9060005260206000209001819055506000600360008773ffffffffffffffffffffffffffffffffffffffff1673ffffffffffffffffffffffffffffffffffffffff16815260200190815260200160002083815481101515613d2857fe5b906000526020600020900181905550600360008673ffffffffffffffffffffffffffffffffffffffff1673ffffffffffffffffffffffffffffffffffffffff168152602001908152602001600020805480919060019003613d8991906140af565b5060006004600086815260200190815260200160002081905550826004600083815260200190815260200160002081905550613dd16001600054612cfa90919063ffffffff16565b6000819055505050505050565b60008073ffffffffffffffffffffffffffffffffffffffff166001600084815260200190815260200160002060009054906101000a900473ffffffffffffffffffffffffffffffffffffffff1673ffffffffffffffffffffffffffffffffffffffff16141515613e4d57600080fd5b826001600084815260200190815260200160002060006101000a81548173ffffffffffffffffffffffffffffffffffffffff021916908373ffffffffffffffffffffffffffffffffffffffff160217905550613ea883611ce4565b9050600360008473ffffffffffffffffffffffffffffffffffffffff1673ffffffffffffffffffffffffffffffffffffffff1681526020019081526020016000208054806001018281613efb91906140db565b916000526020600020900160008490919091505550806004600084815260200190815260200160002081905550613f3e600160005461253d90919063ffffffff16565b600081905550505050565b602060405190810160405280600081525090565b602060405190810160405280600081525090565b815481835581811511613fa657601f016020900481601f01602090048360005260206000209182019101613fa59190614107565b5b505050565b602060405190810160405280600081525090565b6060604051908101604052806000800b815260200160008152602001600081525090565b82805482825590600052602060002090810192821561401f579160200282015b8281111561401e578251825591602001919060010190614003565b5b50905061402c9190614107565b5090565b81548183558181151161405d5760030281600302836000526020600020918201910161405c919061412c565b5b505050565b82805482825590600052602060002090810192821561409e579160200282015b8281111561409d578251825591602001919060010190614082565b5b5090506140ab9190614107565b5090565b8154818355818115116140d6578183600052602060002091820191016140d59190614107565b5b505050565b815481835581811511614102578183600052602060002091820191016141019190614107565b5b505050565b61412991905b8082111561412557600081600090555060010161410d565b5090565b90565b61416c91905b8082111561416857600080820160006101000a81549060ff02191690556001820160009055600282016000905550600301614132565b5090565b905600a165627a7a723058201fa86eca91996a7ebd488912da342e583cc9d80738287c32f7703a0a455410fb0029",
  "source": "pragma solidity ^0.4.21;\r\n\r\nimport \"./Composable.sol\";\r\nimport \"zeppelin-solidity/contracts/math/SafeMath.sol\";\r\n\r\n/**\r\n * @title Jingle\r\n * Jingle - a contract to mint and compose original jingles\r\n*/\r\ncontract Jingle is Composable {\r\n    using SafeMath for uint256;\r\n\r\n    // set proxy as the owner\r\n    bool internal _initialized;\r\n\r\n    string public constant NAME = \"Jingle\";\r\n    string public constant SYMBOL = \"JING\";\r\n    uint256 public MAXDURATION;\r\n    address beneficiary;\r\n    uint256 fees;\r\n\r\n    modifier checkArguments(int8[] pitches,  uint256[] startTimes, uint256[] durations) {\r\n        require(pitches.length == startTimes.length && pitches.length == durations.length && pitches.length < 100);\r\n        require (pitches[0] == 100);\r\n        uint256 last = startTimes.length - 1;\r\n        require(startTimes[last] + durations[last] <= MAXDURATION);\r\n        _;\r\n    }\r\n    \r\n    function initialize(address newOwner, uint256 maxDuration, address _beneficiary) public {\r\n        require(!_initialized);\r\n        isCompositionOnlyWithBaseLayers = true;\r\n        MAXDURATION = maxDuration;\r\n        minCompositionFee = 0.01 ether;\r\n        beneficiary = _beneficiary;\r\n        owner = newOwner;\r\n        _initialized = true;\r\n    }\r\n\r\n    /**\r\n    * @dev Mints a base melody\r\n    */\r\n    function composeBaseMelody(int8[] pitches,  \r\n                               uint256[] startTimes, \r\n                               uint256[] durations, \r\n                               uint256 _compositionPrice,\r\n                               int8 _displayPitch,\r\n                               bytes32 _title) checkArguments(pitches, startTimes, durations) public payable whenNotPaused {\r\n        //must pay registration fee\r\n        require(msg.value >= minCompositionFee);\r\n        \r\n        uint256 id = _getNextTokenId();\r\n        createMelody(pitches, startTimes, durations, _compositionPrice, _displayPitch);\r\n        tokenIdToTitle[id] = _title;\r\n\r\n        fees = fees.add(minCompositionFee);\r\n    }\r\n\r\n    function composeComposition(int8[] pitches,  \r\n                                uint256[] startTimes, \r\n                                uint256[] durations, \r\n                                uint256[] _tokenIds, \r\n                                uint256 _compositionPrice, \r\n                                int8[] _displayPitches,\r\n                                bytes32 _melodyHash,\r\n                                bytes32 _title) public payable whenNotPaused {\r\n        //mint base melody with any added notes\r\n        uint256 newId = _getNextTokenId();\r\n        composeBaseMelody(pitches, startTimes, durations, _compositionPrice, _displayPitches[_displayPitches.length - 1], _title);\r\n\r\n        uint256[] memory newTokenIds = new uint256[](_tokenIds.length + 1);\r\n        \r\n        for (uint256 i = 0; i < _tokenIds.length; ++i) {\r\n            newTokenIds[i] = _tokenIds[i];\r\n            tokenIdToDisplayPitch[newId].push(_displayPitches[i]);\r\n        }\r\n        newTokenIds[newTokenIds.length - 1] = newId;\r\n        tokenIdToDisplayPitch[newId].push(_displayPitches[_displayPitches.length - 1]);\r\n\r\n        //compose composition melody\r\n        Composable.compose(newTokenIds, _melodyHash);\r\n        tokenIdToTitle[newId] = _title;\r\n\r\n        // Immediately pay out to layer owners\r\n        for (uint256 x = 0; x < _tokenIds.length; x++) {\r\n            _withdrawTo(ownerOf(_tokenIds[x]));\r\n        }\r\n    }\r\n\r\n    function createMelody(int8[] pitches,  \r\n                          uint256[] startTimes, \r\n                          uint256[] durations, \r\n                          uint256 _compositionPrice,\r\n                          int8 _displayPitch) internal returns (uint256) {\r\n        uint256 _id = _getNextTokenId();\r\n\r\n        //variable to keep track of the last notes start time\r\n        uint256 lastStart = 0;\r\n        int8 lastPitch = 0;\r\n        for (uint256 i = 0; i < pitches.length; ++i) {\r\n            //make sure a later note does not come before a previous note - this is mostly for checking uniqueness rather than actual organization\r\n            require(startTimes[i] >= lastStart);\r\n            if (startTimes[i] == lastStart) {\r\n                //make sure pitches with the same Start Time are sorted in ascending order\r\n                if(lastPitch != 100) {\r\n                    require(pitches[i] > lastPitch);\r\n                }\r\n            }\r\n            int8 _pitch = pitches[i];\r\n            uint256 _startTime = startTimes[i];\r\n            uint256 _duration = durations[i];\r\n            note memory _note = note({\r\n                pitch: _pitch, \r\n                startTime: _startTime, \r\n                duration: _duration\r\n            });\r\n\r\n            tokenIdToMelody[_id].melody.push(_note);\r\n\r\n            lastStart = startTimes[i];\r\n            lastPitch = pitches[i];\r\n        }\r\n\r\n        bytes32 _melodyHash = keccak256(pitches, startTimes, durations);\r\n\r\n        //mint base melody\r\n        _id = Composable.mintTo(msg.sender, _compositionPrice, _melodyHash);\r\n        tokenIdToDisplayPitch[_id][0] = _displayPitch;\r\n\r\n        return _id;\r\n    }\r\n\r\n// ----- EXPOSED METHODS --------------------------------------------------------------------------\r\n\r\n    /**\r\n    * @dev returns the name Jingle\r\n    * @return string Jingle\r\n    */\r\n    function name() public view returns (string) {\r\n        return NAME;\r\n    }\r\n\r\n    /**\r\n    * @dev returns the name JING\r\n    * @return string JING\r\n    */\r\n    function symbol() public view returns (string) {\r\n        return SYMBOL;\r\n    }\r\n\r\n    /**\r\n    * @dev gets a melody for a composition\r\n     */\r\n    function getMelody(uint256 _id) public view returns (int8[], uint256[], uint256[]) {\r\n        Melody storage melody = tokenIdToMelody[_id];\r\n\r\n        int8[] memory _pitches = new int8[](melody.melody.length);\r\n        uint[] memory _startTimes = new uint256[](melody.melody.length);\r\n        uint256[] memory _durations = new uint256[](melody.melody.length);\r\n\r\n        for (uint256 i = 0; i < melody.melody.length; ++i) {\r\n            note memory _note = melody.melody[i];\r\n            _pitches[i] = _note.pitch;\r\n            _startTimes[i] = _note.startTime;\r\n            _durations[i] = _note.duration;\r\n        }\r\n\r\n        return (_pitches, _startTimes, _durations);\r\n    }\r\n\r\n    /**\r\n    * @dev returns whether or not a token id is a composition\r\n     */\r\n     function isAComposition(uint256 _id) public view returns (bool) {\r\n         return (tokenIdToLayers[_id].length > 1);\r\n     }\r\n\r\n    /**\r\n    * @dev gets display pitches\r\n     */\r\n     function getDisplayPitches(uint256 _id) public view returns (int8[]) {\r\n         return tokenIdToDisplayPitch[_id];\r\n     }\r\n\r\n     /**\r\n     * @dev gets a title\r\n      */\r\n      function getTitle(uint256 _id) public view returns (bytes32) {\r\n          return tokenIdToTitle[_id];\r\n      }\r\n\r\n// ----- PRIVATE FUNCTIONS ------------------------------------------------------------------------\r\n\r\n    /**\r\n    * @dev withdraw accumulated balance to the payee\r\n    * @param _payee address to which to withdraw to\r\n    */\r\n    function _withdrawTo(address _payee) private {\r\n        uint256 payment = payments[_payee];\r\n\r\n        if (payment != 0 && address(this).balance >= payment) {\r\n            totalPayments = totalPayments.sub(payment);\r\n            payments[_payee] = 0;\r\n            _payee.transfer(payment);\r\n        }\r\n    }\r\n\r\n    function withdraw() public onlyOwner {\r\n        beneficiary.transfer(fees);\r\n    }\r\n}\r\n",
  "sourcePath": "/Users/nathanieloden/Documents/GitHub/jingle2/Jingle/contracts/Jingle.sol",
  "compiler": {
    "name": "solc",
    "version": "0.4.21+commit.dfe3193c.Emscripten.clang"
  },
  "schemaVersion": "2.0.0",
  "updatedAt": "2018-05-18T23:43:38.873Z"
}