{
  "contractName": "JingleProxy",
  "abi": [
    {
      "constant": true,
      "inputs": [],
      "name": "proxyOwner",
      "outputs": [
        {
          "name": "owner",
          "type": "address"
        }
      ],
      "payable": false,
      "stateMutability": "view",
      "type": "function"
    },
    {
      "constant": false,
      "inputs": [
        {
          "name": "newOwner",
          "type": "address"
        }
      ],
      "name": "transferProxyOwnership",
      "outputs": [],
      "payable": false,
      "stateMutability": "nonpayable",
      "type": "function"
    },
    {
      "payable": true,
      "stateMutability": "payable",
      "type": "fallback"
    },
    {
      "anonymous": false,
      "inputs": [
        {
          "indexed": true,
          "name": "implementation",
          "type": "address"
        }
      ],
      "name": "Upgraded",
      "type": "event"
    },
    {
      "anonymous": false,
      "inputs": [
        {
          "indexed": false,
          "name": "previousOwner",
          "type": "address"
        },
        {
          "indexed": false,
          "name": "newOwner",
          "type": "address"
        }
      ],
      "name": "ProxyOwnershipTransferred",
      "type": "event"
    },
    {
      "constant": true,
      "inputs": [],
      "name": "implementation",
      "outputs": [
        {
          "name": "impl",
          "type": "address"
        }
      ],
      "payable": false,
      "stateMutability": "view",
      "type": "function"
    },
    {
      "constant": false,
      "inputs": [
        {
          "name": "newImplementation",
          "type": "address"
        }
      ],
      "name": "upgradeTo",
      "outputs": [],
      "payable": false,
      "stateMutability": "nonpayable",
      "type": "function"
    },
    {
      "constant": false,
      "inputs": [
        {
          "name": "newImplementation",
          "type": "address"
        },
        {
          "name": "data",
          "type": "bytes"
        }
      ],
      "name": "upgradeToAndCall",
      "outputs": [],
      "payable": true,
      "stateMutability": "payable",
      "type": "function"
    }
  ],
  "bytecode": "0x60606040526100203361002564010000000002610627176401000000009004565b61008c565b600060405180807f6574686d6f6a692e696f2e73757065722e64757065722e617765736f6d652e7081526020017f726f78792e6f776e657200000000000000000000000000000000000000000000815250602a019050604051809103902090508181555050565b6107218061009b6000396000f30060606040526004361061006d576000357c0100000000000000000000000000000000000000000000000000000000900463ffffffff168063025313a2146100dc5780633659cfe6146101315780634f1ef2861461016a5780635c60da1b146101db578063f1739cae14610230575b6000610077610269565b9050600073ffffffffffffffffffffffffffffffffffffffff168173ffffffffffffffffffffffffffffffffffffffff16141515156100b557600080fd5b60405136600082376000803683855af43d806000843e81600081146100d8578184f35b8184fd5b34156100e757600080fd5b6100ef6102d2565b604051808273ffffffffffffffffffffffffffffffffffffffff1673ffffffffffffffffffffffffffffffffffffffff16815260200191505060405180910390f35b341561013c57600080fd5b610168600480803573ffffffffffffffffffffffffffffffffffffffff1690602001909190505061033b565b005b6101d9600480803573ffffffffffffffffffffffffffffffffffffffff1690602001909190803590602001908201803590602001908080601f01602080910402602001604051908101604052809392919081815260200183838082843782019150505050505091905050610388565b005b34156101e657600080fd5b6101ee610269565b604051808273ffffffffffffffffffffffffffffffffffffffff1673ffffffffffffffffffffffffffffffffffffffff16815260200191505060405180910390f35b341561023b57600080fd5b610267600480803573ffffffffffffffffffffffffffffffffffffffff16906020019091905050610469565b005b60008060405180807f6a696e676c652e696d706c656d656e746174696f6e2e776f6f2e776f6f2e776f81526020017f6f2e7577752e6b6c72776d660000000000000000000000000000000000000000815250602c01905060405180910390209050805491505090565b60008060405180807f6574686d6f6a692e696f2e73757065722e64757065722e617765736f6d652e7081526020017f726f78792e6f776e657200000000000000000000000000000000000000000000815250602a01905060405180910390209050805491505090565b6103436102d2565b73ffffffffffffffffffffffffffffffffffffffff163373ffffffffffffffffffffffffffffffffffffffff1614151561037c57600080fd5b61038581610590565b50565b6103906102d2565b73ffffffffffffffffffffffffffffffffffffffff163373ffffffffffffffffffffffffffffffffffffffff161415156103c957600080fd5b6103d28261033b565b3073ffffffffffffffffffffffffffffffffffffffff16348260405180828051906020019080838360005b838110156104185780820151818401526020810190506103fd565b50505050905090810190601f1680156104455780820380516001836020036101000a031916815260200191505b5091505060006040518083038185875af192505050151561046557600080fd5b5050565b6104716102d2565b73ffffffffffffffffffffffffffffffffffffffff163373ffffffffffffffffffffffffffffffffffffffff161415156104aa57600080fd5b600073ffffffffffffffffffffffffffffffffffffffff168173ffffffffffffffffffffffffffffffffffffffff16141515156104e657600080fd5b7f5a3e66efaa1e445ebd894728a69d6959842ea1e97bd79b892797106e270efcd961050f6102d2565b82604051808373ffffffffffffffffffffffffffffffffffffffff1673ffffffffffffffffffffffffffffffffffffffff1681526020018273ffffffffffffffffffffffffffffffffffffffff1673ffffffffffffffffffffffffffffffffffffffff1681526020019250505060405180910390a161058d81610627565b50565b600061059a610269565b90508173ffffffffffffffffffffffffffffffffffffffff168173ffffffffffffffffffffffffffffffffffffffff16141515156105d757600080fd5b6105e08261068e565b8173ffffffffffffffffffffffffffffffffffffffff167fbc7cd75a20ee27fd9adebab32041f755214dbc6bffa90cc0225b39da2e5c2d3b60405160405180910390a25050565b600060405180807f6574686d6f6a692e696f2e73757065722e64757065722e617765736f6d652e7081526020017f726f78792e6f776e657200000000000000000000000000000000000000000000815250602a019050604051809103902090508181555050565b600060405180807f6a696e676c652e696d706c656d656e746174696f6e2e776f6f2e776f6f2e776f81526020017f6f2e7577752e6b6c72776d660000000000000000000000000000000000000000815250602c0190506040518091039020905081815550505600a165627a7a72305820189901ce40d5aa7dca43da27d7b80cb905d19ae1dea9a95761f0dfe35c8912f70029",
  "source": "pragma solidity ^0.4.21;\n\nimport \"./Proxy.sol\";\nimport \"./OwnableProxy.sol\";\n\ncontract JingleProxy is Proxy, OwnableProxy { \n\n  /**\n   * @dev This event will be emitted every time the implementation gets upgraded\n   * @param implementation representing the address of the upgraded implementation\n   */\n  event Upgraded(address indexed implementation);\n\n  // Storage position of the address of the current implementation\n  bytes32 private constant implementationPosition = keccak256(\"jingle.implementation.woo.woo.woo.uwu.klrwmf\");\n\n  /**\n   * @dev Tells the address of the current implementation\n   * @return address of the current implementation\n   */\n  function implementation() public view returns (address impl) {\n    bytes32 position = implementationPosition;\n    assembly {\n      impl := sload(position)\n    }\n  }\n\n  /**\n   * @dev Sets the address of the current implementation\n   * @param newImplementation address representing the new implementation to be set\n   */\n  function setImplementation(address newImplementation) internal {\n    bytes32 position = implementationPosition;\n    assembly {\n      sstore(position, newImplementation)\n    }\n  }\n  \n  /**\n   * @dev Allows the proxy owner to upgrade the current version of the proxy.\n   * @param newImplementation representing the address of the new implementation to be set.\n   */\n  function upgradeTo(address newImplementation) public onlyProxyOwner {\n    _upgradeTo(newImplementation);\n  }\n\n    /**\n   * @dev Allows the proxy owner to upgrade the current version of the proxy and call the new implementation\n   * to initialize whatever is needed through a low level call.\n   * @param newImplementation representing the address of the new implementation to be set.\n   * @param data represents the msg.data to bet sent in the low level call. This parameter may include the function\n   * signature of the implementation to be called with the needed payload\n   */\n  function upgradeToAndCall(address newImplementation, bytes data) payable public onlyProxyOwner {\n    upgradeTo(newImplementation);\n    require(address(this).call.value(msg.value)(data));\n  }\n\n  /**\n   * @dev Upgrades the implementation address\n   * @param newImplementation representing the address of the new implementation to be set\n   */\n  function _upgradeTo(address newImplementation) internal {\n    address currentImplementation = implementation();\n    require(currentImplementation != newImplementation);\n    setImplementation(newImplementation);\n    emit Upgraded(newImplementation);\n  }\n}\n\n",
  "sourcePath": "/Users/nathanieloden/Documents/GitHub/jingle2/Jingle/contracts/JingleProxy.sol",
  "compiler": {
    "name": "solc",
    "version": "0.4.21+commit.dfe3193c.Emscripten.clang"
  },
  "schemaVersion": "2.0.0",
  "updatedAt": "2018-05-15T00:51:35.950Z"
}