{
  "contractName": "Motif",
  "abi": [
    {
      "constant": true,
      "inputs": [],
      "name": "totalPayments",
      "outputs": [
        {
          "name": "",
          "type": "uint256"
        }
      ],
      "payable": false,
      "stateMutability": "view",
      "type": "function"
    },
    {
      "constant": true,
      "inputs": [],
      "name": "name",
      "outputs": [
        {
          "name": "",
          "type": "string"
        }
      ],
      "payable": false,
      "stateMutability": "view",
      "type": "function"
    },
    {
      "constant": true,
      "inputs": [
        {
          "name": "_tokenId",
          "type": "uint256"
        }
      ],
      "name": "getApproved",
      "outputs": [
        {
          "name": "",
          "type": "address"
        }
      ],
      "payable": false,
      "stateMutability": "view",
      "type": "function"
    },
    {
      "constant": false,
      "inputs": [
        {
          "name": "_to",
          "type": "address"
        },
        {
          "name": "_tokenId",
          "type": "uint256"
        }
      ],
      "name": "approve",
      "outputs": [],
      "payable": false,
      "stateMutability": "nonpayable",
      "type": "function"
    },
    {
      "constant": false,
      "inputs": [
        {
          "name": "_to",
          "type": "address"
        }
      ],
      "name": "payout",
      "outputs": [],
      "payable": false,
      "stateMutability": "nonpayable",
      "type": "function"
    },
    {
      "constant": true,
      "inputs": [],
      "name": "totalSupply",
      "outputs": [
        {
          "name": "",
          "type": "uint256"
        }
      ],
      "payable": false,
      "stateMutability": "view",
      "type": "function"
    },
    {
      "constant": true,
      "inputs": [
        {
          "name": "_tokenIds",
          "type": "uint256[]"
        }
      ],
      "name": "getTotalCompositionPrice",
      "outputs": [
        {
          "name": "",
          "type": "uint256"
        }
      ],
      "payable": false,
      "stateMutability": "view",
      "type": "function"
    },
    {
      "constant": true,
      "inputs": [
        {
          "name": "_tokenId",
          "type": "uint256"
        }
      ],
      "name": "getCompositionPrice",
      "outputs": [
        {
          "name": "",
          "type": "uint256"
        }
      ],
      "payable": false,
      "stateMutability": "view",
      "type": "function"
    },
    {
      "constant": false,
      "inputs": [
        {
          "name": "_from",
          "type": "address"
        },
        {
          "name": "_to",
          "type": "address"
        },
        {
          "name": "_tokenId",
          "type": "uint256"
        }
      ],
      "name": "transferFrom",
      "outputs": [],
      "payable": false,
      "stateMutability": "nonpayable",
      "type": "function"
    },
    {
      "constant": true,
      "inputs": [
        {
          "name": "_owner",
          "type": "address"
        },
        {
          "name": "_index",
          "type": "uint256"
        }
      ],
      "name": "tokenOfOwnerByIndex",
      "outputs": [
        {
          "name": "",
          "type": "uint256"
        }
      ],
      "payable": false,
      "stateMutability": "view",
      "type": "function"
    },
    {
      "constant": true,
      "inputs": [
        {
          "name": "",
          "type": "uint256"
        }
      ],
      "name": "tokenIdToCompositionPrice",
      "outputs": [
        {
          "name": "",
          "type": "uint256"
        }
      ],
      "payable": false,
      "stateMutability": "view",
      "type": "function"
    },
    {
      "constant": true,
      "inputs": [
        {
          "name": "",
          "type": "uint256"
        },
        {
          "name": "",
          "type": "uint256"
        }
      ],
      "name": "tokenIdToLayers",
      "outputs": [
        {
          "name": "",
          "type": "uint256"
        }
      ],
      "payable": false,
      "stateMutability": "view",
      "type": "function"
    },
    {
      "constant": false,
      "inputs": [],
      "name": "unpause",
      "outputs": [],
      "payable": false,
      "stateMutability": "nonpayable",
      "type": "function"
    },
    {
      "constant": false,
      "inputs": [
        {
          "name": "_from",
          "type": "address"
        },
        {
          "name": "_to",
          "type": "address"
        },
        {
          "name": "_tokenId",
          "type": "uint256"
        }
      ],
      "name": "safeTransferFrom",
      "outputs": [],
      "payable": false,
      "stateMutability": "nonpayable",
      "type": "function"
    },
    {
      "constant": true,
      "inputs": [
        {
          "name": "_tokenId",
          "type": "uint256"
        }
      ],
      "name": "exists",
      "outputs": [
        {
          "name": "",
          "type": "bool"
        }
      ],
      "payable": false,
      "stateMutability": "view",
      "type": "function"
    },
    {
      "constant": true,
      "inputs": [
        {
          "name": "_index",
          "type": "uint256"
        }
      ],
      "name": "tokenByIndex",
      "outputs": [
        {
          "name": "",
          "type": "uint256"
        }
      ],
      "payable": false,
      "stateMutability": "view",
      "type": "function"
    },
    {
      "constant": true,
      "inputs": [],
      "name": "paused",
      "outputs": [
        {
          "name": "",
          "type": "bool"
        }
      ],
      "payable": false,
      "stateMutability": "view",
      "type": "function"
    },
    {
      "constant": false,
      "inputs": [],
      "name": "withdrawPayments",
      "outputs": [],
      "payable": false,
      "stateMutability": "nonpayable",
      "type": "function"
    },
    {
      "constant": true,
      "inputs": [
        {
          "name": "_tokenId",
          "type": "uint256"
        }
      ],
      "name": "ownerOf",
      "outputs": [
        {
          "name": "",
          "type": "address"
        }
      ],
      "payable": false,
      "stateMutability": "view",
      "type": "function"
    },
    {
      "constant": true,
      "inputs": [
        {
          "name": "",
          "type": "bytes32"
        }
      ],
      "name": "melodyHashes",
      "outputs": [
        {
          "name": "",
          "type": "bool"
        }
      ],
      "payable": false,
      "stateMutability": "view",
      "type": "function"
    },
    {
      "constant": true,
      "inputs": [
        {
          "name": "_tokenIds",
          "type": "uint256[]"
        },
        {
          "name": "_melodyHash",
          "type": "bytes32"
        }
      ],
      "name": "isValidComposition",
      "outputs": [
        {
          "name": "",
          "type": "bool"
        }
      ],
      "payable": false,
      "stateMutability": "view",
      "type": "function"
    },
    {
      "constant": true,
      "inputs": [
        {
          "name": "_owner",
          "type": "address"
        }
      ],
      "name": "balanceOf",
      "outputs": [
        {
          "name": "",
          "type": "uint256"
        }
      ],
      "payable": false,
      "stateMutability": "view",
      "type": "function"
    },
    {
      "constant": true,
      "inputs": [
        {
          "name": "",
          "type": "bytes32"
        }
      ],
      "name": "compositions",
      "outputs": [
        {
          "name": "",
          "type": "bool"
        }
      ],
      "payable": false,
      "stateMutability": "view",
      "type": "function"
    },
    {
      "constant": false,
      "inputs": [],
      "name": "pause",
      "outputs": [],
      "payable": false,
      "stateMutability": "nonpayable",
      "type": "function"
    },
    {
      "constant": true,
      "inputs": [],
      "name": "owner",
      "outputs": [
        {
          "name": "",
          "type": "address"
        }
      ],
      "payable": false,
      "stateMutability": "view",
      "type": "function"
    },
    {
      "constant": true,
      "inputs": [],
      "name": "symbol",
      "outputs": [
        {
          "name": "",
          "type": "string"
        }
      ],
      "payable": false,
      "stateMutability": "view",
      "type": "function"
    },
    {
      "constant": false,
      "inputs": [
        {
          "name": "_to",
          "type": "address"
        },
        {
          "name": "_approved",
          "type": "bool"
        }
      ],
      "name": "setApprovalForAll",
      "outputs": [],
      "payable": false,
      "stateMutability": "nonpayable",
      "type": "function"
    },
    {
      "constant": true,
      "inputs": [
        {
          "name": "_tokenId",
          "type": "uint256"
        }
      ],
      "name": "getTokenLayers",
      "outputs": [
        {
          "name": "",
          "type": "uint256[]"
        }
      ],
      "payable": false,
      "stateMutability": "view",
      "type": "function"
    },
    {
      "constant": false,
      "inputs": [
        {
          "name": "_from",
          "type": "address"
        },
        {
          "name": "_to",
          "type": "address"
        },
        {
          "name": "_tokenId",
          "type": "uint256"
        },
        {
          "name": "_data",
          "type": "bytes"
        }
      ],
      "name": "safeTransferFrom",
      "outputs": [],
      "payable": false,
      "stateMutability": "nonpayable",
      "type": "function"
    },
    {
      "constant": true,
      "inputs": [],
      "name": "isCompositionOnlyWithBaseLayers",
      "outputs": [
        {
          "name": "",
          "type": "bool"
        }
      ],
      "payable": false,
      "stateMutability": "view",
      "type": "function"
    },
    {
      "constant": false,
      "inputs": [
        {
          "name": "_price",
          "type": "uint256"
        }
      ],
      "name": "setMinCompositionFee",
      "outputs": [],
      "payable": false,
      "stateMutability": "nonpayable",
      "type": "function"
    },
    {
      "constant": true,
      "inputs": [],
      "name": "minCompositionFee",
      "outputs": [
        {
          "name": "",
          "type": "uint256"
        }
      ],
      "payable": false,
      "stateMutability": "view",
      "type": "function"
    },
    {
      "constant": true,
      "inputs": [],
      "name": "MAX_LAYERS",
      "outputs": [
        {
          "name": "",
          "type": "uint256"
        }
      ],
      "payable": false,
      "stateMutability": "view",
      "type": "function"
    },
    {
      "constant": true,
      "inputs": [
        {
          "name": "_tokenId",
          "type": "uint256"
        }
      ],
      "name": "tokenURI",
      "outputs": [
        {
          "name": "",
          "type": "string"
        }
      ],
      "payable": false,
      "stateMutability": "view",
      "type": "function"
    },
    {
      "constant": true,
      "inputs": [],
      "name": "MAXDURATION",
      "outputs": [
        {
          "name": "",
          "type": "uint256"
        }
      ],
      "payable": false,
      "stateMutability": "view",
      "type": "function"
    },
    {
      "constant": false,
      "inputs": [
        {
          "name": "_tokenId",
          "type": "uint256"
        },
        {
          "name": "_price",
          "type": "uint256"
        }
      ],
      "name": "setCompositionPrice",
      "outputs": [],
      "payable": false,
      "stateMutability": "nonpayable",
      "type": "function"
    },
    {
      "constant": true,
      "inputs": [
        {
          "name": "",
          "type": "address"
        }
      ],
      "name": "payments",
      "outputs": [
        {
          "name": "",
          "type": "uint256"
        }
      ],
      "payable": false,
      "stateMutability": "view",
      "type": "function"
    },
    {
      "constant": true,
      "inputs": [
        {
          "name": "_owner",
          "type": "address"
        },
        {
          "name": "_operator",
          "type": "address"
        }
      ],
      "name": "isApprovedForAll",
      "outputs": [
        {
          "name": "",
          "type": "bool"
        }
      ],
      "payable": false,
      "stateMutability": "view",
      "type": "function"
    },
    {
      "constant": true,
      "inputs": [
        {
          "name": "",
          "type": "uint256"
        },
        {
          "name": "",
          "type": "uint256"
        }
      ],
      "name": "tokenIdToDisplayPitch",
      "outputs": [
        {
          "name": "",
          "type": "int8"
        }
      ],
      "payable": false,
      "stateMutability": "view",
      "type": "function"
    },
    {
      "constant": false,
      "inputs": [
        {
          "name": "newOwner",
          "type": "address"
        }
      ],
      "name": "transferOwnership",
      "outputs": [],
      "payable": false,
      "stateMutability": "nonpayable",
      "type": "function"
    },
    {
      "inputs": [],
      "payable": false,
      "stateMutability": "nonpayable",
      "type": "constructor"
    },
    {
      "anonymous": false,
      "inputs": [
        {
          "indexed": false,
          "name": "tokenId",
          "type": "uint256"
        }
      ],
      "name": "BaseTokenCreated",
      "type": "event"
    },
    {
      "anonymous": false,
      "inputs": [
        {
          "indexed": false,
          "name": "tokenId",
          "type": "uint256"
        },
        {
          "indexed": false,
          "name": "layers",
          "type": "uint256[]"
        },
        {
          "indexed": true,
          "name": "owner",
          "type": "address"
        }
      ],
      "name": "CompositionTokenCreated",
      "type": "event"
    },
    {
      "anonymous": false,
      "inputs": [
        {
          "indexed": false,
          "name": "tokenId",
          "type": "uint256"
        },
        {
          "indexed": false,
          "name": "price",
          "type": "uint256"
        },
        {
          "indexed": true,
          "name": "owner",
          "type": "address"
        }
      ],
      "name": "CompositionPriceChanged",
      "type": "event"
    },
    {
      "anonymous": false,
      "inputs": [
        {
          "indexed": false,
          "name": "tokenId",
          "type": "uint256"
        },
        {
          "indexed": false,
          "name": "amount",
          "type": "uint256"
        },
        {
          "indexed": true,
          "name": "owner",
          "type": "address"
        }
      ],
      "name": "RoyaltiesPaid",
      "type": "event"
    },
    {
      "anonymous": false,
      "inputs": [],
      "name": "Pause",
      "type": "event"
    },
    {
      "anonymous": false,
      "inputs": [],
      "name": "Unpause",
      "type": "event"
    },
    {
      "anonymous": false,
      "inputs": [
        {
          "indexed": true,
          "name": "previousOwner",
          "type": "address"
        },
        {
          "indexed": true,
          "name": "newOwner",
          "type": "address"
        }
      ],
      "name": "OwnershipTransferred",
      "type": "event"
    },
    {
      "anonymous": false,
      "inputs": [
        {
          "indexed": true,
          "name": "_from",
          "type": "address"
        },
        {
          "indexed": true,
          "name": "_to",
          "type": "address"
        },
        {
          "indexed": false,
          "name": "_tokenId",
          "type": "uint256"
        }
      ],
      "name": "Transfer",
      "type": "event"
    },
    {
      "anonymous": false,
      "inputs": [
        {
          "indexed": true,
          "name": "_owner",
          "type": "address"
        },
        {
          "indexed": true,
          "name": "_approved",
          "type": "address"
        },
        {
          "indexed": false,
          "name": "_tokenId",
          "type": "uint256"
        }
      ],
      "name": "Approval",
      "type": "event"
    },
    {
      "anonymous": false,
      "inputs": [
        {
          "indexed": true,
          "name": "_owner",
          "type": "address"
        },
        {
          "indexed": true,
          "name": "_operator",
          "type": "address"
        },
        {
          "indexed": false,
          "name": "_approved",
          "type": "bool"
        }
      ],
      "name": "ApprovalForAll",
      "type": "event"
    },
    {
      "constant": false,
      "inputs": [
        {
          "name": "newOwner",
          "type": "address"
        },
        {
          "name": "maxDuration",
          "type": "uint256"
        },
        {
          "name": "_beneficiary",
          "type": "address"
        }
      ],
      "name": "initialize",
      "outputs": [],
      "payable": false,
      "stateMutability": "nonpayable",
      "type": "function"
    },
    {
      "constant": false,
      "inputs": [
        {
          "name": "pitches",
          "type": "int8[]"
        },
        {
          "name": "startTimes",
          "type": "uint256[]"
        },
        {
          "name": "durations",
          "type": "uint256[]"
        },
        {
          "name": "_compositionPrice",
          "type": "uint256"
        },
        {
          "name": "_displayPitch",
          "type": "int8"
        },
        {
          "name": "_title",
          "type": "bytes32"
        }
      ],
      "name": "composeBaseMelody",
      "outputs": [],
      "payable": true,
      "stateMutability": "payable",
      "type": "function"
    },
    {
      "constant": false,
      "inputs": [
        {
          "name": "pitches",
          "type": "int8[]"
        },
        {
          "name": "startTimes",
          "type": "uint256[]"
        },
        {
          "name": "durations",
          "type": "uint256[]"
        },
        {
          "name": "_tokenIds",
          "type": "uint256[]"
        },
        {
          "name": "_compositionPrice",
          "type": "uint256"
        },
        {
          "name": "_displayPitches",
          "type": "int8[]"
        },
        {
          "name": "_melodyHash",
          "type": "bytes32"
        },
        {
          "name": "_title",
          "type": "bytes32"
        }
      ],
      "name": "composeComposition",
      "outputs": [],
      "payable": true,
      "stateMutability": "payable",
      "type": "function"
    },
    {
      "constant": true,
      "inputs": [
        {
          "name": "_id",
          "type": "uint256"
        }
      ],
      "name": "getMelody",
      "outputs": [
        {
          "name": "",
          "type": "int8[]"
        },
        {
          "name": "",
          "type": "uint256[]"
        },
        {
          "name": "",
          "type": "uint256[]"
        }
      ],
      "payable": false,
      "stateMutability": "view",
      "type": "function"
    },
    {
      "constant": true,
      "inputs": [
        {
          "name": "_id",
          "type": "uint256"
        }
      ],
      "name": "isAComposition",
      "outputs": [
        {
          "name": "",
          "type": "bool"
        }
      ],
      "payable": false,
      "stateMutability": "view",
      "type": "function"
    },
    {
      "constant": true,
      "inputs": [
        {
          "name": "_id",
          "type": "uint256"
        }
      ],
      "name": "getDisplayPitches",
      "outputs": [
        {
          "name": "",
          "type": "int8[]"
        }
      ],
      "payable": false,
      "stateMutability": "view",
      "type": "function"
    },
    {
      "constant": true,
      "inputs": [
        {
          "name": "_id",
          "type": "uint256"
        }
      ],
      "name": "getTitle",
      "outputs": [
        {
          "name": "",
          "type": "bytes32"
        }
      ],
      "payable": false,
      "stateMutability": "view",
      "type": "function"
    },
    {
      "constant": false,
      "inputs": [],
      "name": "withdraw",
      "outputs": [],
      "payable": false,
      "stateMutability": "nonpayable",
      "type": "function"
    }
  ],
  "bytecode": "0x60806040526000600e60006101000a81548160ff0219169083151502179055503480156200002c57600080fd5b506040805190810160405280600581526020017f4d6f7469660000000000000000000000000000000000000000000000000000008152506040805190810160405280600581526020017f4d4f5449460000000000000000000000000000000000000000000000000000008152508160049080519060200190620000b192919062000114565b508060059080519060200190620000ca92919062000114565b50505033600b60006101000a81548173ffffffffffffffffffffffffffffffffffffffff021916908373ffffffffffffffffffffffffffffffffffffffff160217905550620001c3565b828054600181600116156101000203166002900490600052602060002090601f016020900481019282601f106200015757805160ff191683800117855562000188565b8280016001018555821562000188579182015b82811115620001875782518255916020019190600101906200016a565b5b5090506200019791906200019b565b5090565b620001c091905b80821115620001bc576000816000905550600101620001a2565b5090565b90565b614d0980620001d36000396000f300608060405260043610610245576000357c0100000000000000000000000000000000000000000000000000000000900463ffffffff1680625b44871461024a57806306fdde0314610275578063081812fc14610305578063095ea7b3146103725780630b7e9c44146103bf57806318160ddd146104025780631983111d1461042d5780631f89e911146104a757806323b872dd146104e85780632f745c591461055557806332d57174146105b657806338e50d3c146107415780633a999758146107825780633ccfd60b146108945780633f27afa7146108ab5780633f4ba83a146108f657806342842e0e1461090d5780634f558e791461097a5780634f6ccce7146109bf5780635c975abb14610a005780636103d70b14610a2f5780636352211e14610a4657806363f2f54314610ab35780636c6eed9014610afc57806370a0823114610b8857806370e2b62514610bdf5780638456cb5914610c285780638da5cb5b14610c3f578063929a79b114610c9657806395d89b4114610cdf5780639984b3af14610d6f578063a22cb46514610e73578063aae07cd014610ec2578063b88d4fde14610f44578063b9e3a8dd14610ff7578063befc764214611026578063c350a1b514611053578063c73ec2eb146110c0578063c829b0e3146110eb578063c87b56dd14611116578063cc6ec42d146111bc578063d5e0d8fc146111e7578063e2982c211461121e578063e985e9c514611275578063eed085a2146112f0578063f2de397c14611372578063f2fde38b146113c3578063fb6c185814611406575b600080fd5b34801561025657600080fd5b5061025f61144b565b6040518082815260200191505060405180910390f35b34801561028157600080fd5b5061028a611451565b6040518080602001828103825283818151815260200191508051906020019080838360005b838110156102ca5780820151818401526020810190506102af565b50505050905090810190601f1680156102f75780820380516001836020036101000a031916815260200191505b509250505060405180910390f35b34801561031157600080fd5b50610330600480360381019080803590602001909291905050506114f3565b604051808273ffffffffffffffffffffffffffffffffffffffff1673ffffffffffffffffffffffffffffffffffffffff16815260200191505060405180910390f35b34801561037e57600080fd5b506103bd600480360381019080803573ffffffffffffffffffffffffffffffffffffffff16906020019092919080359060200190929190505050611530565b005b3480156103cb57600080fd5b50610400600480360381019080803573ffffffffffffffffffffffffffffffffffffffff1690602001909291905050506116f6565b005b34801561040e57600080fd5b506104176117bb565b6040518082815260200191505060405180910390f35b34801561043957600080fd5b50610491600480360381019080803590602001908201803590602001908080602002602001604051908101604052809392919081815260200183836020028082843782019150505050505091929192905050506117c8565b6040518082815260200191505060405180910390f35b3480156104b357600080fd5b506104d26004803603810190808035906020019092919050505061186d565b6040518082815260200191505060405180910390f35b3480156104f457600080fd5b50610553600480360381019080803573ffffffffffffffffffffffffffffffffffffffff169060200190929190803573ffffffffffffffffffffffffffffffffffffffff1690602001909291908035906020019092919050505061188a565b005b34801561056157600080fd5b506105a0600480360381019080803573ffffffffffffffffffffffffffffffffffffffff169060200190929190803590602001909291905050506119a1565b6040518082815260200191505060405180910390f35b61073f60048036038101908080359060200190820180359060200190808060200260200160405190810160405280939291908181526020018383602002808284378201915050505050509192919290803590602001908201803590602001908080602002602001604051908101604052809392919081815260200183836020028082843782019150505050505091929192908035906020019082018035906020019080806020026020016040519081016040528093929190818152602001838360200280828437820191505050505050919291929080359060200190820180359060200190808060200260200160405190810160405280939291908181526020018383602002808284378201915050505050509192919290803590602001909291908035906020019082018035906020019080806020026020016040519081016040528093929190818152602001838360200280828437820191505050505050919291929080356000191690602001909291908035600019169060200190929190505050611a18565b005b34801561074d57600080fd5b5061076c60048036038101908080359060200190929190505050611c73565b6040518082815260200191505060405180910390f35b34801561078e57600080fd5b506107ad60048036038101908080359060200190929190505050611c8b565b60405180806020018060200180602001848103845287818151815260200191508051906020019060200280838360005b838110156107f85780820151818401526020810190506107dd565b50505050905001848103835286818151815260200191508051906020019060200280838360005b8381101561083a57808201518184015260208101905061081f565b50505050905001848103825285818151815260200191508051906020019060200280838360005b8381101561087c578082015181840152602081019050610861565b50505050905001965050505050505060405180910390f35b3480156108a057600080fd5b506108a9611e5f565b005b3480156108b757600080fd5b506108e06004803603810190808035906020019092919080359060200190929190505050611f28565b6040518082815260200191505060405180910390f35b34801561090257600080fd5b5061090b611f58565b005b34801561091957600080fd5b50610978600480360381019080803573ffffffffffffffffffffffffffffffffffffffff169060200190929190803573ffffffffffffffffffffffffffffffffffffffff16906020019092919080359060200190929190505050612018565b005b34801561098657600080fd5b506109a560048036038101908080359060200190929190505050612050565b604051808215151515815260200191505060405180910390f35b3480156109cb57600080fd5b506109ea600480360381019080803590602001909291905050506120c1565b6040518082815260200191505060405180910390f35b348015610a0c57600080fd5b50610a156120f9565b604051808215151515815260200191505060405180910390f35b348015610a3b57600080fd5b50610a4461210c565b005b348015610a5257600080fd5b50610a7160048036038101908080359060200190929190505050612235565b604051808273ffffffffffffffffffffffffffffffffffffffff1673ffffffffffffffffffffffffffffffffffffffff16815260200191505060405180910390f35b348015610abf57600080fd5b50610ae260048036038101908080356000191690602001909291905050506122b2565b604051808215151515815260200191505060405180910390f35b348015610b0857600080fd5b50610b6e6004803603810190808035906020019082018035906020019080806020026020016040519081016040528093929190818152602001838360200280828437820191505050505050919291929080356000191690602001909291905050506122d2565b604051808215151515815260200191505060405180910390f35b348015610b9457600080fd5b50610bc9600480360381019080803573ffffffffffffffffffffffffffffffffffffffff16906020019092919050505061230d565b6040518082815260200191505060405180910390f35b348015610beb57600080fd5b50610c0e6004803603810190808035600019169060200190929190505050612391565b604051808215151515815260200191505060405180910390f35b348015610c3457600080fd5b50610c3d6123b1565b005b348015610c4b57600080fd5b50610c54612472565b604051808273ffffffffffffffffffffffffffffffffffffffff1673ffffffffffffffffffffffffffffffffffffffff16815260200191505060405180910390f35b348015610ca257600080fd5b50610cc160048036038101908080359060200190929190505050612498565b60405180826000191660001916815260200191505060405180910390f35b348015610ceb57600080fd5b50610cf46124b5565b6040518080602001828103825283818151815260200191508051906020019080838360005b83811015610d34578082015181840152602081019050610d19565b50505050905090810190601f168015610d615780820380516001836020036101000a031916815260200191505b509250505060405180910390f35b610e7160048036038101908080359060200190820180359060200190808060200260200160405190810160405280939291908181526020018383602002808284378201915050505050509192919290803590602001908201803590602001908080602002602001604051908101604052809392919081815260200183836020028082843782019150505050505091929192908035906020019082018035906020019080806020026020016040519081016040528093929190818152602001838360200280828437820191505050505050919291929080359060200190929190803560000b90602001909291908035600019169060200190929190505050612557565b005b348015610e7f57600080fd5b50610ec0600480360381019080803573ffffffffffffffffffffffffffffffffffffffff169060200190929190803515159060200190929190505050612685565b005b348015610ece57600080fd5b50610eed600480360381019080803590602001909291905050506127c1565b6040518080602001828103825283818151815260200191508051906020019060200280838360005b83811015610f30578082015181840152602081019050610f15565b505050509050019250505060405180910390f35b348015610f5057600080fd5b50610ff5600480360381019080803573ffffffffffffffffffffffffffffffffffffffff169060200190929190803573ffffffffffffffffffffffffffffffffffffffff16906020019092919080359060200190929190803590602001908201803590602001908080601f016020809104026020016040519081016040528093929190818152602001838380828437820191505050505050919291929050505061282c565b005b34801561100357600080fd5b5061100c61286b565b604051808215151515815260200191505060405180910390f35b34801561103257600080fd5b506110516004803603810190808035906020019092919050505061287e565b005b34801561105f57600080fd5b506110be600480360381019080803573ffffffffffffffffffffffffffffffffffffffff16906020019092919080359060200190929190803573ffffffffffffffffffffffffffffffffffffffff1690602001909291905050506128e4565b005b3480156110cc57600080fd5b506110d56129d2565b6040518082815260200191505060405180910390f35b3480156110f757600080fd5b506111006129d8565b6040518082815260200191505060405180910390f35b34801561112257600080fd5b50611141600480360381019080803590602001909291905050506129dd565b6040518080602001828103825283818151815260200191508051906020019080838360005b83811015611181578082015181840152602081019050611166565b50505050905090810190601f1680156111ae5780820380516001836020036101000a031916815260200191505b509250505060405180910390f35b3480156111c857600080fd5b506111d1612aa6565b6040518082815260200191505060405180910390f35b3480156111f357600080fd5b5061121c6004803603810190808035906020019092919080359060200190929190505050612aac565b005b34801561122a57600080fd5b5061125f600480360381019080803573ffffffffffffffffffffffffffffffffffffffff169060200190929190505050612afe565b6040518082815260200191505060405180910390f35b34801561128157600080fd5b506112d6600480360381019080803573ffffffffffffffffffffffffffffffffffffffff169060200190929190803573ffffffffffffffffffffffffffffffffffffffff169060200190929190505050612b16565b604051808215151515815260200191505060405180910390f35b3480156112fc57600080fd5b5061131b60048036038101908080359060200190929190505050612baa565b6040518080602001828103825283818151815260200191508051906020019060200280838360005b8381101561135e578082015181840152602081019050611343565b505050509050019250505060405180910390f35b34801561137e57600080fd5b506113a76004803603810190808035906020019092919080359060200190929190505050612c3b565b604051808260000b60000b815260200191505060405180910390f35b3480156113cf57600080fd5b50611404600480360381019080803573ffffffffffffffffffffffffffffffffffffffff169060200190929190505050612c7d565b005b34801561141257600080fd5b5061143160048036038101908080359060200190929190505050612dd5565b604051808215151515815260200191505060405180910390f35b600d5481565b606060048054600181600116156101000203166002900480601f0160208091040260200160405190810160405280929190818152602001828054600181600116156101000203166002900480156114e95780601f106114be576101008083540402835291602001916114e9565b820191906000526020600020905b8154815290600101906020018083116114cc57829003601f168201915b5050505050905090565b60006001600083815260200190815260200160002060009054906101000a900473ffffffffffffffffffffffffffffffffffffffff169050919050565b600061153b82612235565b90508073ffffffffffffffffffffffffffffffffffffffff168373ffffffffffffffffffffffffffffffffffffffff161415151561157857600080fd5b8073ffffffffffffffffffffffffffffffffffffffff163373ffffffffffffffffffffffffffffffffffffffff1614806115b857506115b78133612b16565b5b15156115c357600080fd5b600073ffffffffffffffffffffffffffffffffffffffff166115e4836114f3565b73ffffffffffffffffffffffffffffffffffffffff161415806116345750600073ffffffffffffffffffffffffffffffffffffffff168373ffffffffffffffffffffffffffffffffffffffff1614155b156116f157826001600084815260200190815260200160002060006101000a81548173ffffffffffffffffffffffffffffffffffffffff021916908373ffffffffffffffffffffffffffffffffffffffff1602179055508273ffffffffffffffffffffffffffffffffffffffff168173ffffffffffffffffffffffffffffffffffffffff167f8c5be1e5ebec7d5bd14f71427d1e84f3dd0314c0f7b2291e5b200ac8c7c3b925846040518082815260200191505060405180910390a35b505050565b600b60009054906101000a900473ffffffffffffffffffffffffffffffffffffffff1673ffffffffffffffffffffffffffffffffffffffff163373ffffffffffffffffffffffffffffffffffffffff1614151561175257600080fd5b6000600d819055508073ffffffffffffffffffffffffffffffffffffffff166108fc3073ffffffffffffffffffffffffffffffffffffffff16319081150290604051600060405180830381858888f193505050501580156117b7573d6000803e3d6000fd5b5050565b6000600880549050905090565b6000806000809150600090505b835181101561184c576117fe84828151811015156117ef57fe5b90602001906020020151612df8565b151561180957600080fd5b61183d8260106000878581518110151561181f57fe5b90602001906020020151815260200190815260200160002054612e1b565b915080806001019150506117d5565b61186161185a836069612e37565b6064612e6f565b91508192505050919050565b600060106000838152602001908152602001600020549050919050565b806118953382612e85565b15156118a057600080fd5b600073ffffffffffffffffffffffffffffffffffffffff168473ffffffffffffffffffffffffffffffffffffffff16141515156118dc57600080fd5b600073ffffffffffffffffffffffffffffffffffffffff168373ffffffffffffffffffffffffffffffffffffffff161415151561191857600080fd5b6119228483612f1a565b61192c8483613083565b611936838361329b565b8273ffffffffffffffffffffffffffffffffffffffff168473ffffffffffffffffffffffffffffffffffffffff167fddf252ad1be2c89b69c2b068fc378daa952ba7f163c4a11628f55a4df523b3ef846040518082815260200191505060405180910390a350505050565b60006119ac8361230d565b821015156119b957600080fd5b600660008473ffffffffffffffffffffffffffffffffffffffff1673ffffffffffffffffffffffffffffffffffffffff16815260200190815260200160002082815481101515611a0557fe5b9060005260206000200154905092915050565b60006060600080600e60009054906101000a900460ff16151515611a3b57600080fd5b611a43613372565b9350611a6e8c8c8c8b8b60018d5103815181101515611a5e57fe5b906020019060200201518a612557565b6001895101604051908082528060200260200182016040528015611aa15781602001602082028038833980820191505090505b509250600091505b8851821015611b64578882815181101515611ac057fe5b906020019060200201518383815181101515611ad857fe5b9060200190602002018181525050601560008581526020019081526020016000208783815181101515611b0757fe5b90602001906020020151908060018154018082558091505090600182039060005260206000209060209182820401919006909192909190916101000a81548160ff021916908360000b60ff16021790555050816001019150611aa9565b83836001855103815181101515611b7757fe5b906020019060200201818152505060156000858152602001908152602001600020876001895103815181101515611baa57fe5b90602001906020020151908060018154018082558091505090600182039060005260206000209060209182820401919006909192909190916101000a81548160ff021916908360000b60ff16021790555050611c068387613394565b84601660008681526020019081526020016000208160001916905550600090505b8851811015611c6557611c58611c538a83815181101515611c4457fe5b90602001906020020151612235565b6139b1565b8080600101915050611c27565b505050505050505050505050565b60106020528060005260406000206000915090505481565b6060806060600060608060606000611ca1614bce565b601460008b815260200190815260200160002095508560000180549050604051908082528060200260200182016040528015611cec5781602001602082028038833980820191505090505b5094508560000180549050604051908082528060200260200182016040528015611d255781602001602082028038833980820191505090505b5093508560000180549050604051908082528060200260200182016040528015611d5e5781602001602082028038833980820191505090505b509250600091505b8560000180549050821015611e49578560000182815481101515611d8657fe5b9060005260206000209060030201606060405190810160405290816000820160009054906101000a900460000b60000b60000b815260200160018201548152602001600282015481525050905080600001518583815181101515611de657fe5b9060200190602002019060000b908160000b8152505080602001518483815181101515611e0f57fe5b906020019060200201818152505080604001518383815181101515611e3057fe5b9060200190602002018181525050816001019150611d66565b8484849850985098505050505050509193909250565b600b60009054906101000a900473ffffffffffffffffffffffffffffffffffffffff1673ffffffffffffffffffffffffffffffffffffffff163373ffffffffffffffffffffffffffffffffffffffff16141515611ebb57600080fd5b601960009054906101000a900473ffffffffffffffffffffffffffffffffffffffff1673ffffffffffffffffffffffffffffffffffffffff166108fc601a549081150290604051600060405180830381858888f19350505050158015611f25573d6000803e3d6000fd5b50565b601160205281600052604060002081815481101515611f4357fe5b90600052602060002001600091509150505481565b600b60009054906101000a900473ffffffffffffffffffffffffffffffffffffffff1673ffffffffffffffffffffffffffffffffffffffff163373ffffffffffffffffffffffffffffffffffffffff16141515611fb457600080fd5b600e60009054906101000a900460ff161515611fcf57600080fd5b6000600e60006101000a81548160ff0219169083151502179055507f7805862f689e2f13df9f062ff482ad3ad112aca9e0847911ed832e158c525b3360405160405180910390a1565b806120233382612e85565b151561202e57600080fd5b61204a848484602060405190810160405280600081525061282c565b50505050565b60008060008084815260200190815260200160002060009054906101000a900473ffffffffffffffffffffffffffffffffffffffff169050600073ffffffffffffffffffffffffffffffffffffffff168173ffffffffffffffffffffffffffffffffffffffff161415915050919050565b60006120cb6117bb565b821015156120d857600080fd5b6008828154811015156120e757fe5b90600052602060002001549050919050565b600e60009054906101000a900460ff1681565b600080339150600c60008373ffffffffffffffffffffffffffffffffffffffff1673ffffffffffffffffffffffffffffffffffffffff1681526020019081526020016000205490506000811415151561216457600080fd5b803073ffffffffffffffffffffffffffffffffffffffff16311015151561218a57600080fd5b61219f81600d54613ace90919063ffffffff16565b600d819055506000600c60008473ffffffffffffffffffffffffffffffffffffffff1673ffffffffffffffffffffffffffffffffffffffff168152602001908152602001600020819055508173ffffffffffffffffffffffffffffffffffffffff166108fc829081150290604051600060405180830381858888f19350505050158015612230573d6000803e3d6000fd5b505050565b60008060008084815260200190815260200160002060009054906101000a900473ffffffffffffffffffffffffffffffffffffffff169050600073ffffffffffffffffffffffffffffffffffffffff168173ffffffffffffffffffffffffffffffffffffffff16141515156122a957600080fd5b80915050919050565b60136020528060005260406000206000915054906101000a900460ff1681565b6000601760009054906101000a900460ff16156122fa576122f38383613ae7565b9050612307565b6123048383613cdb565b90505b92915050565b60008073ffffffffffffffffffffffffffffffffffffffff168273ffffffffffffffffffffffffffffffffffffffff161415151561234a57600080fd5b600260008373ffffffffffffffffffffffffffffffffffffffff1673ffffffffffffffffffffffffffffffffffffffff168152602001908152602001600020549050919050565b60126020528060005260406000206000915054906101000a900460ff1681565b600b60009054906101000a900473ffffffffffffffffffffffffffffffffffffffff1673ffffffffffffffffffffffffffffffffffffffff163373ffffffffffffffffffffffffffffffffffffffff1614151561240d57600080fd5b600e60009054906101000a900460ff1615151561242957600080fd5b6001600e60006101000a81548160ff0219169083151502179055507f6985a02210a168e66602d3235cb6db0e70f92b3ba4d376a33c0f3d9434bff62560405160405180910390a1565b600b60009054906101000a900473ffffffffffffffffffffffffffffffffffffffff1681565b600060166000838152602001908152602001600020549050919050565b606060058054600181600116156101000203166002900480601f01602080910402602001604051908101604052809291908181526020018280546001816001161561010002031660029004801561254d5780601f106125225761010080835404028352916020019161254d565b820191906000526020600020905b81548152906001019060200180831161253057829003601f168201915b5050505050905090565b6000868686600082518451148015612570575081518451145b801561257d575060648451105b151561258857600080fd5b606484600081518110151561259957fe5b9060200190602002015160000b1415156125b257600080fd5b6001835103905060185482828151811015156125ca57fe5b9060200190602002015184838151811015156125e257fe5b9060200190602002015101111515156125fa57600080fd5b600e60009054906101000a900460ff1615151561261657600080fd5b600f54341015151561262757600080fd5b61262f613372565b945061263e8b8b8b8b8b613efa565b5085601660008781526020019081526020016000208160001916905550612672600f54601a54612e1b90919063ffffffff16565b601a819055505050505050505050505050565b3373ffffffffffffffffffffffffffffffffffffffff168273ffffffffffffffffffffffffffffffffffffffff16141515156126c057600080fd5b80600360003373ffffffffffffffffffffffffffffffffffffffff1673ffffffffffffffffffffffffffffffffffffffff16815260200190815260200160002060008473ffffffffffffffffffffffffffffffffffffffff1673ffffffffffffffffffffffffffffffffffffffff16815260200190815260200160002060006101000a81548160ff0219169083151502179055508173ffffffffffffffffffffffffffffffffffffffff163373ffffffffffffffffffffffffffffffffffffffff167f17307eab39ab6107e8899845ad3d59bd9653f200f220920489ca2b5937696c3183604051808215151515815260200191505060405180910390a35050565b60606011600083815260200190815260200160002080548060200260200160405190810160405280929190818152602001828054801561282057602002820191906000526020600020905b81548152602001906001019080831161280c575b50505050509050919050565b816128373382612e85565b151561284257600080fd5b61284d85858561188a565b61285985858585614207565b151561286457600080fd5b5050505050565b601760009054906101000a900460ff1681565b600b60009054906101000a900473ffffffffffffffffffffffffffffffffffffffff1673ffffffffffffffffffffffffffffffffffffffff163373ffffffffffffffffffffffffffffffffffffffff161415156128da57600080fd5b80600f8190555050565b601760019054906101000a900460ff1615151561290057600080fd5b6001601760006101000a81548160ff02191690831515021790555081601881905550662386f26fc10000600f8190555080601960006101000a81548173ffffffffffffffffffffffffffffffffffffffff021916908373ffffffffffffffffffffffffffffffffffffffff16021790555082600b60006101000a81548173ffffffffffffffffffffffffffffffffffffffff021916908373ffffffffffffffffffffffffffffffffffffffff1602179055506001601760016101000a81548160ff021916908315150217905550505050565b600f5481565b600a81565b60606129e882612050565b15156129f357600080fd5b600a60008381526020019081526020016000208054600181600116156101000203166002900480601f016020809104026020016040519081016040528092919081815260200182805460018160011615610100020316600290048015612a9a5780601f10612a6f57610100808354040283529160200191612a9a565b820191906000526020600020905b815481529060010190602001808311612a7d57829003601f168201915b50505050509050919050565b60185481565b813373ffffffffffffffffffffffffffffffffffffffff16612acd82612235565b73ffffffffffffffffffffffffffffffffffffffff16141515612aef57600080fd5b612af983836143f5565b505050565b600c6020528060005260406000206000915090505481565b6000600360008473ffffffffffffffffffffffffffffffffffffffff1673ffffffffffffffffffffffffffffffffffffffff16815260200190815260200160002060008373ffffffffffffffffffffffffffffffffffffffff1673ffffffffffffffffffffffffffffffffffffffff16815260200190815260200160002060009054906101000a900460ff16905092915050565b606060156000838152602001908152602001600020805480602002602001604051908101604052809291908181526020018280548015612c2f57602002820191906000526020600020906000905b82829054906101000a900460000b60000b81526020019060010190602082600001049283019260010382029150808411612bf85790505b50505050509050919050565b601560205281600052604060002081815481101515612c5657fe5b9060005260206000209060209182820401919006915091509054906101000a900460000b81565b600b60009054906101000a900473ffffffffffffffffffffffffffffffffffffffff1673ffffffffffffffffffffffffffffffffffffffff163373ffffffffffffffffffffffffffffffffffffffff16141515612cd957600080fd5b600073ffffffffffffffffffffffffffffffffffffffff168173ffffffffffffffffffffffffffffffffffffffff1614151515612d1557600080fd5b8073ffffffffffffffffffffffffffffffffffffffff16600b60009054906101000a900473ffffffffffffffffffffffffffffffffffffffff1673ffffffffffffffffffffffffffffffffffffffff167f8be0079c531659141344cd1fd0a4f28419497f9722a3daafe3b4186f6b6457e060405160405180910390a380600b60006101000a81548173ffffffffffffffffffffffffffffffffffffffff021916908373ffffffffffffffffffffffffffffffffffffffff16021790555050565b600060016011600084815260200190815260200160002080549050119050919050565b600080601160008481526020019081526020016000208054905014159050919050565b60008183019050828110151515612e2e57fe5b80905092915050565b600080831415612e4a5760009050612e69565b8183029050818382811515612e5b57fe5b04141515612e6557fe5b8090505b92915050565b60008183811515612e7c57fe5b04905092915050565b600080612e9183612235565b90508073ffffffffffffffffffffffffffffffffffffffff168473ffffffffffffffffffffffffffffffffffffffff161480612f0057508373ffffffffffffffffffffffffffffffffffffffff16612ee8846114f3565b73ffffffffffffffffffffffffffffffffffffffff16145b80612f115750612f108185612b16565b5b91505092915050565b8173ffffffffffffffffffffffffffffffffffffffff16612f3a82612235565b73ffffffffffffffffffffffffffffffffffffffff16141515612f5c57600080fd5b600073ffffffffffffffffffffffffffffffffffffffff166001600083815260200190815260200160002060009054906101000a900473ffffffffffffffffffffffffffffffffffffffff1673ffffffffffffffffffffffffffffffffffffffff1614151561307f5760006001600083815260200190815260200160002060006101000a81548173ffffffffffffffffffffffffffffffffffffffff021916908373ffffffffffffffffffffffffffffffffffffffff160217905550600073ffffffffffffffffffffffffffffffffffffffff168273ffffffffffffffffffffffffffffffffffffffff167f8c5be1e5ebec7d5bd14f71427d1e84f3dd0314c0f7b2291e5b200ac8c7c3b925836040518082815260200191505060405180910390a35b5050565b60008060006130928585614478565b600760008581526020019081526020016000205492506130fe6001600660008873ffffffffffffffffffffffffffffffffffffffff1673ffffffffffffffffffffffffffffffffffffffff16815260200190815260200160002080549050613ace90919063ffffffff16565b9150600660008673ffffffffffffffffffffffffffffffffffffffff1673ffffffffffffffffffffffffffffffffffffffff1681526020019081526020016000208281548110151561314c57fe5b9060005260206000200154905080600660008773ffffffffffffffffffffffffffffffffffffffff1673ffffffffffffffffffffffffffffffffffffffff168152602001908152602001600020848154811015156131a657fe5b90600052602060002001819055506000600660008773ffffffffffffffffffffffffffffffffffffffff1673ffffffffffffffffffffffffffffffffffffffff1681526020019081526020016000208381548110151561320257fe5b9060005260206000200181905550600660008673ffffffffffffffffffffffffffffffffffffffff1673ffffffffffffffffffffffffffffffffffffffff1681526020019081526020016000208054809190600190036132629190614bf2565b50600060076000868152602001908152602001600020819055508260076000838152602001908152602001600020819055505050505050565b60006132a783836145a6565b600660008473ffffffffffffffffffffffffffffffffffffffff1673ffffffffffffffffffffffffffffffffffffffff168152602001908152602001600020805490509050600660008473ffffffffffffffffffffffffffffffffffffffff1673ffffffffffffffffffffffffffffffffffffffff168152602001908152602001600020829080600181540180825580915050906001820390600052602060002001600090919290919091505550806007600084815260200190815260200160002081905550505050565b600061338f60016133816117bb565b612e1b90919063ffffffff16565b905090565b6000606060008060006060600080600080600e60009054906101000a900460ff161515156133c157600080fd5b60018c511115156133d157600080fd5b6133da8c6117c8565b9950600073ffffffffffffffffffffffffffffffffffffffff163373ffffffffffffffffffffffffffffffffffffffff16141580156134195750893410155b151561342457600080fd5b600a8c511115151561343557600080fd5b600a6040519080825280602002602001820160405280156134655781602001602082028038833980820191505090505b50985060009750600096505b8b5187101561370a578b8781518110151561348857fe5b90602001906020020151955061349d86612df8565b15156134a857600080fd5b6011600087815260200190815260200160002080548060200260200160405190810160405280929190818152602001828054801561350557602002820191906000526020600020905b8154815260200190600101908083116134f1575b50505050509450601760009054906101000a900460ff1615613532576001855114151561353157600080fd5b5b600a855110151561354257600080fd5b600093505b845184101561362357600a8810151561355f57600080fd5b600092505b88518310156135dc57848481518110151561357b57fe5b90602001906020020151898481518110151561359357fe5b90602001906020020151141515156135aa57600080fd5b600089848151811015156135ba57fe5b9060200190602002015114156135cf576135dc565b8280600101935050613564565b84848151811015156135ea57fe5b90602001906020020151898981518110151561360257fe5b90602001906020020181815250506001880197508380600101945050613547565b600073ffffffffffffffffffffffffffffffffffffffff1661364487612235565b73ffffffffffffffffffffffffffffffffffffffff161415151561366757600080fd5b61368c61367387612235565b60106000898152602001908152602001600020546146fe565b61369586612235565b73ffffffffffffffffffffffffffffffffffffffff167faa044fd0677f595122a532475e14efe539fe126d9ec7d9b7e66d7fcbec3636be87601060008a815260200190815260200160002054604051808381526020018281526020019250505060405180910390a28680600101975050613471565b613712613372565b915061371e89896147b2565b601160008481526020019081526020016000209080519060200190613744929190614c1e565b506137b0601160008481526020019081526020016000208054806020026020016040519081016040528092919081815260200182805480156137a557602002820191906000526020600020905b815481526020019060010190808311613791575b50505050508c614842565b15156137bb57600080fd5b6001601260006011600086815260200190815260200160002060405180828054801561380657602002820191906000526020600020905b8154815260200190600101908083116137f2575b505091505060405180910390206000191660001916815260200190815260200160002060006101000a81548160ff0219169083151502179055506001601360008d6000191660001916815260200190815260200160002060006101000a81548160ff02191690831515021790555061387e33836148f5565b893411156138da57613890348b613ace565b90503373ffffffffffffffffffffffffffffffffffffffff166108fc829081150290604051600060405180830381858888f193505050501580156138d8573d6000803e3d6000fd5b505b601760009054906101000a900460ff1615156138fd576138fc82600f546143f5565b5b3373ffffffffffffffffffffffffffffffffffffffff167f8258990f4da6775c9379703a14a2d112f3131e6b3a3840d1f6c25ccfe1051b9d83601160008681526020019081526020016000206040518083815260200180602001828103825283818154815260200191508054801561399457602002820191906000526020600020905b815481526020019060010190808311613980575b5050935050505060405180910390a2505050505050505050505050565b6000600c60008373ffffffffffffffffffffffffffffffffffffffff1673ffffffffffffffffffffffffffffffffffffffff16815260200190815260200160002054905060008114158015613a1d5750803073ffffffffffffffffffffffffffffffffffffffff163110155b15613aca57613a3781600d54613ace90919063ffffffff16565b600d819055506000600c60008473ffffffffffffffffffffffffffffffffffffffff1673ffffffffffffffffffffffffffffffffffffffff168152602001908152602001600020819055508173ffffffffffffffffffffffffffffffffffffffff166108fc829081150290604051600060405180830381858888f19350505050158015613ac8573d6000803e3d6000fd5b505b5050565b6000828211151515613adc57fe5b818303905092915050565b60006060600080600a865111151515613aff57600080fd5b8551604051908082528060200260200182016040528015613b2f5781602001602082028038833980820191505090505b509250600091505b8551821015613cc557613b608683815181101515613b5157fe5b90602001906020020151612df8565b1515613b6f5760009350613cd2565b6001601160008885815181101515613b8357fe5b90602001906020020151815260200190815260200160002080549050141515613baf5760009350613cd2565b600090505b8251811015613cb857601160008784815181101515613bcf57fe5b9060200190602002015181526020019081526020016000206000815481101515613bf557fe5b90600052602060002001548382815181101515613c0e57fe5b906020019060200201511415613c275760009350613cd2565b60008382815181101515613c3757fe5b906020019060200201511415613cab57601160008784815181101515613c5957fe5b9060200190602002015181526020019081526020016000206000815481101515613c7f57fe5b90600052602060002001548382815181101515613c9857fe5b9060200190602002018181525050613cb8565b8080600101915050613bb4565b8180600101925050613b37565b613ccf8386614842565b93505b50505092915050565b6000606060008060006060600080600a604051908082528060200260200182016040528015613d195781602001602082028038833980820191505090505b50965060009550600a8a511115613d335760009750613eed565b600094505b8951851015613ed7578985815181101515613d4f57fe5b906020019060200201519350613d6484612df8565b1515613d735760009750613eed565b60116000858152602001908152602001600020805480602002602001604051908101604052809291908181526020018280548015613dd057602002820191906000526020600020905b815481526020019060010190808311613dbc575b50505050509250600a8351101515613de757600080fd5b600091505b8251821015613eca57600a86101515613e0457600080fd5b600090505b8651811015613e83578282815181101515613e2057fe5b906020019060200201518782815181101515613e3857fe5b906020019060200201511415613e515760009750613eed565b60008782815181101515613e6157fe5b906020019060200201511415613e7657613e83565b8080600101915050613e09565b8282815181101515613e9157fe5b906020019060200201518787815181101515613ea957fe5b90602001906020020181815250506001860195508180600101925050613dec565b8480600101955050613d38565b613eea613ee488886147b2565b8a614842565b97505b5050505050505092915050565b600080600080600080600080613f0e614bce565b6000613f18613372565b98506000975060009650600095505b8e518610156140da57878e87815181101515613f3f57fe5b9060200190602002015110151515613f5657600080fd5b878e87815181101515613f6557fe5b906020019060200201511415613faf5760648760000b141515613fae578660000b8f87815181101515613f9457fe5b9060200190602002015160000b131515613fad57600080fd5b5b5b8e86815181101515613fbd57fe5b9060200190602002015194508d86815181101515613fd757fe5b9060200190602002015193508c86815181101515613ff157fe5b9060200190602002015192506060604051908101604052808660000b8152602001858152602001848152509150601460008a8152602001908152602001600020600001829080600181540180825580915050906001820390600052602060002090600302016000909192909190915060008201518160000160006101000a81548160ff021916908360000b60ff16021790555060208201518160010155604082015181600201555050508d868151811015156140a957fe5b9060200190602002015197508e868151811015156140c357fe5b906020019060200201519650856001019550613f27565b8e8e8e60405180848051906020019060200280838360005b8381101561410d5780820151818401526020810190506140f2565b50505050905001838051906020019060200280838360005b83811015614140578082015181840152602081019050614125565b50505050905001828051906020019060200280838360005b83811015614173578082015181840152602081019050614158565b50505050905001935050505060405180910390209050614194338d8361494c565b9850601560008a81526020019081526020016000208b908060018154018082558091505090600182039060005260206000209060209182820401919006909192909190916101000a81548160ff021916908360000b60ff1602179055505088995050505050505050505095945050505050565b6000806142298573ffffffffffffffffffffffffffffffffffffffff16614b0b565b151561423857600191506143ec565b8473ffffffffffffffffffffffffffffffffffffffff1663f0b9e5ba8786866040518463ffffffff167c0100000000000000000000000000000000000000000000000000000000028152600401808473ffffffffffffffffffffffffffffffffffffffff1673ffffffffffffffffffffffffffffffffffffffff16815260200183815260200180602001828103825283818151815260200191508051906020019080838360005b838110156142fa5780820151818401526020810190506142df565b50505050905090810190601f1680156143275780820380516001836020036101000a031916815260200191505b50945050505050602060405180830381600087803b15801561434857600080fd5b505af115801561435c573d6000803e3d6000fd5b505050506040513d602081101561437257600080fd5b8101908080519060200190929190505050905063f0b9e5ba7c0100000000000000000000000000000000000000000000000000000000027bffffffffffffffffffffffffffffffffffffffffffffffffffffffff1916817bffffffffffffffffffffffffffffffffffffffffffffffffffffffff19161491505b50949350505050565b600f54811015151561440657600080fd5b8060106000848152602001908152602001600020819055503373ffffffffffffffffffffffffffffffffffffffff167f372883ed096f3aca24c33c36571b41f60a645cb114b5590f319e2e1c2606db6e8383604051808381526020018281526020019250505060405180910390a25050565b8173ffffffffffffffffffffffffffffffffffffffff1661449882612235565b73ffffffffffffffffffffffffffffffffffffffff161415156144ba57600080fd5b61450d6001600260008573ffffffffffffffffffffffffffffffffffffffff1673ffffffffffffffffffffffffffffffffffffffff16815260200190815260200160002054613ace90919063ffffffff16565b600260008473ffffffffffffffffffffffffffffffffffffffff1673ffffffffffffffffffffffffffffffffffffffff16815260200190815260200160002081905550600080600083815260200190815260200160002060006101000a81548173ffffffffffffffffffffffffffffffffffffffff021916908373ffffffffffffffffffffffffffffffffffffffff1602179055505050565b600073ffffffffffffffffffffffffffffffffffffffff1660008083815260200190815260200160002060009054906101000a900473ffffffffffffffffffffffffffffffffffffffff1673ffffffffffffffffffffffffffffffffffffffff1614151561461357600080fd5b8160008083815260200190815260200160002060006101000a81548173ffffffffffffffffffffffffffffffffffffffff021916908373ffffffffffffffffffffffffffffffffffffffff1602179055506146b76001600260008573ffffffffffffffffffffffffffffffffffffffff1673ffffffffffffffffffffffffffffffffffffffff16815260200190815260200160002054612e1b90919063ffffffff16565b600260008473ffffffffffffffffffffffffffffffffffffffff1673ffffffffffffffffffffffffffffffffffffffff168152602001908152602001600020819055505050565b61475081600c60008573ffffffffffffffffffffffffffffffffffffffff1673ffffffffffffffffffffffffffffffffffffffff16815260200190815260200160002054612e1b90919063ffffffff16565b600c60008473ffffffffffffffffffffffffffffffffffffffff1673ffffffffffffffffffffffffffffffffffffffff168152602001908152602001600020819055506147a881600d54612e1b90919063ffffffff16565b600d819055505050565b6060806000836040519080825280602002602001820160405280156147e65781602001602082028038833980820191505090505b509150600090505b8381101561483757848181518110151561480457fe5b90602001906020020151828281518110151561481c57fe5b906020019060200201818152505080806001019150506147ee565b819250505092915050565b6000801515601260008560405180828051906020019060200280838360005b8381101561487c578082015181840152602081019050614861565b5050505090500191505060405180910390206000191660001916815260200190815260200160002060009054906101000a900460ff1615151480156148ed57506000151560136000846000191660001916815260200190815260200160002060009054906101000a900460ff161515145b905092915050565b6148ff8282614b1e565b600880549050600960008381526020019081526020016000208190555060088190806001815401808255809150509060018203906000526020600020016000909192909190915055505050565b600080614957613372565b905061496385826148f5565b6020604051908101604052808281525060116000838152602001908152602001600020906001614994929190614c6b565b50614a00601160008381526020019081526020016000208054806020026020016040519081016040528092919081815260200182805480156149f557602002820191906000526020600020905b8154815260200190600101908083116149e1575b505050505084614842565b1515614a0b57600080fd5b600160126000602060405190810160405280858152506040518082600160200280838360005b83811015614a4c578082015181840152602081019050614a31565b5050505090500191505060405180910390206000191660001916815260200190815260200160002060006101000a81548160ff021916908315150217905550600160136000856000191660001916815260200190815260200160002060006101000a81548160ff0219169083151502179055507f3f5bdceccefc96a1f5b67e0c030e1f5f27d4f940582f4114ee08d3599912e216816040518082815260200191505060405180910390a1614b0081856143f5565b809150509392505050565b600080823b905060008111915050919050565b600073ffffffffffffffffffffffffffffffffffffffff168273ffffffffffffffffffffffffffffffffffffffff1614151515614b5a57600080fd5b614b64828261329b565b8173ffffffffffffffffffffffffffffffffffffffff16600073ffffffffffffffffffffffffffffffffffffffff167fddf252ad1be2c89b69c2b068fc378daa952ba7f163c4a11628f55a4df523b3ef836040518082815260200191505060405180910390a35050565b6060604051908101604052806000800b815260200160008152602001600081525090565b815481835581811115614c1957818360005260206000209182019101614c189190614cb8565b5b505050565b828054828255906000526020600020908101928215614c5a579160200282015b82811115614c59578251825591602001919060010190614c3e565b5b509050614c679190614cb8565b5090565b828054828255906000526020600020908101928215614ca7579160200282015b82811115614ca6578251825591602001919060010190614c8b565b5b509050614cb49190614cb8565b5090565b614cda91905b80821115614cd6576000816000905550600101614cbe565b5090565b905600a165627a7a72305820add3658c2663b97df3938fbe4509bb5cd669059b5b141a68cce96770efa6a6370029",
  "source": "pragma solidity ^0.4.23;\r\n\r\nimport \"./Composable.sol\";\r\nimport \"zeppelin-solidity/contracts/math/SafeMath.sol\";\r\n\r\n/**\r\n * @title Motif\r\n * Motif - a contract to mint and compose original Motifs\r\n*/\r\ncontract Motif is Composable {\r\n    using SafeMath for uint256;\r\n\r\n    // set proxy as the owner\r\n    bool internal _initialized;\r\n\r\n    uint256 public MAXDURATION;\r\n    address beneficiary;\r\n    uint256 fees;\r\n\r\n    modifier checkArguments(int8[] pitches,  uint256[] startTimes, uint256[] durations) {\r\n        require(pitches.length == startTimes.length && pitches.length == durations.length && pitches.length < 100);\r\n        require (pitches[0] == 100);\r\n        uint256 last = startTimes.length - 1;\r\n        require(startTimes[last] + durations[last] <= MAXDURATION);\r\n        _;\r\n    }\r\n\r\n    constructor() ERC721Token(\"Motif\", \"MOTIF\") public {}\r\n    \r\n    function initialize(address newOwner, uint256 maxDuration, address _beneficiary) public {\r\n        require(!_initialized);\r\n        isCompositionOnlyWithBaseLayers = true;\r\n        MAXDURATION = maxDuration;\r\n        minCompositionFee = 0.01 ether;\r\n        beneficiary = _beneficiary;\r\n        owner = newOwner;\r\n        _initialized = true;\r\n    }\r\n\r\n    /**\r\n    * @dev Mints a base melody\r\n    */\r\n    function composeBaseMelody(int8[] pitches,  \r\n                               uint256[] startTimes, \r\n                               uint256[] durations, \r\n                               uint256 _compositionPrice,\r\n                               int8 _displayPitch,\r\n                               bytes32 _title) checkArguments(pitches, startTimes, durations) public payable whenNotPaused {\r\n        //must pay registration fee\r\n        require(msg.value >= minCompositionFee);\r\n        \r\n        uint256 id = _getNextTokenId();\r\n         createMelody(pitches, startTimes, durations, _compositionPrice, _displayPitch);\r\n        tokenIdToTitle[id] = _title;\r\n\r\n        fees = fees.add(minCompositionFee);\r\n    }\r\n\r\n    function composeComposition(int8[] pitches,  \r\n                                uint256[] startTimes, \r\n                                uint256[] durations, \r\n                                uint256[] _tokenIds, \r\n                                uint256 _compositionPrice, \r\n                                int8[] _displayPitches,\r\n                                bytes32 _melodyHash,\r\n                                bytes32 _title) public payable whenNotPaused {\r\n        //mint base melody with any added notes\r\n        uint256 newId = _getNextTokenId();\r\n        composeBaseMelody(pitches, startTimes, durations, _compositionPrice, _displayPitches[_displayPitches.length - 1], _title);\r\n\r\n        uint256[] memory newTokenIds = new uint256[](_tokenIds.length + 1);\r\n        \r\n        for (uint256 i = 0; i < _tokenIds.length; ++i) {\r\n            newTokenIds[i] = _tokenIds[i];\r\n            tokenIdToDisplayPitch[newId].push(_displayPitches[i]);\r\n        }\r\n        newTokenIds[newTokenIds.length - 1] = newId;\r\n        tokenIdToDisplayPitch[newId].push(_displayPitches[_displayPitches.length - 1]);\r\n\r\n        //compose composition melody\r\n        Composable.compose(newTokenIds, _melodyHash);\r\n        tokenIdToTitle[newId] = _title;\r\n\r\n        // Immediately pay out to layer owners\r\n        for (uint256 x = 0; x < _tokenIds.length; x++) {\r\n            _withdrawTo(ownerOf(_tokenIds[x]));\r\n        }\r\n    }\r\n\r\n    function createMelody(int8[] pitches,  \r\n                          uint256[] startTimes, \r\n                          uint256[] durations, \r\n                          uint256 _compositionPrice,\r\n                          int8 _displayPitch) internal returns (uint256) {\r\n        uint256 _id = _getNextTokenId();\r\n\r\n        //variable to keep track of the last notes start time\r\n        uint256 lastStart = 0;\r\n        int8 lastPitch = 0;\r\n        for (uint256 i = 0; i < pitches.length; ++i) {\r\n            //make sure a later note does not come before a previous note - this is mostly for checking uniqueness rather than actual organization\r\n            require(startTimes[i] >= lastStart);\r\n            if (startTimes[i] == lastStart) {\r\n                //make sure pitches with the same Start Time are sorted in ascending order\r\n                if(lastPitch != 100) {\r\n                    require(pitches[i] > lastPitch);\r\n                }\r\n            }\r\n            int8 _pitch = pitches[i];\r\n            uint256 _startTime = startTimes[i];\r\n            uint256 _duration = durations[i];\r\n            note memory _note = note({\r\n                pitch: _pitch, \r\n                startTime: _startTime, \r\n                duration: _duration\r\n            });\r\n\r\n            tokenIdToMelody[_id].melody.push(_note);\r\n\r\n            lastStart = startTimes[i];\r\n            lastPitch = pitches[i];\r\n        }\r\n\r\n        bytes32 _melodyHash = keccak256(pitches, startTimes, durations);\r\n\r\n        //mint base melody\r\n        _id = Composable.mintTo(msg.sender, _compositionPrice, _melodyHash);\r\n        tokenIdToDisplayPitch[_id].push(_displayPitch);\r\n\r\n        return _id;\r\n    }\r\n\r\n// ----- EXPOSED METHODS --------------------------------------------------------------------------\r\n\r\n    /**\r\n    * @dev gets a melody for a composition\r\n     */\r\n    function getMelody(uint256 _id) public view returns (int8[], uint256[], uint256[]) {\r\n        Melody storage melody = tokenIdToMelody[_id];\r\n\r\n        int8[] memory _pitches = new int8[](melody.melody.length);\r\n        uint[] memory _startTimes = new uint256[](melody.melody.length);\r\n        uint256[] memory _durations = new uint256[](melody.melody.length);\r\n\r\n        for (uint256 i = 0; i < melody.melody.length; ++i) {\r\n            note memory _note = melody.melody[i];\r\n            _pitches[i] = _note.pitch;\r\n            _startTimes[i] = _note.startTime;\r\n            _durations[i] = _note.duration;\r\n        }\r\n\r\n        return (_pitches, _startTimes, _durations);\r\n    }\r\n\r\n    /**\r\n    * @dev returns whether or not a token id is a composition\r\n     */\r\n     function isAComposition(uint256 _id) public view returns (bool) {\r\n         return (tokenIdToLayers[_id].length > 1);\r\n     }\r\n\r\n    /**\r\n    * @dev gets display pitches\r\n     */\r\n     function getDisplayPitches(uint256 _id) public view returns (int8[]) {\r\n         return tokenIdToDisplayPitch[_id];\r\n     }\r\n\r\n     /**\r\n     * @dev gets a title\r\n      */\r\n      function getTitle(uint256 _id) public view returns (bytes32) {\r\n          return tokenIdToTitle[_id];\r\n      }\r\n\r\n// ----- PRIVATE FUNCTIONS ------------------------------------------------------------------------\r\n\r\n    /**\r\n    * @dev withdraw accumulated balance to the payee\r\n    * @param _payee address to which to withdraw to\r\n    */\r\n    function _withdrawTo(address _payee) private {\r\n        uint256 payment = payments[_payee];\r\n\r\n        if (payment != 0 && address(this).balance >= payment) {\r\n            totalPayments = totalPayments.sub(payment);\r\n            payments[_payee] = 0;\r\n            _payee.transfer(payment);\r\n        }\r\n    }\r\n\r\n    function withdraw() public onlyOwner {\r\n        beneficiary.transfer(fees);\r\n    }\r\n}\r\n",
  "sourcePath": "/Users/nathanieloden/Documents/GitHub/jingle2/Jingle/contracts/Motif.sol",
  "compiler": {
    "name": "solc",
    "version": "0.4.23+commit.124ca40d.Emscripten.clang"
  },
  "schemaVersion": "2.0.0",
  "updatedAt": "2018-05-25T02:07:48.499Z"
}